:1000000000370020050C0000150C0000170C000044
:10001000190C0000190C0000190C00000000000071
:10002000000000000000000000000000190C0000AB
:10003000190C000000000000190C0000190C000051
:10004000190C0000190C0000190C0000190C00001C
:10005000190C0000190C0000190C0000190C00000C
:10006000190C0000190C0000190C0000190C0000FC
:10007000190C0000190C0000190C0000190C0000EC
:10008000190C0000190C0000190C0000190C0000DC
:10009000190C0000190C0000190C0000190C0000CC
:1000A000190C0000190C0000190C0000190C0000BC
:1000B000190C0000190C0000190C0000190C0000AC
:1000C000190C0000190C000010B5DFF824050468B5
:1000D00014F1010F08BF002400F04CFBDFF81415E9
:1000E000002008600120DFF810150860DFF80C150B
:1000F000086000F04CFADFF80805006828B1DFF866
:1001000004050068204600F022F8DFF8FC14DFF850
:10011000FC2400200860DFF8F80401686FF31B413D
:1001200011430160DFF8EC040168C1F301310129DA
:1001300007D10168DFF8E024114041F40032026089
:100140000160DFF8D80400680028FAD110BD70B54E
:100150000546DFF8CC0401210160DFF8C814096806
:100160000029FAD0DFF8C044DFF8C024C0212160A4
:100170005368DFF8BC149B075DBF13681B0C43F08A
:10018000F00372230B70002101639668304600F083
:1001900031F83146284600F061F8DFF89804816DA7
:1001A00089B240F20F22914214D201680068C1F373
:1001B0000361C0F3034001B1491E072805D006289A
:1001C0000EBF0720801C00F00F0041EA0010DFF88E
:1001D00068140870304600F0B2F8DFF8601409685F
:1001E000C96802208847402020600120DFF85014B1
:1001F000086070BD10B50446DFF848040068C0F31D
:10020000046000F0C0F92117491C08181628A8BF7F
:10021000152004DA6FF009018842B8BF084600F0E3
:100220001F00DFF8241440F4F8500880DFF81C04A5
:10023000006880074FBF44F040640020DFF81014CE
:100240000860DFF81004C4F3C06181F001010160AF
:10025000C4F3806181F00101816010BD70B5054675
:1002600082B0084600F0F0F80246DFF8EC431821AF
:1002700000F062F800F014F980B20090002340F220
:10028000FF322C21204600F0C4FADFF8D063F0687A
:10029000C0F30D021C2100F04FF8706800F0FC3232
:1002A000142100F049F83068DFF8B413DFF8B463C4
:1002B00001EA0002102100F03FF8284600F0FAF8A9
:1002C00002460C2100F038F8284600F01EF94000E4
:1002D00040F020003072284600F020F940F0100075
:1002E0003072284600F023F90246282100F024F855
:1002F000284600F001F9400040F06000F072284606
:1003000000F02FF9C00040F080003070284600F067
:1003100031F98000DFF8501340F47C400880284613
:1003200000F012F90246082100F006F8DFF83C134D
:100330004FF48000086073BD204600F065BAF8B540
:10034000810C01F003010129C94CC84D02D00229DA
:100350002AD026E0216A8A0323D44FF480422A60FF
:100360006FF08F06C34AD2F8023033404E0A06F0CF
:1003700080063343C1F303363343C2F80230C1F37E
:100380000326D2F801301B0946EA0313C2F80130F4
:100390006FF0E7061368334001F0E701194311607D
:1003A00002E04FF000412960B34EB44AB16809073A
:1003B0005CBF4021A9624FF400712964800D216A5D
:1003C000C90C01F0030141F0300110F0030011707D
:1003D00003D0022826D008D326E00121042000F013
:1003E0003BFAA74800F0F4F822E0012000F056FAAA
:1003F00007463946042000F02FFA042000F04EFA98
:10040000B842FAD1366826F07F4000F0E1F89D4B03
:100410001B681B684FF060220721300E98474FF48D
:1004200080602860032100E00221042000F014FA1B
:100430002068954900F03F00087047F6180093497E
:10044000088093480068F1BD92490968C1F383624E
:100450008303C1F38F2120D4000400164FF6FF73ED
:1004600007E0490804D11946520804BF01220121BE
:10047000401C0028F5D401280FDB490041F00101A0
:10048000B1F5803F21BF0121520042F00102102A44
:1004900024BF0F221946401EEDE741EA0240704793
:1004A0007C48016800680002C1F3870100F44070D5
:1004B0000843704730B55D4C77490A686568ED07B9
:1004C000C2F30351C2F303430AD42468250501EBA8
:1004D0002571240481F3040103EB247383F30403E3
:1004E0001B0443EA015193B21943222824BF02F0AE
:1004F00080400143084630BD0021202803D36748CF
:100500000068C0F30151084670470121222803D337
:1005100063480068C0F30071084670470121222833
:1005200003D35F480068C0F340710846704700215C
:10053000202807D359480068C10C01F44071C0F36A
:1005400084500143084670472028564907D3534832
:10055000554A0068810A02EA003040EA81510846A3
:1005600070470021222803D34D480068C0F3C061C2
:10057000084670470021222803D349480068C0F389
:100580004551084670471628A8BF203870472348B1
:1005900000680028FBD14548454A4168126889082F
:1005A000890041F0005141F00401520748BF41F079
:1005B00001010BD4026812F0030F07D041F00302CF
:1005C0004260026802F00302032AFAD141607047D8
:1005D000384982B20A60C0F3074048600120886051
:1005E000354800680028FBD0002088607047000074
:1005F0001C130050840460425C600C4008220443D9
:1006000080012843000120438C210840000039016B
:100610004820034004000940FFFFFCFC0C00684236
:10062000101009409402224300600C40AC3F00507F
:1006300056620840BC12005002600840A001001041
:1006400094046042B81200506E62084000000940F5
:1006500094042A430000204300A00C407013005073
:10066000FFFFFC0041A10C40DCA10C4040A00C406D
:100670006C1300500A600840A83F005008A10C40CD
:10068000BD378600B40100100BB00C4070B00C40B8
:100690002C2009405013005078130050981300503C
:1006A0008C13005000803F4000F03F0000400340AA
:1006B000B03F00503C600C4084088C432B490A68D2
:1006C000C2F30F324BF69A139A424FF0FF3006D125
:1006D0000868000F0B280CBF0420002070474BF661
:1006E000BE118A4201D1012070474BF641318A4246
:1006F00001D1032070474BF620318A4208BF022007
:10070000704700001948F8B50068050F18480068E0
:1007100000F0FF06802E28BF0026FFF7CFFF042839
:100720004FF0FF3406F10A071DD8DFE800F003128E
:100730001A1A1B00012D12D0032D06D0072D06D04A
:10074000082D08BF06F116040DE014240BE0152453
:1007500009E025B1022D08BF06F1140403E00A24C4
:1007600001E005B93C4660B2F2BD0000181300502C
:10077000A010005080B5FFF7A1FF20B9FFF7C2FF1E
:10078000162800DB01BDFEE770B504460D4616468F
:1007900000F094F8401E8041C00F1A490A68002AF0
:1007A000FCD0012E02D0022E02D003E0257002E020
:1007B000258000E0256001220A6000281CBFBDE8FA
:1007C000704000F07FB870BD38B504460D4600F0AB
:1007D00075F8401E8041C00F0A490A68002AFCD003
:1007E000012D02D0022D02D003E0247802E02488FB
:1007F00000E0246801220A6008B100F063F8204696
:1008000032BD000000800C400B461146042218182F
:10081000BAE710B500EB4100102B144600F500704C
:1008200002D3103B001D240C0299994041EA044177
:10083000BDE810400422A7E738B51D460818102D62
:10084000144602D3103D801C240C0221FFF7BCFF8C
:10085000204080B2E84032BD70B50446E00782B067
:100860000D46154E05D5A8B200900023012200F0D8
:1008700011F8A00705D5A8B200900123022200F0CC
:1008800009F8600705D5ADB2009502230C2200F0EF
:1008900001F873BD00213046FFF7BBBF01460429B4
:1008A00007BF1D234FF0C0421C234FF08052024867
:1008B0003421FFF7C1BF000000A00C40EFF310800F
:1008C00072B67047EFF3108062B6704780B5084982
:1008D0000968496905E080B5054B1B689B69984725
:1008E00000E08847034A0021116002BD00000000BB
:1008F000A80100108404604280B51EF081FE00282B
:1009000001D0002001E05FF0FF3002BD80B51EF095
:10091000A9FE01BD70B504000D00160032002900CB
:1009200020001EF0A7FE002801D0002001E05FF0AB
:10093000FF3070BD70B504000D00160032002900B4
:1009400020001EF0C8FE002801D0002001E05FF06A
:10095000FF3070BD011D096851F00201021D1160D8
:10096000704710F1140212688A4310F114031A60E0
:10097000704710F120021160704701206349086040
:10098000704763480068400810F00100704738B5B0
:1009900004000D00002D10D021785FF080405D4AEA
:1009A00012685268904769465FF08040594A126861
:1009B000D26890476D1E641CECE7002032BD38B54C
:1009C00004000D00002D17D000215FF08040514A37
:1009D000126892689047002802D15FF0FF300CE067
:1009E00069465FF080404B4A1268D2689047009891
:1009F00020706D1E641CE5E7002032BD80B569469D
:100A00005FF08040434A1268126990470028F6D18F
:100A100001BD7CB504000D0006203F490968496905
:100A2000884706203C490968496B88470128F8D166
:100A30004FF4A06038490968C9698847FFF79DFFEE
:100A4000FFF79FFF0028FBD04FF480703249096800
:100A5000C9698847FFF791FFFFF793FF0028FBD094
:100A60000F215FF08040FFF77CFF03215FF08040A3
:100A7000FFF77FFF08200190009400230022274900
:100A80005FF08040234E36683668B04700955FF0CF
:100A9000FF33132212215FF08040214E3668766CBE
:100AA000B0475FF08040FFF755FF69465FF0804038
:100AB000184A1268126990470028F6D173BD80B5B4
:100AC0004FF4807014490968096A8847FFF755FF99
:100AD000FFF757FF0028FBD04FF4A0600E490968CC
:100AE000096A8847FFF749FFFFF74BFF0028FBD053
:100AF0000620094909688969884706200649096866
:100B0000496B88470228F8D101BD00002820086001
:100B100028200840C4010010B8010010006CDC025D
:100B2000B401001019E050F8041BCB0744BFA9F131
:100B300001035918121F0023042A41F8043BF9D27B
:100B40005FEA827C0B4604D54FF0000CA1F800C090
:100B50009B1CD10744BF0021197050F8042B002AB8
:100B6000E1D1704700002000C21500000000100015
:100B7000C214000000000800EF1200000000040092
:100B8000EF110000000000000000000010B5074950
:100B900079441831064C7C44163404E00A68081D78
:100BA000114488470146A142F8D110BD0800000059
:100BB0001400000071FFFFFF08000000000000208B
:100BC000000000000120C046002801D0FFF7DEFF32
:100BD0000020AFF300801EF0E7FB00F000F800F00B
:100BE00001B800000746384600F002F8FBE70000B5
:100BF00080B5AFF30080024A11001820ABBEFBE7BE
:100C00002600020080B5FFF75FFA00F006F800F05A
:100C100002F801BDFEE7FEE7FEE7AFF30080AFF3A9
:0C0C20000080FFF7CFFF000090FFFF00F6
:1010100028420020DD9D000089D1000089D1000018
:1010200089D1000089D1000089D1000089D1000058
:1010300089D1000089D1000089D1000089D1000048
:1010400089D1000089D1000057D700002DE9FE4367
:10105000AF4C0F460646F80B80F03581B80880F09B
:10106000C7806069B90F67D2A07A002848D13809D3
:1010700048D30025657001262672284605F025FE16
:10108000A4480DF0C7F9A4492A4604F14C000DF01C
:10109000A0FB607901281AD1A079C0B99F4E3068B1
:1010A00070B10CF009FF6169236A3268401A000BC5
:1010B000E061C018B0EBC21F28BF256208D22062D1
:1010C00004F1C8004FF000510CF030FE31E06671C1
:1010D00004F1380140F60900088094F8450000F05A
:1010E000F00040F0010084F84500658794F8440062
:1010F00000F0F00084F84400E563894E316018E0A8
:10110000380914D2B80BC0F0FB8004F128000DF0B0
:101110007FFB061C08D0706830B17568F068B6F9BE
:101120001C1082A20CCAA84727F40057E8E0002050
:10113000A07227F00807E3E0D8B104200CF044F9CE
:10114000B8B10CF0B9FEA0616169814226BF401AB6
:10115000401E401A000BF060F06840F6C41100F524
:101160008D708142F06003D340F2EE22824200D9BA
:10117000F1600025D6F818C06561BCF1000F0FD0F2
:1011800094F8450010F00F0F0AD1708C40F6090159
:10119000814205D167A20CCA30466FF48071E047E6
:1011A000604904F14C002A460DF013FBA07950B1C0
:1011B0000220ADF8000068460BF006FFA571BDF8EF
:1011C0000800A4F8A000012060702079A846401C07
:1011D0002071192084F807800DF028F8756925B171
:1011E00056A20CCA30464146A84727F0005787E070
:1011F00004F1300948460DF00BFB061C5AD009F0EB
:10120000BEFE4FF00008B269C6F818807068B8B129
:10121000F07F42F00202002300F00700401E07D0DA
:10122000401E03D0801E06D146A002E047A000E089
:1012300048A090E80C007568F068B6F91C10A84743
:101240000DF084F90546B4F93600401C6FF31F30E9
:10125000E086206B1F30017801F07F010170484665
:101260000CF050FC28460DF0B1FAF068B0F994107B
:10127000B4F9362091421DD1217801291AD090F875
:10128000965095B9056885B1E1680968B1F1FF3FED
:1012900010D0254909687030B5FBF1F10DF0DEFA88
:1012A000F06870300CF0C0FD04E080F89680404695
:1012B00007F0A0F848460DF0ABFA27F0020708B196
:1012C00047F002071CE00DF041F9014604F12C0043
:1012D0000DF09EFA0646B56908460DF077FAA808A3
:1012E0000CD25EB1B069A843B061706830B12A46D3
:1012F000F068B6F91C1075680023A84727F48047EA
:1013000027B104F1C80039460CF010FDBDE8FE839A
:10131000901400204975000001CD0000542D0020DC
:1013200000100440213300009CF300000000000086
:10133000200000000000000000000002000000008B
:101340000000000400000000000000100000000089
:101350000000004000000000000000202DE9FE43D6
:101360000646DFF8DC82DFF8DC92B2780024101C3D
:1013700000F03581801E00F00D81401E012840F2F2
:10138000E180801E00F0A880401E7BD0401E59D016
:10139000083800F04681801E40F046814546B088FE
:1013A00095F83E70ADF80000052F45D001208DF86E
:1013B0000A0005F1CC000DF02FFA95F83E00012847
:1013C0001BD0042819D0032806D0022804D0F288A4
:1013D00031897089B38907E0B5F84020B5F842102B
:1013E000B5F84400B5F84630ADF80220ADF8041069
:1013F000ADF80600ADF8083020E0B5F84000F188FF
:101400008842D8BF081CADF802003189B5F8420007
:101410008842D8BF081CADF804007189B5F84400B3
:101420008842D8BF081CADF80600B5F84630B08930
:101430008342D8BF031CDDE78DF80A4068460DF0F3
:1014400001F8F1E0454605F1F0000DF0E5F970789E
:10145000002840F0E980F088E8823089288370898C
:10146000688305F1CC000CF0B1FE002840F0DC8070
:10147000AB6A002B00F0D8801B68E88A298B6A8B46
:101480009847D1E0B0880BF063FB45462146062221
:1014900005F1380005F0E0FBEC822C836C83B07919
:1014A000687305F1CC000DF0B7F905F1F0000DF00F
:1014B000B3F901244FF6FF706F79A8824FB9B07964
:1014C000082814BF04200520A87020460CF092FBC9
:1014D000AAE00320A870A7E0707858BB311D0A6805
:1014E000454605F138000260898881800627AF7083
:1014F0007089A882F089E882308A2883708A68839C
:10150000F0784446287394F83E00012818BF02285A
:101510000AD11F2008F0F8FF4FF47A71024604F157
:10152000CC00514309F0C0FBF0787289311D09F0FD
:1015300013FB7BE0707831286FD14D460420287072
:10154000204623E07778002F67D14546698AA8783E
:10155000032A13D02A796F7921B9012A14BF6C713B
:101560002C7106E0174304D005F1A80009F09CFB9C
:10157000A878072814BF0420062007E0062807D013
:101580002879002808BF0324DAD00220A8704DE093
:101590000724D5E77078751C00283ED14246F778BD
:1015A0009078D1799FB9022816D0072814D0062840
:1015B00002D1517901290FD103280DD002F1A800E1
:1015C0000CF004FE40B901200CF014FB04E087325B
:1015D000204607F04FFD28702878F0B924E0707895
:1015E000D8B945460220102105F1480209F004FF50
:1015F0000320102105F1580209F0FEFEF61C05F14A
:101600002C00B7883168878005F1680201600120ED
:10161000A979A87007F02EFD40B108204D4628702A
:1016200004E0B0880CF002FF012C06D14546686A40
:1016300018B1016809B1A8788847BDE8FE83C046A3
:10164000580900205A090020F8B5A0F201351746C4
:101650000E46022D40F20C818649874C874A884B02
:101660002D1F0F2D04D9143D4AD0AD1E1CD011E002
:10167000DFE815F0BA00B500EB00DB00AE00A70014
:10168000FE009F00980010001000900086007A0075
:101690006F006200282880F2EB80022E40F0E88084
:1016A000398809F0BBFCF8BD012E40F0E1800A4604
:1016B0009078012800F0DC80D1783878D07081B93A
:1016C000002800F0D5801078012800F0A0800428C0
:1016D00000F09D80062800F09A80052800F0978091
:1016E000F8BD3878002840F0C3801078032800F057
:1016F0009980072800F09680052800F09380F8BDB7
:10170000012E40F0B5803878012840F0B1802546A0
:1017100005F1F0000CF05AFD002840F0A98004F11A
:101720003E01002005F0E4FC002840F0A18004F117
:10173000CC000DF071F8F8BD022E40F09980388889
:101740000A28C0F29580B0F5486F00F391801146E9
:1017500014E0022E40F08C803888B0F5FA7F80F2D9
:10176000878011460880F8BD022E40F081803888BD
:1017700006287DDBB0F5486F7ADC1946891CF1E755
:10178000022E75D13888062872DBB0F5486F6FDC01
:101790001946E7E7012E6BD13878062868DA11463A
:1017A000891F0CE0012E63D13878042860DA0931F2
:1017B00005E0012E5CD13878082859DA0831087024
:1017C000F8BD012E54D13878042851DAC91DF6E746
:1017D000012E4DD1387804284ADC891DEFE7022E0E
:1017E00046D138881031BDE7012E41D10A46D07864
:1017F00001283DD091783878907061B9002837D0B1
:101800001078012803D0042818BF052830D1012002
:101810000CF0F0F9F8BD387850BB1078022818BFEA
:10182000052825D10CF06AFCF8BD254600211F22B1
:1018300005F18704204605F00FFA39463246204666
:1018400004F0B8F90020EE710EE0254600211F22B9
:1018500005F16804204605F0FFF939463246204676
:1018600004F0A8F90120AE713146224607F002FCCF
:10187000F8BDC0465A090020580900209C090020E4
:10188000980900202DE9F04F0128ADF1140D40F02A
:10189000F280DFF81492D9F8DC00012840F0E980EA
:1018A0000220C9F8DC000CF001FD0290012008F0D4
:1018B000CDF820B101210646C9F8DC10D5E00CF0C6
:1018C000DDFC03906E484FF00008C0F80080012056
:1018D0000BF07AFD012818BFCDF8008004D14046F6
:1018E00007F000FA0120009066486E4CC0F80080B6
:1018F0001934D4F8FF0F11200CF0E0FD00280CBFC4
:101900004646012610200CF0D9FD08B146F002062B
:101910000F200CF0D3FD08B146F004060B200CF0AC
:10192000CDFD30B1584800685849006B0246088820
:1019300090470A200CF0C2FD0028404618BF012045
:101940004FF0805B0BF5DC7528B128685049006BBF
:101950000246088890474F48012707602868806939
:10196000014646F0200088474B4807600CF0A0FD78
:1019700000F001010191400815D248480CF0EEFC3E
:101980008246BAF1040FF8D0BAF1010F06D1DBF8A4
:10199000D801406802464148032190474049086801
:1019A00020F003000860404600F086F92868D4F86B
:1019B000FF1F806B8047019801280ED0BAF1010FFC
:1019C00006D1DBF8D80140680246344839469047D2
:1019D0003349086840F0030008602A480760286817
:1019E00040690146304688470B200CF067FD28B15E
:1019F00028682649C06A0246088890470A200CF0E9
:101A00005DFD28B128682249C06A024608889047CF
:101A1000204807600322C9F8DC201F4BC3F8008070
:101A20002868406B0146304688470128F8D10420D9
:101A300008F00CF8124807601A48D4F8FF1F016834
:101A40008909FCD30098012802D1384607F04AF9E9
:101A50000CF028FD082007F0F9FF06460398C9F8A6
:101A6000DC7009F04BFD06F083FB02980BF024F8C4
:101A700002E0042600E00126304605B0BDE8F08F04
:101A80000C40094000022243B80100109AEA00000D
:101A900096EA0000282008608001044300400340CB
:101AA0002422084014100940E41A00202DE9F04FC8
:101AB0000024ADF11C0D7F4D0690401E8DF80440B2
:101AC0003CD07B4E401E21D0801E012833D9801E81
:101AD00002D0801E25D0E5E030460CF077FB10B92F
:101AE00030460CF097FE28690A212246064609F086
:101AF0007FFB224630460F2109F07AFB2246304612
:101B0000152109F075FB05F0C9FECBE030460CF05D
:101B10005DFB10B930460CF07DFE20460CF03AF823
:101B2000C0E00AF051FF05F1100000680A2101220F
:101B300009F05EFBB6E00AF047FFB3E00F20052195
:101B400008F008F94FF441700DF1050101F0CAFAEF
:101B50009DF806708DF80E709DF809208DF81140E3
:101B60009DF805008DF810409DF807608DF8132052
:101B70009DF80A308DF80D0008218DF80F609DF852
:101B800008708DF814300DF10D0220468DF812709A
:101B900004F042FB4FF0300BDA46D84631265F4660
:101BA00000949DF8040000287CD1C4EBC40105F129
:101BB000EC00062240180DF105010BF063F9002836
:101BC00069D1204685F8784105F14402132840D8B0
:101BD000DFE800F03D3A3632302B29272522201D40
:101BE0001B161412100E0C0A39230AE0382308E0E1
:101BF000372306E0362304E0352302E0342300E0F7
:101C0000332330465072937223E056721AE05672B4
:101C100096721EE05B46F4E739235846F2E7382314
:101C2000FBE73723F9E7362000E0352082F809B0DA
:101C300090720EE0342000E0332082F809A0F7E72C
:101C400082F809803220F3E757723046F0E7577286
:101C5000977240F207301621FFF7F6FC95F87801ED
:101C6000203081B28946062009F0D8F9072049467C
:101C700009F0D4F90820494609F0D0F9092049466D
:101C800009F0CCF90120012101AA8DF8040040F2ED
:101C90000530FFF7D9FC0098641C401C1328009005
:101CA0007FF67FAF069807B02870BDE8F08FC0467A
:101CB00098050020200500202DE9F84F82467A483B
:101CC000DFF8D89135380068800880F0D8800AF0B5
:101CD00027FD054678480830D0F8008000244FEAF8
:101CE0002876761C5FEA98500AD2C5F13E0015F1BD
:101CF0000A0F4FEAE000D8BF08208642B8BF061C92
:101D0000634FD7F87C01C0F304600CF020FB8346DE
:101D10003868C0F304400CF01AFB06EB0B0200908D
:101D2000162A05DA12F10A0FB8BF6FF0090200E0B7
:101D30001522584B584F02F01F0141F4F8511980F9
:101D4000396811F0030F18BF0124C90828BF44F0F7
:101D50000204BAF1000F18BF44F00404494691F997
:101D60000730EB1A052B04DA8B79A34208BF888869
:101D700064D0DFF82CE10F2DA5F10F0C25DB0CEB67
:101D80000513A3F1F00C4FEA2C27072F88BF072774
:101D90003E46062E88BF06265EF82600042303EB87
:101DA00086037646F3581B1A03F0FF06E00824BFAB
:101DB000C3F307200644A00824BFC3F3074006442A
:101DC000600828BF06EB136601E0002637465EF880
:101DD00027E0E0080EF0FF0324BFCEF30720034402
:101DE000A00824BFCEF307400344600828BF03EBDC
:101DF0001E630098B6B2ACEB07277E43801A06F14B
:101E0000800603EB1623D8BF0120342208F0FF0719
:101E100042437A43B2FBF3F04FF6FF72824238BF7F
:101E2000101C802D80B2888005DA15F1800FB8BFB4
:101E30006FF07F0500E07F25CD718C71194A126823
:101E40001F280A604FF0000208D340F2FF118142C0
:101E500006D24008521C8142FBD301E01F2088803B
:101E6000124F11490F38000942EAC00247EA020046
:101E7000C1F8FB0F0026C1F8FF6FBDE8F88F0D4FCA
:101E80000B4E494608203760891D0870BDE8F88F61
:101E90003C1100506E62084024220840AC350020FE
:101EA0009C130050082009403500094000E7A48039
:101EB00030100940FDFDA400AC3F00502DE9F04179
:101EC0001C4615468C4208BF854282BF0023002273
:101ED000E5E0002C08BF002D0AD100290EBF002824
:101EE0006FF000006FF0000100F0E1F8BDE8F08154
:101EF0005FF000085FF0000E002C08BF8D429CBF11
:101F00002C1C0025070C47EA01470E0CB44208BF01
:101F1000BD429EBF5FEA044444EA15445FEA0545BA
:101F2000070A47EA01670E0AB44208BFBD429EBFD6
:101F30005FEA042444EA15645FEA0525470847EA96
:101F4000C1774E08B44208BFBD4200F293808708B3
:101F500047EA81778E08B44208BFBD427CD8C708E3
:101F600047EA4177CE08B44208BFBD4266D80709A8
:101F700047EA01770E09B44208BFBD4250D847096D
:101F800047EAC1674E09B44208BFBD423AD8870943
:101F900047EA81678E09B44208BFBD4224D8C70909
:101FA00047EA4167CE09B44208BFBD420DD8E601F9
:101FB00046EA5566EF01B14208BFB84201D3C01BE3
:101FC000B14158EB08085EEB0E0EA60146EA956695
:101FD0004FEA8517B14208BFB84201D3C01BB141D7
:101FE00058EB08084EEB0E0E660146EAD5666F0107
:101FF000B14208BFB84201D3C01BB14158EB080839
:102000004EEB0E0E260146EA15762F01B14208BFAF
:10201000B84201D3C01BB14158EB08085EEB0E0E6D
:10202000E60046EA5576EF00B14208BFB84201D358
:10203000C01BB14158EB08084EEB0E0EA60046EA55
:102040009576AF00B14208BFB84201D3C01BB14181
:1020500058EB08084EEB0E0E660046EAD5766F0088
:10206000B14208BFB84201D3C01BB14158EB0808C8
:102070005EEB0E0EA14208BFA84201D3401BA14156
:1020800058EB08085EEB0E0EA34208BFAA423EBF03
:102090002D0A45EA0465240A89D3734642461E4642
:1020A00017460B46024631463846BDE8F081704778
:1020B0002DE9F041ADF1200D06F06CFD744C04F1FA
:1020C0002C0004F15C0103F0C3FD724E2061314627
:1020D0000CF03AFB0AF084FA04F138000CF05AF9DB
:1020E00004254FF47A7200236B49606104F1780093
:1020F000009507F07FFA1F20012108F08FFF4FF4B1
:102100004870ADF80C0000278DF80470A846ADF8B3
:10211000067008258DF808800121ADF80A5001AA43
:10212000ADF80E706420ADF8100040F20530FFF7F6
:102130008BFA40F2063002210DF10602FFF784FA15
:102140004FF442700321A21DFFF77EFA40F20730E0
:10215000162104F14402FFF777FA4FF4447001218D
:1021600002AAFFF771FA40F2113002210DF10A02C2
:10217000FFF76AFA40F21230022103AAFFF764FA6D
:1021800040F2133002210DF10E02FFF75DFA4FF419
:102190004570022104AAFFF757FA0CF059F90620FE
:1021A000A02108F03BFF0720A02108F037FF2846B8
:1021B000A02108F033FF0920A02108F02FFF059788
:1021C00003218DF8197001208DF81A1005468DF83D
:1021D000180005AA8DF81B5041464FF4816008F0A5
:1021E000E9FE4FF48060294606AA08F0E3FE40F2BB
:1021F000024029460DF1190208F0DCFE40F20340CE
:1022000029460DF11A0208F0D5FE40F20640294693
:102210000DF11B0208F0CEFE0CF087FA0CF0EEFA7E
:102220000BF022FE07F0C0F909F0F4FF04F0C6FD40
:10223000A0707F2814BF0A200F20052107F08AFD17
:1022400002F082FF30B900F085FD18B9A07800F0E7
:10225000BF00A0700AF07CFB09F0F2FF09F0C4FF98
:1022600006F0C2FC07F07AF90AF04AFB0AF00CFF0C
:102270000BF0A4FF0AF058FB0BF0ACFA09F0A4FD38
:10228000206931460CF060FA08B0BDE8F081C04624
:102290002005002065DB00007DDB00002DE9F84310
:1022A00081460CF0F9F8002100B901216B4E30682D
:1022B0000028FCD06C4D01242D1DEF6A346009B15B
:1022C0000CF0F0F8DFF89881C7F3072008F1BC01A3
:1022D00008600CF0E1F8002100B9214630680028C0
:1022E000FCD02F68346009B10CF0DCF8C7F38440EF
:1022F000C8F8C0000CF0D0F80146002001B9204613
:10230000014630680028FCD0ED69346009B10CF05A
:10231000C9F8C5F38120C8F8D000B9F5C061C8F884
:10232000B81000F0968098F8D80068B9C8F8D410B2
:10233000D8F8C000C8F8C800D8F8BC70C8F8C47095
:10234000D8F8D060C8F8CC60D8F8D410D8F8BC6001
:10235000002954BF02206FF00100454605F1C80373
:102360001A6801EB41014018411000EB917002EB3B
:10237000A0021A60D5F8C810C5F8C46000291CDD99
:102380001E293DDDD5F8CC0030B93429B4BF15394C
:102390001E21C5F8C81025E02A29BABFD5F8C80003
:1023A0000B381E20C5F8C800D5F8C4003F28B4BFBC
:1023B000401C3F20C5F8C4001FE0D5F8CC0003281E
:1023C00012D011F10B0FC6BFD5F8C8000B30201C7E
:1023D000C5F8C800D5F8C4000028CCBF401E0020B6
:1023E000C5F8C400032009E011F1150FC6BFD5F8E8
:1023F000C8001530201CC5F8C8000020C5F8CC0066
:10240000B5F8C400174E30214FF47F4208230090E6
:10241000304607F08BFA009404214FF40032112368
:10242000304607F083FAB5F8C80004214FF4F802EB
:1024300012230090304607F079FAB5F8CC0020213D
:102440004FF440620A230090304607F06FFABDE86F
:10245000F883002088F8D800BDE8F88300800C409D
:10246000E41A002000A00C4000A00C402DE9F04F21
:10247000ADF1840D00F0C6FE07F034FA0026012805
:1024800004D10BF08BFA022808BF012658490868CE
:10249000C0F38150012806D151F80C0C0127010E20
:1024A00007FA01F00643534800780AF099FB524DB1
:1024B0002C46286038B1FF2204F1400107467F1EF8
:1024C00001F8012BFBD14D4909684FF0000901F0DB
:1024D000FF02FE2A1BD0DFF824C101F0FF074A46A5
:1024E0000123FF2F0CD0B8427FD903FA07F73E42F1
:1024F0007BD101F0FF0147EA0909611881F840200A
:102500005CF8041F521C01F0FF07FE2FE9D10920DF
:1025100001F00CFE3948002124220823606001A844
:102520000CF04AF84FF0010804F1240001AA8DF8DC
:102530001C80414609F0D4FA236843B30027943540
:102540004FF0040BBA4608FA07F0064219D119EA0F
:10255000000F04BF07F0FF0141F4C04105D0E019AE
:10256000264990F8400051F82010254802F092FDCD
:10257000F8B24FF0FF310AF051FF2368C5F800A010
:1025800001E0C5F800B07F1C2D1D9F42DBD30AA8D7
:102590000021302208230BF0D3FF0025FF2010215B
:1025A0000AAB1290174A009504F1080008F07CFA73
:1025B00016A82822082329460CF004F804F160002C
:1025C00016AA1C9510491D952B4608F069FC0F4969
:1025D00051F80D0C20F4F85040F4005041F80D0C67
:1025E0004746C1F8FF7F0A4E376021B0BDE8F08F43
:1025F000B43F0050B9350020103100205CE90000E4
:10260000007FC76739D40000899C00000D30094065
:10261000080009402DE9F843674C04F124000CF050
:10262000F7F815460E4600900BF090FF05F00107F5
:102630008146B6F1FF3F0CD1A06A20B9B4F936004B
:10264000401C06B202E0A06AB0F91C60002084F8C9
:10265000A300304609F036FE0326002800F09B80D8
:10266000A16ADFF84081814269D0009FB8422ED034
:102670003FB100990A68904209D009680029009189
:10268000F7D1832E41D048460CF0A0F83DE004F18C
:10269000A4000AF0B9FD00980168AA0802D20A68ED
:1026A00002600846002202600091009818B948466E
:1026B0000CF08CF828E0C17F41F00401C177684636
:1026C0000BF020FA0146404608F0C6FDEDE704F1A4
:1026D000A4000AF099FDA8083ABF606A00680020CB
:1026E000606248460CF072F80099C87F40F0040020
:1026F000C87768460BF006FA0146404608F0ACFD84
:10270000009808B1A808EFD28326E07988B9207A2A
:10271000012843D024480BF07DFE022104F1C800BB
:102720000BF004FB6078012838D020480BF072FED3
:1027300034E004F1C80002210BF0F8FA2EE0A908F9
:1027400003D3616A009100266662C27F0121B9400D
:102750001143C1770BF092FD0446002F14BF1448BB
:1027600014480AF031FC48460CF030F8A80801D3B0
:10277000009820B9204608F0C1FE83260EE0C17FF4
:1027800041F00401C17768460BF0BCF901464046B0
:1027900008F062FDECE748460CF018F83046BDE85A
:1027A000F883C046C01400204D100000F54500001D
:1027B0000100020401000104901400202DE9FC41F5
:1027C0005E4C574D574EDFF860815A4F94F8E41035
:1027D000481E0B2861D8DFE800F07B2C430623431A
:1027E000062343067664042907D001220A2945F806
:1027F000212C14BF0220032004E02021012045F8F1
:10280000211C024684F8E200002045F8390C082714
:10281000C5F8FF7FC5F8F37F45F8392CBDE8FC818A
:10282000052914BF09200620002584F8E40035603E
:1028300070E094F8E1700120383D002FC5F81B00CE
:1028400004BF0620002102D00021F160032084F89B
:10285000E400032045F8010C31603068800859D24B
:1028600094F8E400012503280DD0002140466022A1
:102870000523009107F05AF894F8E400062814BFE5
:102880000A200720D1E702200090002160220523C2
:10289000404607F04BF80420C7E70BF0F7FFBDE810
:1028A000FC812249002622480E60012505600E2089
:1028B00001F0D2FB022008F093FF84F8E45084F882
:1028C000E360BDE8FC81002038600C2578601FE0E3
:1028D0001948006800680146202088472C3D41F6D1
:1028E0001D560F2000214FF4C072072345F8010C3C
:1028F0004046C5F803600225009507F017F84046EA
:1029000000214FF4C072072307F03EFC012038601D
:1029100084F8E45004F178000BF086FABDE8FC81FD
:1029200039400C4038600C4000A00C402C500C404A
:1029300004800C4034600C40A0010010E41A002018
:102940002DE9F84F9A4693460E4681460BF0FEFD60
:10295000514C0090B4F93610B4F934000AAF401A63
:1029600040F6F8710140082980F28780B4F93400FC
:10297000401C6FF31F30A086B4F934800AF0C4FB0A
:10298000054609F170000AF03FFCAE6085F81EB004
:10299000C5F804A0A5F81C80C5F80C9097E80C00B9
:1029A00041A003C8002605F110071040194087E830
:1029B000030004F12400EE770768002F50D1294668
:1029C00008F04AFC002851D0A9F89480E87F40F034
:1029D0008000E87789F89660607A40B1607830B11D
:1029E0000120A07266722779A671781C2071009868
:1029F0000BF0ECFEA06A00284BD1607860BBE07958
:102A0000012846D00BF0A2FD0646207A00BBA8683C
:102A100006F03CFE224B2149E2681B68086040B981
:102A200030460BF0D3FE04F1C80004210BF07EF910
:102A30002FE00968D26804F1A400891AB1FBF3F110
:102A40000BF00CFF04F1A4000BF0EEF930461EE091
:102A5000144901200870F9E719200BF0E7FB18E092
:102A600004F12400294608F0F7FB48B9B4F9340012
:102A700000F6FF706FF31F30A0866FF0010805E0CD
:102A8000A9F89480E87F40F08000E87700980BF088
:102A90009DFE4046BDE8F88F90140020542D002084
:102AA0009CF30000B8350020F1EFFF9F20000000EC
:102AB000B0B5456884684F48297BADF1180D0129F0
:102AC00016D0217E627E4C4B2F7E0143009143EA5B
:102AD00002010191494937F0010718BF081CA27E85
:102AE0001043029095F88D000322FF2811D00DE0CD
:102AF000677E217E3843A37E019041F00041009122
:102B000043F000403E49029095F88D0001430422B5
:102B10000391FE204DF82200694605F1900003F074
:102B200097F8C5F89C00002808BF00205FD0287BDC
:102B3000344951F8200001282BD02068B0F1804F93
:102B400014BF22220A22217ED5F89C0009F0C8FA7F
:102B50002068B0F1804F14BF21220922617ED5F890
:102B60009C0009F0BDFA2068B0F1804F14BF242208
:102B70000C22A17ED5F89C0009F0B2FA95F88D10D0
:102B8000FF2933D02068B0F1804F14BF23220B22DD
:102B900028E02068B0F1804F14BF21220922217E55
:102BA000D5F89C0009F09CFA2068B0F1804F14BF62
:102BB00022220A22617ED5F89C0009F091FA206851
:102BC000B0F1804F14BF24220C22A17ED5F89C00C6
:102BD00009F086FA2068B0F1804F14BF23220B223F
:102BE00095F88D10D5F89C0009F07AFA012006B00E
:102BF000B0BDC046000480A0004000800004C0A01A
:102C000000200080E0E900002DE9F04305466E68F1
:102C1000AC680F46ADF1340D0BF098FC96F8D91066
:102C2000241D012903D10BF0D1FD002084E04FF0D9
:102C3000010986F8D9900BF0C9FD4FF00008C6F8DD
:102C400088803869306178697061387E3076387B89
:102C5000307338783070786886F8A480706078694E
:102C60004146092828BF494686F88C10207A01F091
:102C70005DFA284605F032FEE07D86F88D00284694
:102C8000FFF716FF50B9207A01F0E6F90BF05EFC71
:102C900086F8D9800BF09AFD45464CE001A84146E4
:102CA000302208230BF04CFC06956078CDF80080AC
:102CB000234A0990217801AB06F11C0007F0F4FECD
:102CC00001A84146282208230BF07CFC05951D49EC
:102CD000606801AA4346079006F1380008F0E0F862
:102CE000307878B901A84146242208230BF064FC0F
:102CF0008DF81C9006F16C00414601AA08F0F0FE28
:102D0000114800E0B868B06005F018FBC6F8A000F4
:102D1000307B012808D1D6F89C000C490BF014FD3B
:102D2000D6F89C0000B18560094A06F1C400042170
:102D30002B4609F031FD28460DB0BDE8F083C046B2
:102D4000015800002F8F0000C3E60000E9A6000034
:102D500029E500002DE9F84F07F0B6F95FEA000811
:102D600000F08A80464E002435680094B8F1000FC8
:102D70004ED0C4F30C00002700B90127DFF808A1EA
:102D8000B9460AF1100A48B928460F21012208F075
:102D90002FFA284600220A2108F02AFA04F580209A
:102DA00005F05CF90025B8F1000F1FD02919504635
:102DB0004FF4807202F0FEFE28194FF480715246E3
:102DC00000F5802004F0CEF95FEA00080AD0D3466F
:102DD0004FF480771BF8011B009808F0A9FD7F1EB7
:102DE0000090F7D105F58075280BDCD03068B9F17B
:102DF000000F054608D00F21002208F0F9F92846F7
:102E000001220A2108F0F4F904F58054600CADD0D9
:102E1000B8F1010F04D04FF4F42005F01FF929E0B8
:102E200028460A21002208F0E3F90098002108F062
:102E30007FFD002108F07CFD04464FF4F42005F0EE
:102E40000DF9104A0027978197804FF6FF70508048
:102E500014804FF40046D6800425957346231372E0
:102E6000537293721021D372FF274FF4F420D7735B
:102E700004F078F908F00CFC4046BDE8F88FC04635
:102E80003005002020320020203200202DE9F041C2
:102E9000424C474D8046C8F38140401E02D0401E40
:102EA0002AD025E0284620300168880C20D24FF433
:102EB000804020603A48D0F802204B0AC1F3033723
:102EC00003F0800322F08F02134347EA0302C0F8A5
:102ED0000220D0F801300E1266F30303C0F801306F
:102EE000026801F0E70722F0E70247EA020102E088
:102EF0004FF00041204601602A4E06F108000068AC
:102F0000C0F3C0070FB94020A0624FF400702064E6
:102F10000BF024F940F0300084F8C800C8F3815069
:102F200038B3401E03D0401E1ED002211DE00120F8
:102F30000AF04AFA07460420394606F0E9FA042066
:102F40000AF042FA8742FAD1366826F07F4008F04C
:102F500017FC15480068036807214FF06022300E07
:102F600098474FF4806020600321042006F0D0FAD7
:102F700006E00420012106F0CBFA0C4808F000FC22
:102F8000284600680B4947F6180700F03F0084F810
:102F9000CB0F094E0F803068BDE8F08140A00C4097
:102FA0000A600840A83F0050B4010010BD378600F9
:102FB0006C13005070B00C402C2009402DE9F043F8
:102FC0000646880FADF1140D7FD305F0E5F9434DAA
:102FD0004FF000081C35C5F800803D4845F81C0C32
:102FE000012003F072FE3B480BF014FA3C484346C4
:102FF00040F60A0200F13801438790F84440C0F8D7
:103000003C8090F845700A8004F0F00480F8444059
:1030100007F0F00444F00104B76880F845408146A9
:103020007B803C1D00E03C1D276817B13888824238
:10303000F9D12160607A00F0F000607209F124009B
:103040000BF0E6FB80680088D21F82421DD0521C24
:1030500082421AD006F120000788B7B196F82C20DA
:1030600096F82D70C6F8248002F0F00286F82C2025
:1030700007F0F00242F0010286F82D20C9F83C006A
:10308000487B738400F0F0004873B068694609F02B
:10309000ABFF68460BF05AF8B06804F09CF828685B
:1030A0000028FCD0C5F8008001200AF08DF9012825
:1030B00008D0607A00F0F00040F00100607206482D
:1030C0000BF0A8F9B06845F81C0C05B0BDE8F0831A
:1030D00001010E044D100000398D00000010044065
:1030E000901400202DE9F04F0C464549CA7AADF105
:1030F0002C0D84460592487B09900D7900958A7ABB
:10310000488B4B8A0E7B91F805A091F802800492BF
:10311000B1F846E008904A7A088B0392CD78079080
:103120000A7AC88A02920F6A0690CA79888A01923E
:103130008A79E146A9F54079B9F11D0F10D8DFE889
:1031400009F05B5553514F4D4B494643413F3C3A83
:10315000380F34312E2B2923201E1C0F1918171657
:10316000BCF1280F49DA604607F0CEF921E0099E4C
:10317000B246D046CDF814801DE008980790079815
:103180000690DDF818E005E038310868206088888E
:10319000A08032E070460AE0B1F8440009E0B1F8DE
:1031A000420004E0B1F8400001E091F83E0003461F
:1031B00012E0208021E0059804900498039001E03B
:1031C0003231E2E7039802900298009006E0019AFB
:1031D00087310DE068310BE01846EAE7009D0BE00F
:1031E0002C31D2E7276008E0583100E04831102246
:1031F000204602F0DFFC00E025700BB0BDE8F08F48
:10320000580900202DE9F041444C94F8E700ADF155
:10321000280D00286FD1394F387B01250021242249
:1032200084F8E7507E6884F8E6000823C4F80C614F
:1032300001A80BF0A9F9002604F10C00069601ABD9
:10324000ADF814602E490796324608F023F92D494F
:1032500004F1300001AB324608F01CF92A4904F1B0
:10326000540001AB324608F015F9B868014628460B
:103270008847DFF89C8025487B7B0078D8F80410CD
:10328000C1F381571BB1032F03D184F8E150032F01
:1032900016D0022F14D0012F26D103201D4C0090F0
:1032A00031464FF040521C23204606F03FFB00956C
:1032B00031464FF400720923204606F037FB13E035
:1032C000022008F0A5FA032F0CBF4FF47A7142F2E6
:1032D0001071114800685434B1FBF0F120460BF036
:1032E000BDFA20460AF0A0FDD8F80000C00802D2BE
:1032F000304608F08DFA0AB0BDE8F081F0F2000027
:10330000FF7C000089610000596B0000B935002086
:10331000B03F005000A00C409CF30000E41A0020D5
:10332000F8B50AF053FB404E3E4F0446A00823D3A5
:10333000B96A09B33D4600200B698A69A86204EAAC
:103340000300104340F0020006F1080288610B6997
:1033500010689843106001F1100090E80C0030688C
:103360001A1C9043306005F1300007F075FF022110
:1033700005F1C8000AF0DAFCB86AA10815D200F11C
:1033800010020CCA002122400B40002B08BF002A6B
:103390000BD0016985690C40F8622C434FF48041E1
:1033A000846107F1C8000AF0C1FCB86A002837D16F
:1033B00007F1240420460BF02BFA051C30D0F868E6
:1033C000E968884226D1A86806F060F917490860C4
:1033D000E0B906F1080128690A68104308603268FC
:1033E00005F1100393E80300081C1043306000232C
:1033F0003361A86846F80C0C06F11000006800283C
:10340000FAD020460AF07EFBBD62F8BD086804F0E1
:10341000F1FFF8BD07F1C8004FF480510AF086FCB7
:10342000F8BDC046901400200C100440542D00201C
:103430002DE9F04104466768A5680E46ADF1380DE8
:103440000BF084F897F8DC102D1D012903D10BF047
:10345000BDF900205EE04FF0010887F8DC800BF03A
:10346000B5F9F168204604F04BFC0028F1D1307822
:10347000387070687860307A002130220823F86054
:1034800001A80BF05DF80694287A00260990234ADB
:103490000096696801AB07F1100007F005FB01A871
:1034A0002822082331460BF08DF805941C49E86862
:1034B00001AA3346079007F12C0007F0F1FC01A8A0
:1034C0002422082331460BF077F88DF81C8007F191
:1034D0006000414601AA08F003FB387838B907F1CB
:1034E0007C00314601AA08F0FBFA0E487860C7F864
:1034F000BC603E72C7F8C060286800F017FE204626
:1035000006F0CCF9084A07F1C8000421234609F067
:1035100043F920460EB0BDE8F081C0469D3E000054
:10352000EB8A0000B3E60000DDE100003EB50AF0E2
:1035300013FD3B4C30B90620641C20700AF0CAFF12
:1035400000203EBD002501206821657003F07CFE4F
:103550002220694601228DF80000372008F018FE6D
:1035600008B9052060700AF0B5FF6078002818BF20
:10357000281C54D101200C2103F066FE022069466C
:1035800001220AF000FF00283CD09DF8000040080E
:1035900036D303200DF1010107220AF0F4FE68B3CF
:1035A0009DF80700000927D29DF802109DF8010040
:1035B000B4F908501B4B9DF8042040EA012000B2EA
:1035C00068439DF803500112A3F11400B4F90A30C6
:1035D000018445EA02219DF806509DF8052009B2B4
:1035E00059430912B4F90C30418442EA052109B269
:1035F00059430912818407E0032004E0042002E01B
:10360000022000E00120607011208DF80000694662
:1036100001220A2008F0BCFD0AF05CFF60783EBD84
:103620005C240020482300202DE9F047ADF1180D5F
:1036300001F0ECFE3A4D4FF0030908274FF6FF78F2
:10364000002605F13E0A2C4609F0B0FE20BB00968C
:1036500001A80DF106016A4608F0FFFAE0B9BDF8CD
:103660000400102814D160789DF8061088420FD10C
:1036700000980188884509D14088C00B08D30420F0
:1036800005F12002014607F0B7FE01E006F024F83C
:10369000009808B10AF046F9208A41082DD320F09D
:1036A000010063792179208253EA010225D073B9A0
:1036B000207A637A8DF8070005F132018DF8083021
:1036C0000A680DF109031A608988998001E08DF874
:1036D0000790A07A8DF80F00E37A8DF810300DF185
:1036E00007000AF09DFE38B1636AA77023B11A681B
:1036F00012B1196838468847208A810807D320F01C
:10370000020020825146304603F0F2FC208AC108B4
:103710009AD320F00400208207F01AFB94E7C046F9
:10372000580900202DE9F84F00298346009106DD55
:10373000024600980021401E42F8041BFBD100986D
:10374000DFF8C880DFF8CC900028C8F800B012DDA0
:103750002F48009C0768002537F8020B38B1D9F8CC
:103760000000AE003158002088474BF80600641E68
:1037700005F10105F0D1284F41460120D7F800801E
:10378000C880B8F1000F22DD4FF0000A0098012731
:10379000002817DDABF104050446002655F8040F98
:1037A000B0F1FF3F04D0D9F8001071588847286065
:1037B0000021B0F1FF3F08BF0121361D641E01EA60
:1037C0000707EBD137B90AF1010AC245DEDB04A0D5
:1037D00009F058FF0D4900200860BDE8F88FC04689
:1037E0007864632E72756E74696D652E53746172A0
:1037F0007475703A20276D61785061737365732713
:1038000020657863656564656400C046C81A002059
:10381000ECF30000F0F30000E8F30000F8B5154603
:1038200003784278384CC67842EA03228378120142
:1038300042EA231C0279238842EA06224079B4F93D
:103840000A60120142EA2012C3EB2210D210A2EB4E
:103850004302B4F90230404353430213B4F9040065
:103860005043801300EBE32000EB80028032121201
:103870000A60A11DB4F908404010A0F57A408210FA
:103880005243531373434443641004EBE3044FF473
:10389000004303EBA4430C885C43E71332D0B1F937
:1038A0000830B1F90A40D612584304FB06F2174B10
:1038B000B1F9066040F6354402EB4002300404FBE7
:1038C0001C3300EBA200021304FB1230C20F19BF1D
:1038D000B0FBF7F040004000B0FBF7F0B1F910305A
:1038E000B1F90E70B1F90C60C20884085243520B52
:1038F0005A4307FB04F35B1303EB2233F11800EB8D
:1039000021102860F8BDC04670350020000050C36B
:103910002DE9F041384E307800286AD0374C2089A4
:1039200010F07F0F00F07F0861D007F0DBF8344F14
:1039300021783D78A0700DB9022930D12279C309D0
:1039400013D240081CD307F077F906F027FFE07880
:10395000E188002808BF217812D0002542F21070BB
:10396000E57090FBF1F0217809E0521CD0B20228FA
:10397000207105D1E08842F21072B2FBF0F0E060F5
:10398000002502293D700AD12089C00907D3FFF71D
:10399000CDFD052821D008B104F074FC2178E7683A
:1039A00017B901291AD122E0022909D0022020707A
:1039B0000027277103F092FD10B1404607F09AFCF2
:1039C0002089000A02D3E068401EE06004F114027E
:1039D0000020122104F0D2FE09E0E56000202071F1
:1039E0000127277003F07AFD08B100F0C7FA002024
:1039F0003070BDE8F081C046BD3500203423002082
:103A0000BB3500202DE9F04706467468B5680AF01A
:103A10009DFDD4F88810002963D00AF0D7FE2968EC
:103A2000486820F0020048602968486A20F00300D6
:103A30004862D4F8A0706869296908437968096800
:103A4000C1F804052968486920F001004861286828
:103A50004FF00108C0F82080304608F0D9FED4F8B5
:103A60008800D0F804900AF071FD04F1D80782466E
:103A7000387850B119F0704F02D1042007F0B0FE31
:103A8000022007F0ADFE0020387050460AF09EFE7E
:103A9000D4F88810087C042803D003200874D4F8D4
:103AA00088102A696869D4F8A0304746104307FA9D
:103AB00000F258680068C2622868B0F1804F14BFF5
:103AC0000A480B480F68006800258204A7EB925053
:103AD000401E08603046A268C4F888509047BDE890
:103AE000F0870AF073FEBDE8F087C04608050020A5
:103AF000380400202DE9F0430646ADF11C0D0AF014
:103B000073FD07F00DFE4FF000090546CDF800905B
:103B10000AF010FD30F0010002D00098A84202D156
:103B20006FF0040059E070684C4658B1B0F1FF3FA7
:103B300005D001A907F0DCFD30B107464CE04FF09D
:103B4000FF3000E02046019009F04EFB019901276B
:103B500001EB000800E001936868019900F01AFC8D
:103B600000282ED003A807F08DFAD8B99DF81000D0
:103B700002A907F06DFA88B9B368BDF808009DF88E
:103B80001210059A984748B19DF81270B773BDF8A6
:103B90000800B081059B33614F4612E005996846E5
:103BA00008F01AFA0198641CB0F1FF3FD4D0002845
:103BB000D2D009F019FBB8EB000302D0019898426B
:103BC000C9D2009905F1080008F0F6FC24B1686834
:103BD00004F032F8641EFAD1384607B0BDE8F0832D
:103BE000F0B5ADF1340DFFF70DFB30490868282220
:103BF000082340F00200086001A800210AF0E2FC5E
:103C00002B4E2C490524002301AA079406F1C80075
:103C100007F046F900213022082301A80AF090FCA1
:103C20000025FF271921244AADF81C5001AB099744
:103C300006F14C00009506F037FF2822082301A862
:103C400029460AF0BFFC1D4901AA2B4606F1FC00DB
:103C5000079407F025F93022082301A829460AF025
:103C60006FFC01241A21164AADF81C4001AB0997DC
:103C700006F16800009506F017FF12492A4606F182
:103C8000A400134607F006FC0F480AF0C3FBB4710A
:103C900086F8A3507571F57135727572B5724FF66D
:103CA000FF7075610DB0A6F8A000F0BD00200940BE
:103CB000901400209DDC000001CD00001D4C000090
:103CC0008D8D000019CA0000F54500002DE9FE4F5A
:103CD0000CAF3D8883460E4608469846144601A917
:103CE00008F074FB012808BF01205ED0BDF8040075
:103CF000DFF8BCA042F6021100274FF0FF09401A7E
:103D000040D048F2FF21401A2BD0401E13D0401E55
:103D100036D1002D32D1B8F1020F2DD120780628EE
:103D20001DDAF068218801802248F168884231D18B
:103D30004FF0020931E00DBBB8F1060F1CDA207814
:103D400010280CDCF0682146424601F033FFF16890
:103D50005046001D88421DD14FF001091DE080270B
:103D600018E05DB9B8F1100F06DCF0682146424654
:103D700001F020FFB94610E00D270BE00B2709E00A
:103D80000A2707E00095584643463146224605F08B
:103D90003BFD0746B9F1FF0F06D05046006818B149
:103DA000016809B1484688473846BDE8FE8FC046DD
:103DB0000C200020082000207CB50446084603F0B3
:103DC000D1FC344E02461821304608F05DF909F066
:103DD00017FB40F2FF32002380B22C2100903046C6
:103DE00005F0A4FD0AF0C2F91C210246304608F095
:103DF0004BF909F0F7FA02461421304608F044F96D
:103E000009F008FE02461021304608F03DF9204630
:103E100003F0F8FA02460C21304608F035F9204646
:103E200009F0E0FD1C4D400040F0200028702046C5
:103E300009F0E4FD40F010002870204609F0E4F895
:103E400002462821304608F01FF9204609F0EEFD11
:103E5000400040F06000E870204609F0F3FDC0002B
:103E600040F0800005F8080C204609F0F7FD8000BE
:103E700040F47C40A5F89300204608F01BF9024668
:103E80000821304608F000F94FF48000A5F209112E
:103E900008607CBD00A00C4049A10C4098B5354994
:103EA000446809688068496800688847324A012187
:103EB000916140B1237AFF2B05D0FF214009217287
:103EC00053D2042149E0207A00284ED0401E17D05A
:103ED000401E02D0FD3848D044E05368D4F8B40006
:103EE0000370D4F8B400401CC4F8B400D4F8B8701F
:103EF0007F1EC4F8B8701CD0012F88BF09212CE0A8
:103F0000D4F8B0707F1EC4F8B07014D1D4F8B87073
:103F10007FB10220D4F8A8102072097C012F4FEA4B
:103F2000410141F0010142F8041C94BF03210B211F
:103F300014E004210FE0D4F8AC0000785060D4F80D
:103F4000AC00022F00F10100C4F8AC0005D2D4F897
:103F5000B87017B9052100202072022011600AF004
:103F6000EDFB98BDFF20207298BD04F12C0006F0F7
:103F700023F898BDAC010010042800403348F8B580
:103F8000057809F0E9FF00284FD00120682103F0EF
:103F90005BF9002859D02E4C0920211D0122087000
:103FA0000F466B2008F0F4F800283ED0072020715F
:103FB000394601226C2008F0EBF8002835D00126A4
:103FC0001D2039462671324608F0E2F800282CD030
:103FD0004020207139463246382008F0D9F820B305
:103FE000C020207139463246692008F0D1F8E0B18E
:103FF00025711F203946324608F0CAF8A8B10620BC
:104000002071394632461E2008F0C2F868B12920D6
:104010002071394632466B2008F0BAF828B1E11C0D
:104020001C20324608F0B4F810B90AF053FAF8BD73
:104030003A20394632460AF0A6F90AF04BFA002037
:1040400020700449606907F0B3FBF8BD35230020F8
:104050005C240020070006802DE9F84304460AF09E
:1040600075FA81462D48021992F8ED10491ECFB21B
:10407000002F82F8ED704BD12B4D05EB84052E7887
:10408000698836F07F0788461AD1F10911D24FF0BE
:104090008054D4F8B801806901464046884704F549
:1040A000DC742068406B0146404688470228F8D1FE
:1040B00021E000EB8800D0F80011002088471AE0CA
:1040C0004FF08054D4F8B801006A01464046884752
:1040D000D4F8B801806A014640468847D4F8B80150
:1040E000006B01464046884701210D4A0D4811608A
:1040F00001688908FCD306F03F003F2801D0FFF794
:10410000ABFF687800F03F003F2801D0FFF7A4FF25
:1041100048460AF05BFBBDE8F883C046E41A00207D
:1041200028200860282008406CEA00002DE9F041B2
:1041300006460AF00BFA2D4D8046A91991F8ED00BC
:10414000421C002881F8ED204AD1294C04EB86045A
:10415000277807F03F003F2801D0FFF7E7FF60789E
:1041600000F03F003F2801D0FFF7E0FF668837F0FE
:104170007F001AD1F80911D24FF08054D4F8B80159
:10418000406901463046884704F5DC742068406B7E
:104190000146304688470128F8D121E005EB860525
:1041A000D5F80011012088471AE04FF08054D4F868
:1041B000B801C069014630468847D4F8B801406A62
:1041C000014630468847D4F8B801C06A01463046F7
:1041D00088470121074A0848116001688908FCD313
:1041E00040460AF0F3FABDE8F081C046E41A002028
:1041F0006CEA000028200860282008402DE9F84FCC
:104200000D46064628687468D6F80880002855D000
:104210000AF09CF9D4F8881021B10AF0D7FA0320EB
:1042200028744BE001272F74C4F888500AF0CEFAA6
:1042300094F8A40038B194F88D202249D4F89C0059
:10424000114307F0B5FAD5F804A00AF07FF904F19C
:10425000D80999F80030834653B91AF0704F02D14B
:10426000042007F0D5FA022007F0D2FA89F800708E
:1042700058460AF0ABFAD8F80010486840F002003F
:1042800048603046294600F051F9D8F800104869D6
:1042900040F001004861207830B9616804F16C0594
:1042A000284600F077F810B13846BDE8F88F304660
:1042B000FFF7A8FB2846002100F06CF80020BDE8BD
:1042C000F88FC04600000680294A2DE9F04180465B
:1042D0000126284816600768002FFCD0294C2A4F79
:1042E000C020443C206007F1080001682348890889
:1042F00004D20168090C41F0F00100E072211E4D6A
:1043000085F85412002111638768384602F0DEFCFC
:1043100040463946FFF750FD1C48B038816D40F2E9
:104320000F226FF31F418A4212D901680068C1F35E
:104330000363C0F3034003B15B1E072805D00628C2
:104340000EBF0720801C00F00F0043EA0010287009
:104350003846FEF79BFD0E4814380068C1680220FD
:10436000884740202060064F3E60BDE8F081C0468F
:10437000101009409402224302600840AC3F0050F4
:104380009404604244600C40A83F00506C130050FD
:10439000B40100102DE9F0410D460646B5F1FF3F8E
:1043A000ADF1380D09D045B12B496B4605A82A4619
:1043B00008F06EFB05A9022001E000210320039113
:1043C000264F8DF8100038682024EFF31188371835
:1043D00084F31188708980BB002D04BF88F3118895
:1043E000002036D009F062FF06460AF0FDF8029080
:1043F000C0F818D007F09CF8384669460AF0D6F89D
:104400009DF810000025022802D1039803F0E2FA7B
:1044100088F31188304608F04FFBEFF3118384F3E3
:104420001188039810B10AF015FA03950298856176
:1044300083F311889DF810000BE07089401E708195
:10444000039818B10AF006FA0020039088F3118847
:1044500001200EB0BDE8F08175C30000A8F3000094
:104460002DE9F04115460446A869A060686A98469F
:104470000E4608B92A4800686062286A002806BF0C
:1044800028480768071C0AF06DF8EB69A3B90028F3
:1044900008BF391C03D03F1841427F1E39400246F5
:1044A000E161606AE169434603F0F0F82062206A46
:1044B000B8B90120BDE8F081002804BF2362391C8F
:1044C0000BD01B1841425B1E01EA030020623F1A19
:1044D000E869C019E061E0690140E1614FF0FF3037
:1044E0006062A6622869E06268692063A86A606306
:1044F000A88DA087A08F012803D10B49C868401C54
:10450000C8602046414602F02BFA0346404609F0B7
:1045100031FC002814BFD81C0020BDE8F081C04643
:10452000BCF30000C0F3000018240020F8B58C464E
:1045300045688468DCF8007095F88C10B8B2884043
:104540001FFA80FE2068B0F1804F14BF244B254B2A
:10455000DCF80820244832B995F88C108E00815977
:1045600005F1A60207E095F88C108E00811951F82C
:10457000081C7244521E99605A6021683A0143F641
:10458000F077103A0831174019609A683A439A60F8
:104590002368B3F1804F14BF144A154ADCF804C0F5
:1045A000BCF1000F04BF805904F10E0605D080193C
:1045B00050F8100C0EEB0C06761E906016605160E1
:1045C0009068074397602169D5F8A0606069084347
:1045D000716809688862586A40F003005862F8BD43
:1045E0000005002030040020F8E90000100500203C
:1045F00040040020042998B54DD1274C04F1240033
:104600000AF006F940B994F8A300400838BFE06802
:1046100004D3D4F8880000E0C068E06041681F4A15
:1046200009781160416812680978914206D087695B
:1046300027B120A20CCA6FF0FF01B847022007F093
:10464000E7F81120FFF772FD0120E071E068011D1D
:10465000007C10B16079012804D00E20FFF766FDC0
:10466000E168091D08680E49083007680FB94768F6
:104670001FB10020C8610B4F0F600B4A40F2FF7062
:1046800000271060094C8F6109484C6109F0C2FE97
:10469000192005F06FFC98BD90140020D02108402F
:1046A00000100440510007060000046002000040B2
:1046B000BD2F000000000000000000021EF0040FEB
:1046C00014BFEFF3098169468869EFF3118102B4E1
:1046D00000B5DFF89CE0F047284A116801EA0000C5
:1046E00010605DF804EB1EF0080F03D101BC80F3ED
:1046F0001188704704BC1EF0040F14BFEFF309814A
:104700006946A1F1200114BF81F309888D464A60F2
:104710004FF08070C8611A488861184B18680860AB
:1047200040F201101860704702B401B4EFF3148135
:1047300000291CBF002282F3148802B402B4DFF8FF
:1047400034E0F04701BC01BC00281CBF022181F30A
:10475000148801BCDFF820E0F04704484FF0805196
:10476000016001BC80F3118800BF00BF04ED00E0D0
:10477000358E000013E70000C7E70000B0240020DA
:10478000294700002DE9F8430646B0680D4600F1C0
:10479000080874686868002710B9E868002850D0D5
:1047A0002078012814D109F0D1FED4F8BC1049B109
:1047B000D4F8C0108D61C4F8C0500AF007F8012089
:1047C000BDE8F883C4F8BC50C4F8C05009F0FEFF3F
:1047D000022007F01DF804F160004FF0FF31814620
:1047E000FFF7D8FDD8F8000005F0A2FB30462946B7
:1047F00001F03AFC0546D8F8000005F0BBFB207834
:1048000088B9B5F1FF3F08D004F17C004FF0FF31CB
:10481000FFF7C0FD207A48B110E00320207202208B
:1048200006F0DEFF0AE0B5F1FF3F01D0012705E009
:104830000320207204F12C0005F0BEFB484603F073
:10484000FBF93846BDE8F8832DE9FE4F0CAF3C88F4
:1048500081460D4608469846164601A907F0B6FD62
:10486000012808BF01204DD0BDF80400DFF898A052
:1048700042F6021100274FF0FF0B401A2ED048F2EB
:104880003F11401A32D0401E14D0801E24D10CBBE0
:10489000B8F1010F1CD130780A2809DBE9680870EB
:1048A000E9685646701C884220D14FF0020B20E088
:1048B00080271BE074B9B8F1010F09D13078E9689D
:1048C0000870E96856468E4210D14FF0010B10E097
:1048D0000D270BE00B2709E00A2707E00094484664
:1048E00043462946324604F08FFF0746BBF1FF0FCF
:1048F00007D05046001D006818B1016809B158463C
:1049000088473846BDE8FE8F481E00202DE9FE4F3F
:104910000CAF3C8881460D4608469846164601A9CC
:1049200007F054FD012808BF01204DD0BDF8040058
:10493000DFF898A042F6021100274FF0FF0B401A53
:104940002ED048F21F11401A32D0401E14D0401E03
:1049500024D10CBBB8F1010F1CD130780A2809DB37
:10496000E9680870E9685646701C884220D14FF00B
:10497000020B20E080271BE074B9B8F1010F09D1C8
:104980003078E9680870E96856468E4210D14FF0D9
:10499000010B10E00D270BE00B2709E00A2707E0C9
:1049A0000094484643462946324604F02DFF074608
:1049B000BBF1FF0F07D05046001D006818B1016819
:1049C00009B1584688473846BDE8FE8FE01E0020F2
:1049D0002DE9FE4F0CAF3C8881460D4608469846AF
:1049E000164601A907F0F2FC012808BF01204DD0AE
:1049F000BDF80400DFF898A042F6021100274FF03E
:104A0000FF0B401A2ED048F2FF01401A32D0401E50
:104A100014D0401E24D10CBBB8F1010F1CD130784A
:104A20001E2809DBE9680870E9685646701C884250
:104A300020D14FF0020B20E080271BE074B9B8F1C1
:104A4000010F09D13078E9680870E96856468E424E
:104A500010D14FF0010B10E00D270BE00B2709E000
:104A60000A2707E00094484643462946324604F0A8
:104A7000CBFE0746BBF1FF0F07D05046001D006874
:104A800018B1016809B1584688473846BDE8FE8F1D
:104A9000741F00202DE9FE4F0CAF3D8881460E4665
:104AA00008469846144601A907F090FC012808BF63
:104AB00001204DD0BDF80400DFF898A042F60211A5
:104AC00000274FF0FF0B401A2ED048F27F11401AFA
:104AD00032D0401E13D0401E24D10DBBB8F1010FBF
:104AE0001CD120780A2808DBF1680870F168554667
:104AF0008D4221D14FF0020B21E080271CE07DB9CF
:104B0000B8F1020F0AD1F06821880180F16855469A
:104B1000681C884210D14FF0010B10E00D270BE00C
:104B20000B2709E00A2707E000954846434631462F
:104B3000224604F069FE0746BBF1FF0F07D050463E
:104B4000001D006818B1016809B158468847384609
:104B5000BDE8FE8F041D00202DE9FE4F0CAF3C8800
:104B600081460D4608469846164601A907F02EFCD8
:104B7000012808BF01204DD0BDF80400DFF898A03F
:104B800042F6021100274FF0FF0B401A2ED048F2D8
:104B90006F11401A32D0401E14D0401E24D10CBBDD
:104BA000B8F1010F1CD130780A2809DBE9680870D8
:104BB000E9685646701C884220D14FF0020B20E075
:104BC00080271BE074B9B8F1010F09D13078E9688A
:104BD0000870E96856468E4210D14FF0010B10E084
:104BE0000D270BE00B2709E00A2707E00094484651
:104BF00043462946324604F007FE0746BBF1FF0F45
:104C000007D05046001D006818B1016809B1584628
:104C100088473846BDE8FE8F9C200020F8B509F093
:104C200095FC2A4C0746103CD4F89C0010F4602FE9
:104C30002BD0D4F89C00400CC5B2680807D2A80855
:104C400003D2E80828BF022502E0012500E0002584
:104C50006E1D70B204F0C4F8D4F89C3005F1110157
:104C60000120884023EA00013846C4F89C1009F06E
:104C7000ADFD04EB8500D0F88C704FB1D4F88800FE
:104C800013A20CCA3146B84702E0384609F09EFD2F
:104C9000D4F89C0020B104F1FC00002109F046F892
:104CA00094F8A30080080FD3D4F8987037B1D4F8E3
:104CB000880009A20CCA6FF00101B84794F8A3005C
:104CC00000F0FD0084F8A300F8BDC046A014002049
:104CD000000000000000000800000000000000804C
:104CE0002DE9F0412D4C0546A41C20781F46904626
:104CF0000E46ADF1380D012803D0FEF771FF0120FB
:104D000020705EB1B8F1000F6E6007D0C5F8088062
:104D100009F01CFC617819B109F058FD002038E059
:104D2000491CC9B2617009F051FD01241FB96846E0
:104D300009F0F4F86F46386828607868E860387AD7
:104D40002874F8686861386900B1A8610021782288
:104D500005F1200001F080FF05A80021242208238E
:104D600009F02AFC8DF82C4005F13800002105AA35
:104D700006F0B6FE05A800212422082309F004FC51
:104D800005490B9505F17000002205AB06F082FB8A
:104D900028460EB0BDE8F08161E7000090140020C5
:104DA0001CB52D4C401E02D0401E44D01CBD09F045
:104DB000A9FB400931D32089FF2831D00120694661
:104DC00006F0C6FCBDF8000010F07F0F18D0BDF84B
:104DD00000002081022003F083F809F0BDF8A8B19B
:104DE0001E48006841F28831B1FBF0F002F09CFAF5
:104DF00005F0F2FCBDF8001041EA0020208105E03A
:104E0000BDF800002081002003F06AF804F10802D8
:104E10000120022103F0B2FC07E0FF2008342080CB
:104E20000120FF21022208F07FF900201222014612
:104E300008F07AF91CBD02200DF1020106F088FC91
:104E40009DF802002346410001EBC001D98003F127
:104E5000280003F0F3FE1CBD342300209CF3000067
:104E60002DE9FC470AAF3F8882460C460846994622
:104E7000154601A907F0AAFA012808BF01204AD067
:104E8000BDF80400DFF8948042F60211FF26401AB4
:104E90002ED048F26311401A012827D827BBB9F158
:104EA000010F1FD1BDF804104AF666200027884282
:104EB00002D12978032913DA2978E2681170BDF844
:104EC0000410884205D0E1684046884218D13E4629
:104ED00018E0E1684046401C884211D1012611E0EB
:104EE00080270DE00D270BE00B2709E00A2707E0DC
:104EF000009750464B4621462A4604F085FC07465B
:104F0000FF2E07D04046001D006818B1016809B1A6
:104F1000304688473846BDE8FC87C04688220020D6
:104F2000F8B509F0B9FA09F0C3FA044604F00C0028
:104F30000C2845D0E0081ED207F0F0F9234E376860
:104F400005460120014608F0BDF9316869438842F1
:104F500011D21F4C8220B0FBF7F0291A204609F02D
:104F60007DFC204608F060FF0120FCF78BFC20460A
:104F700008F04AF925E0200922D21648610939BF14
:104F8000016821F00101016841F001010246016060
:104F9000D2F898004FF0805440F00300C2F8980017
:104FA000D4F8B8018069014620208847D4F8B801B8
:104FB000094C806B2168804701202060206800E058
:104FC00030BF09F06FFA02F001FCF8BD9CF300005D
:104FD000F01A00208C2108402C2009402DE9FF47C1
:104FE00007F026FB2A4C4FF0FF3104F10C0000F0D3
:104FF000A7FC2448244D066824484FF47A77B5FB73
:10500000F6F8B0FBF6F938E0012007F029FC40463D
:1050100002F08AF902A805F085FB8246002007F01D
:105020001FFCBAF1000F1CD002A801A96A46FEF7C6
:10503000F5FB9DF805308DF809309DF804208DF8BA
:1050400008209DF806008DF80A009DF802108DF8E2
:105050000D109DF801308DF80C309DF800208DF872
:105060000B200020062102AA02F0CAFF60887843C4
:10507000401BB0FBF6F002F057F960780128C3D06E
:105080004846F8E79CF300008038010040420F00DA
:10509000740C0020F8B50D46EEB2290824BF26494D
:1050A0004D40264BB400195985EA01020240C2F373
:1050B000006C234A00EA05078143FF323A4000F4BE
:1050C000E0270A43B7F5E02F01D1510E15D300F4C4
:1050D000E0215CEA010710D002F4E027B7F5A02731
:1050E00007D0B7F5803704BF22F4003242F4A02283
:1050F00003E022F4803242F4C0221A51114CC10D57
:1051000004D3A4F18001C5F380528A55000E11D357
:1051100009F01CFA290E03D201210022B14002E05D
:105120000121B1400A46503423688B431A43226060
:1051300009F04CFBF8BDC046006000A0001008401C
:10514000007F077F802002407FB504F0BDFF041C74
:1051500046D04FF4802010216A4603F03AFF041C29
:1051600038D00098204E410F01D0864200D2002452
:105170001E4901981F4D814204D829465639814263
:1051800002D226E0000B24D124B3194810216A462C
:1051900003F01FFF041C1DD00098410F01D0864270
:1051A00000D200240198010B13D02946814210D36C
:1051B00084B103F06DFD104D064610214FF4F4202C
:1051C0002A4603F006FF28880024B04208BF0124C5
:1051D00004E000244FF4F42002F040FF06F058FAF7
:1051E000204600907FBDC0460050002001F0010025
:1051F00010100400FFFF01002032002070B5294C80
:10520000294D012806D028BB21460020491C08F062
:105210003FFE1FE02146012008F03AFE08780228F0
:1052200011D0491C002005F095FF28680A210022B2
:10523000064605F0DDFF002230460F2105F0D8FFBD
:1052400007F036FB06E009F05DF94870491C0020C4
:1052500005F080FF21460878012822D1286861786E
:105260000546490834BF002201220A2105F0C0FF8B
:105270006078800834BF0022012228460F2105F003
:10528000B7FF6078C00802D207F012FB04E028469E
:1052900005F0DEFA05F0FAFA6078000901D302F0B1
:1052A00031FB70BDAC26002030050020B0B5294C84
:1052B0006078410809D320F0010060700A2001469F
:1052C00004F048FD05F020F86078234D810807D3ED
:1052D00020F002002F786070062F01D103F02AFB26
:1052E0002078A178884232D007F07EFAA77820781B
:1052F000790803D341083CBF0021A180B90803D33A
:1053000081083CBF0021E1802978022903D108F0FF
:1053100041FCA7782078B90808D3810806D22978FB
:10532000062903D003F006FBA778207810F0030FBE
:105330000DD067B904F10800054608F047FF28B909
:10534000284609F067FA0020E080A0802078A0704D
:10535000B0BDC046B4250020200500202DE9F04155
:105360000E46294990461C4606AF8C46726808785E
:10537000BB8851783F881278002502EB012242F663
:105380002321521A29D0521E052A18D9921F0CD057
:10539000263A34D1072F30D8C7F10700984298BF7A
:1053A00083B2674407F1080121E0B84225DBC01B46
:1053B0009842D8BF83B22380DCF804000BE0F06889
:1053C00008F01AFE80B2B84217DBC01B9842D8BF63
:1053D00083B22380F06839180AE0082F0DD8C7F18E
:1053E0000800984298BF83B207EB0C010F3123806D
:1053F00040461A4600F0DEFB03E0072501E0258069
:105400000A252846BDE8F081CC1600202DE9FC478E
:1054100007F022F9284C0025A5704FF6FF70A082F6
:1054200005F0B2FC234F2A4620700120394613466E
:10543000009004F1A80004F0DDF84FF002082A46BD
:1054400004F1CC003946CDF80080134604F0D2F8C0
:1054500004262A4604F1F00039460096134604F06B
:10546000C9F804F14809102248462946E67001F0BF
:10547000F3FB04F1580A10225046294601F0ECFBD8
:1054800004F120073D602572072065721021A0728B
:105490004A46E572404605F095FF0320102152462A
:1054A00005F090FF30463A46014605F08BFFBDE817
:1054B000FC87C046F5DB00005809002038B50446DB
:1054C0004A78284D087800EB0220ADF800006A8881
:1054D000BDF8000090423AD1BDF80000891C0001DF
:1054E00008F0FEFC6888AB88401C81B269808B4262
:1054F00029D103F05FFEE0B12046002102F060FCFC
:1055000007F0DAFB29780843287006F029FA08F03A
:1055100055F990B12878410805D3AB69214603209D
:1055200000229847287810F0060F06D008F036FEC3
:1055300003E02046012102F043FC00242C7008F017
:1055400099FA6C8038BD204602F06EFE38BD00200E
:105550006880287008F08EFA2046032102F030FCA3
:1055600038BDC046A4180020FEB5FCF7A1FD274CAD
:10557000002504F1780607F00BFF00282FD10095D5
:1055800001A80DF106016A4606F050FBD0B9BDF83E
:105590000400102807D160789DF80610884202D1D7
:1055A000009808F0A9FF009860B108F097F909E0A9
:1055B000606908F0A9F8071C04D007F083FF38469B
:1055C00008F050F9606908F00FFF0028F0D0FFF7ED
:1055D0006DFE07F04DFBFEF79BF908F0D1FCA088AB
:1055E000C1080FD320F004002778A080022F09D132
:1055F000304609F00FF92078022803D10F2001214D
:1056000004F0A8FB04F0A0FEB5E7C046200500208A
:105610002DE9F84F804608781C4616460AAF022846
:1056200031D02348DFF88C90D1F804B0856910227E
:1056300082464946584607F025FC002740B9002D10
:1056400033D08AF80140012041463246A8472CE079
:1056500009F110015846102207F014FC10B925B3C7
:105660000220F1E709F120015846102207F00AFC58
:1056700090B9012C05D13078002818BF8AF80A00AB
:1056800013D1802711E048684278007842F602156D
:1056900000EB0220854201D00A2706E03888324616
:1056A0000090404604F0B0F807463846BDE8F88F51
:1056B000A41800202CEA0000264838B550380468A9
:1056C000B4F1FF3F08BF002408F000FC224817494E
:1056D000002510380560012008601549086003F0B6
:1056E00019FD1448006820B1134800682046FEF7F1
:1056F000EBFD124812490560124C0A686FF35B42D9
:1057000044EA0200086010490868C0F3013001282B
:1057100006D10A680D48104040F400320A60086063
:105720000B4908680028FCD138BDC0465C600C40BD
:105730000822044380012843000120438C210840B3
:10574000482003400000390104000940FFFFFCFC31
:105750000C0068426C130050940460422DE9FE4F27
:105760000CAF3D8881468B4608469846144601A9F1
:1057700006F02CFE012808BF01203DD0BDF8040032
:10578000DFF878A042F602110026FF27401A21D048
:105790004AF2C031401A0BD0401E19D1B5B9B8F148
:1057A000010F11D12078DBF80C10022708701BE0E4
:1057B00065B9B8F1080F07D12168656850460E3009
:1057C0000160012745600FE00D260BE00B2609E084
:1057D0000A2607E00095484643465946224604F00B
:1057E00013F80646FF2F06D05046006818B101682E
:1057F00009B1384688473046BDE8FE8FAC1D002011
:10580000B0B501468B681C68E2694868226252089C
:1058100024D2D0F8A01049680A685D69D2F804154E
:10582000294206D01C68616A21F002016162C2F857
:105830000455D2F8042519690A4230D01A68516A11
:1058400021F001015162D0F8A02052681969126854
:105850003830C2F8041504F0AFFBB0BD1C686269B3
:1058600022F001026261D0F88870AFB9626822F05C
:10587000020262601C68626A22F003026262D0F86F
:10588000A0005A6940681C6900682243C0F80425DA
:10589000084606F0BDFFB0BD0846FEF7B3F8B0BD40
:1058A000F0B520480127F84201D003F03BFF204D1E
:1058B000204F214EBD4206D203CD0478A4003459B6
:1058C000401CA047F6E71D48002800D08047164D31
:1058D000164FBD4202D210CDA047FAE7F0BD032516
:1058E0001BE0416808300A1C2A400BD11A1C2A40D0
:1058F000AB4305D0046804300C600431043BF9D19B
:10590000131C05D0047801300C700131013BF9D132
:10591000021C2A4001D0A84304300368002BE0D1C8
:105920007047C046FFFFFFFF0000000000000000BE
:10593000580001008800010020000100A59200002D
:105940002DE9F0470F46064608F0B0FCEFF3118949
:105950008246202080F31188D6F80880474533D04E
:105960001D481E4B0468002F05D49C690125BD40CD
:1059700004EBC70401E0E4180025307D01281AD1AA
:10598000304608F038FD306C08F02EFD18B1F16893
:105990005868884358601869864204D020463146CA
:1059A00008F004FE04E020685C61314608F05CFF0A
:1059B000586828435860B760F5603464002F44BFCE
:1059C000002058610120188189F31188504607F0A2
:1059D00073F84046BDE8F087B0F3000018240020BB
:1059E0002DE9FF41244D8046681C00780E460828AA
:1059F00014BF04240024084604F0E6FB684601F0C6
:105A000019FFA4190026E178A0786E8000EB012030
:105A10002E7080106946A880204602F0D7FB18B38C
:105A2000204608F0A2FCE861000BE88008F02EF8A0
:105A3000A8B1E888A988C4B200EB2120C7B2A74268
:105A400008DB3F1B7F1C204608F07BFE641CE4B291
:105A50007F1EF8D14046314602F0E6FB08E04046A2
:105A6000022102F0ADF903E04046694601F06AF90F
:105A70000090BDE8FF81C046A4180020B0B5244CBA
:105A80002278E1889308084603D3491C401CE18032
:105A900080B2A18852080F4603D3491C7F1CA18005
:105AA000BFB2062F11DB06280FDB04F10800054604
:105AB00008F08CFB58B3284608F0AEFE0020A0800A
:105AC000E080607840F001001CE003280BDA3843E6
:105AD0001DD104F10800044608F078FBB8B1204657
:105AE00008F09AFEB0BD97B904F10800054608F029
:105AF0006DFB60B1284608F08FFE0020E0806078E2
:105B000040F0020060700348006802F095F8B0BDF4
:105B1000B42500202C05002010B50020442101F000
:105B200093FB002808BF002440D0214C1F200222F4
:105B3000214608F028FC002835D021880806000CF2
:105B400040EA2120782815D110202080214602200B
:105B5000024606F01DFB30B302202146024608F043
:105B600012FC00B321880806000C40EA2120B0F5A1
:105B7000805F01D0208016E0002020802146022096
:105B8000024606F005FB70B102202146024608F0ED
:105B9000FAFB40B121880806000C50EA2120208041
:105BA00008BF012400D0002408F094FC204610BD5A
:105BB000A4350020002A4AD05FEA000C8B071CD1D4
:105BC000830722D1102A08D370B4103A78C978C05C
:105BD000103AFBD270BC103238D0042A2CD3082AD9
:105BE00005D30C2A24BF08C908C008C908C008C9C1
:105BF00008C092072AD0920F22E00B780370491C4C
:105C0000401C521E22D08B07F7D1C30714D1830743
:105C1000D8D0121F12D308C903801B0C4380001D6B
:105C2000121FF8D20AE008C903701B0A43701B0A4E
:105C300083701B0AC370001D121FF4D2121D05D001
:105C40000B780370491C401C521EF9D16046704706
:105C50002DE9F843224D884606464FF0FF3105F105
:105C600024008146FEF796FB00200CE0FF2909D0B6
:105C70002A688A4204D905EB8101D1F894700FB1EA
:105C8000002627E0401CB8F1000F03D018F82010C0
:105C9000FE29EBD10024346074600127B46011E068
:105CA000FF280ED005EB80000B787268C0F8946076
:105CB00007FA03F0104370600A680A49304606F09C
:105CC00025FA641CB8F1000F04D008EB84010878B1
:105CD000FE28E5D1484601F0AFFF3046BDE8F88325
:105CE00010310020007FC7672DE9F8432020EFF333
:105CF000118780F31188214CA068012108F0A2FDD2
:105D00004FF001094FF0000865692168A4F81C9064
:105D10006A1A2168A4F81E80461B401A904227D3B5
:105D200087F3118840464519361A4846294601F03E
:105D300081F8B042F7D92021EFF3118781F3118860
:105D4000E18B012903D14046294601F073F8B0F1F7
:105D5000FF3F06D0A169801B814238BF081C411952
:105D600001E0A069291807F01DFCA4F82090256027
:105D7000A4F81C8087F31188BDE8F8830C26002066
:105D80001CB50020772101F05FFA002808BF00242D
:105D90003FD0D0206946012208F0F5FA002835D01E
:105DA0009DF80000582831D1F5206946012208F0FD
:105DB000EAFA00282AD09DF8000038BB55208DF85B
:105DC000000069460122F42006F0E2F9F0B1F42067
:105DD0006946012208F0D7FAC0B19DF800005528A5
:105DE00014D1B6208DF8000069460122E02006F0AB
:105DF000CFF958B1F4206946012208F0C4FA28B15D
:105E00009DF80000002808BF012400D0002408F0FD
:105E100061FB20461CBD70472DE9FE4F8046B8F15E
:105E2000000F01920C9802919B46009005D0081C2F
:105E300003D0101C01D0009810B90220BDE8FE8FDD
:105E40001948017800252C4629E0A00038F800A068
:105E50004FF6FF7708EB000657451CD0B778D7B14F
:105E60000198029A594608F00CF95FEA000912D02D
:105E7000780806D3009B504601214A4601F09AFB60
:105E80000543B078800806D33088009B02214A463B
:105E900001F090FB054304480178641CE4B2A14280
:105EA000D3DC2846BDE8FE8F58090020F8B50F4620
:105EB00001464C688E683846203804F10C0432D014
