:1000000000370020050C0000150C0000170C000044
:10001000190C0000190C0000190C00000000000071
:10002000000000000000000000000000190C0000AB
:10003000190C000000000000190C0000190C000051
:10004000190C0000190C0000190C0000190C00001C
:10005000190C0000190C0000190C0000190C00000C
:10006000190C0000190C0000190C0000190C0000FC
:10007000190C0000190C0000190C0000190C0000EC
:10008000190C0000190C0000190C0000190C0000DC
:10009000190C0000190C0000190C0000190C0000CC
:1000A000190C0000190C0000190C0000190C0000BC
:1000B000190C0000190C0000190C0000190C0000AC
:1000C000190C0000190C000010B5DFF824050468B5
:1000D00014F1010F08BF002400F04CFBDFF81415E9
:1000E000002008600120DFF810150860DFF80C150B
:1000F000086000F04CFADFF80805006828B1DFF866
:1001000004050068204600F022F8DFF8FC14DFF850
:10011000FC2400200860DFF8F80401686FF31B413D
:1001200011430160DFF8EC040168C1F301310129DA
:1001300007D10168DFF8E024114041F40032026089
:100140000160DFF8D80400680028FAD110BD70B54E
:100150000546DFF8CC0401210160DFF8C814096806
:100160000029FAD0DFF8C044DFF8C024C0212160A4
:100170005368DFF8BC149B075DBF13681B0C43F08A
:10018000F00372230B70002101639668304600F083
:1001900031F83146284600F061F8DFF89804816DA7
:1001A00089B240F20F22914214D201680068C1F373
:1001B0000361C0F3034001B1491E072805D006289A
:1001C0000EBF0720801C00F00F0041EA0010DFF88E
:1001D00068140870304600F0B2F8DFF8601409685F
:1001E000C96802208847402020600120DFF85014B1
:1001F000086070BD10B50446DFF848040068C0F31D
:10020000046000F0C0F92117491C08181628A8BF7F
:10021000152004DA6FF009018842B8BF084600F0E3
:100220001F00DFF8241440F4F8500880DFF81C04A5
:10023000006880074FBF44F040640020DFF81014CE
:100240000860DFF81004C4F3C06181F001010160AF
:10025000C4F3806181F00101816010BD70B5054675
:1002600082B0084600F0F0F80246DFF8EC431821AF
:1002700000F062F800F014F980B20090002340F220
:10028000FF322C21204600F0C4FADFF8D063F0687A
:10029000C0F30D021C2100F04FF8706800F0FC3232
:1002A000142100F049F83068DFF8B413DFF8B463C4
:1002B00001EA0002102100F03FF8284600F0FAF8A9
:1002C00002460C2100F038F8284600F01EF94000E4
:1002D00040F020003072284600F020F940F0100075
:1002E0003072284600F023F90246282100F024F855
:1002F000284600F001F9400040F06000F072284606
:1003000000F02FF9C00040F080003070284600F067
:1003100031F98000DFF8501340F47C400880284613
:1003200000F012F90246082100F006F8DFF83C134D
:100330004FF48000086073BD204600F065BAF8B540
:10034000810C01F003010129C94CC84D02D00229DA
:100350002AD026E0216A8A0323D44FF480422A60FF
:100360006FF08F06C34AD2F8023033404E0A06F0CF
:1003700080063343C1F303363343C2F80230C1F37E
:100380000326D2F801301B0946EA0313C2F80130F4
:100390006FF0E7061368334001F0E701194311607D
:1003A00002E04FF000412960B34EB44AB16809073A
:1003B0005CBF4021A9624FF400712964800D216A5D
:1003C000C90C01F0030141F0300110F0030011707D
:1003D00003D0022826D008D326E00121042000F013
:1003E0003BFAA74800F0F4F822E0012000F056FAAA
:1003F00007463946042000F02FFA042000F04EFA98
:10040000B842FAD1366826F07F4000F0E1F89D4B03
:100410001B681B684FF060220721300E98474FF48D
:1004200080602860032100E00221042000F014FA1B
:100430002068954900F03F00087047F6180093497E
:10044000088093480068F1BD92490968C1F383624E
:100450008303C1F38F2120D4000400164FF6FF73ED
:1004600007E0490804D11946520804BF01220121BE
:10047000401C0028F5D401280FDB490041F00101A0
:10048000B1F5803F21BF0121520042F00102102A44
:1004900024BF0F221946401EEDE741EA0240704793
:1004A0007C48016800680002C1F3870100F44070D5
:1004B0000843704730B55D4C77490A686568ED07B9
:1004C000C2F30351C2F303430AD42468250501EBA8
:1004D0002571240481F3040103EB247383F30403E3
:1004E0001B0443EA015193B21943222824BF02F0AE
:1004F00080400143084630BD0021202803D36748CF
:100500000068C0F30151084670470121222803D337
:1005100063480068C0F30071084670470121222833
:1005200003D35F480068C0F340710846704700215C
:10053000202807D359480068C10C01F44071C0F36A
:1005400084500143084670472028564907D3534832
:10055000554A0068810A02EA003040EA81510846A3
:1005600070470021222803D34D480068C0F3C061C2
:10057000084670470021222803D349480068C0F389
:100580004551084670471628A8BF203870472348B1
:1005900000680028FBD14548454A4168126889082F
:1005A000890041F0005141F00401520748BF41F079
:1005B00001010BD4026812F0030F07D041F00302CF
:1005C0004260026802F00302032AFAD141607047D8
:1005D000384982B20A60C0F3074048600120886051
:1005E000354800680028FBD0002088607047000074
:1005F0001C130050840460425C600C4008220443D9
:1006000080012843000120438C210840000039016B
:100610004820034004000940FFFFFCFC0C00684236
:10062000101009409402224300600C40AC3F00507F
:1006300056620840BC12005002600840A001001041
:1006400094046042B81200506E62084000000940F5
:1006500094042A430000204300A00C407013005073
:10066000FFFFFC0041A10C40DCA10C4040A00C406D
:100670006C1300500A600840A83F005008A10C40CD
:10068000BD378600B40100100BB00C4070B00C40B8
:100690002C2009405013005078130050981300503C
:1006A0008C13005000803F4000F03F0000400340AA
:1006B000B03F00503C600C4084088C432B490A68D2
:1006C000C2F30F324BF69A139A424FF0FF3006D125
:1006D0000868000F0B280CBF0420002070474BF661
:1006E000BE118A4201D1012070474BF641318A4246
:1006F00001D1032070474BF620318A4208BF022007
:10070000704700001948F8B50068050F18480068E0
:1007100000F0FF06802E28BF0026FFF7CFFF042839
:100720004FF0FF3406F10A071DD8DFE800F003128E
:100730001A1A1B00012D12D0032D06D0072D06D04A
:10074000082D08BF06F116040DE014240BE0152453
:1007500009E025B1022D08BF06F1140403E00A24C4
:1007600001E005B93C4660B2F2BD0000181300502C
:10077000A010005080B5FFF7A1FF20B9FFF7C2FF1E
:10078000162800DB01BDFEE770B504460D4616468F
:1007900000F094F8401E8041C00F1A490A68002AF0
:1007A000FCD0012E02D0022E02D003E0257002E020
:1007B000258000E0256001220A6000281CBFBDE8FA
:1007C000704000F07FB870BD38B504460D4600F0AB
:1007D00075F8401E8041C00F0A490A68002AFCD003
:1007E000012D02D0022D02D003E0247802E02488FB
:1007F00000E0246801220A6008B100F063F8204696
:1008000032BD000000800C400B461146042218182F
:10081000BAE710B500EB4100102B144600F500704C
:1008200002D3103B001D240C0299994041EA044177
:10083000BDE810400422A7E738B51D460818102D62
:10084000144602D3103D801C240C0221FFF7BCFF8C
:10085000204080B2E84032BD70B50446E00782B067
:100860000D46154E05D5A8B200900023012200F0D8
:1008700011F8A00705D5A8B200900123022200F0CC
:1008800009F8600705D5ADB2009502230C2200F0EF
:1008900001F873BD00213046FFF7BBBF01460429B4
:1008A00007BF1D234FF0C0421C234FF08052024867
:1008B0003421FFF7C1BF000000A00C40EFF310800F
:1008C00072B67047EFF3108062B6704780B5084982
:1008D0000968496905E080B5054B1B689B69984725
:1008E00000E08847034A0021116002BD00000000BB
:1008F000A80100108404604280B51EF081FE00282B
:1009000001D0002001E05FF0FF3002BD80B51EF095
:10091000A9FE01BD70B504000D00160032002900CB
:1009200020001EF0A7FE002801D0002001E05FF0AB
:10093000FF3070BD70B504000D00160032002900B4
:1009400020001EF0C8FE002801D0002001E05FF06A
:10095000FF3070BD011D096851F00201021D1160D8
:10096000704710F1140212688A4310F114031A60E0
:10097000704710F120021160704701206349086040
:10098000704763480068400810F00100704738B5B0
:1009900004000D00002D10D021785FF080405D4AEA
:1009A00012685268904769465FF08040594A126861
:1009B000D26890476D1E641CECE7002032BD38B54C
:1009C00004000D00002D17D000215FF08040514A37
:1009D000126892689047002802D15FF0FF300CE067
:1009E00069465FF080404B4A1268D2689047009891
:1009F00020706D1E641CE5E7002032BD80B569469D
:100A00005FF08040434A1268126990470028F6D18F
:100A100001BD7CB504000D0006203F490968496905
:100A2000884706203C490968496B88470128F8D166
:100A30004FF4A06038490968C9698847FFF79DFFEE
:100A4000FFF79FFF0028FBD04FF480703249096800
:100A5000C9698847FFF791FFFFF793FF0028FBD094
:100A60000F215FF08040FFF77CFF03215FF08040A3
:100A7000FFF77FFF08200190009400230022274900
:100A80005FF08040234E36683668B04700955FF0CF
:100A9000FF33132212215FF08040214E3668766CBE
:100AA000B0475FF08040FFF755FF69465FF0804038
:100AB000184A1268126990470028F6D173BD80B5B4
:100AC0004FF4807014490968096A8847FFF755FF99
:100AD000FFF757FF0028FBD04FF4A0600E490968CC
:100AE000096A8847FFF749FFFFF74BFF0028FBD053
:100AF0000620094909688969884706200649096866
:100B0000496B88470228F8D101BD00002820086001
:100B100028200840C4010010B8010010006CDC025D
:100B2000B401001019E050F8041BCB0744BFA9F131
:100B300001035918121F0023042A41F8043BF9D27B
:100B40005FEA827C0B4604D54FF0000CA1F800C090
:100B50009B1CD10744BF0021197050F8042B002AB8
:100B6000E1D1704700002000C21500000000100015
:100B7000C214000000000800EF1200000000040092
:100B8000EF110000000000000000000010B5074950
:100B900079441831064C7C44163404E00A68081D78
:100BA000114488470146A142F8D110BD0800000059
:100BB0001400000071FFFFFF08000000000000208B
:100BC000000000000120C046002801D0FFF7DEFF32
:100BD0000020AFF300801EF0E7FB00F000F800F00B
:100BE00001B800000746384600F002F8FBE70000B5
:100BF00080B5AFF30080024A11001820ABBEFBE7BE
:100C00002600020080B5FFF75FFA00F006F800F05A
:100C100002F801BDFEE7FEE7FEE7AFF30080AFF3A9
:0C0C20000080FFF7CFFF000090FFFF00F6
:101010004841002025740000B5980000B5980000F4
:10102000B5980000B5980000B5980000B59800008C
:10103000B5980000B5980000B5980000B59800007C
:10104000B5980000B5980000819E00002DE9FE4390
:10105000AF4C0F460646F80B80F03581B80880F09B
:10106000C7806069B90F67D2A07A002848D13809D3
:1010700048D30025657001262672284604F085FBBA
:10108000A44809F0F9FBA4492A4604F14C0009F0F0
:1010900088FD607901281AD1A079C0B99F4E3068C7
:1010A00070B109F06DF96169236A3268401A000B6A
:1010B000E061C018B0EBC21F28BF256208D22062D1
:1010C00004F1C8004FF0005109F0BCF831E066713E
:1010D00004F1380140F60900088094F8450000F05A
:1010E000F00040F0010084F84500658794F8440062
:1010F00000F0F00084F84400E563894E316018E0A8
:10110000380914D2B80BC0F0FB8004F1280009F0B4
:1011100067FD061C08D0706830B17568F068B6F9D4
:101120001C1082A20CCAA84727F40057E8E0002050
:10113000A07227F00807E3E0D8B1042008F0E8FC2B
:10114000B8B109F01DF9A0616169814226BF401A5A
:10115000401E401A000BF060F06840F6C41100F524
:101160008D708142F06003D340F2EE22824200D9BA
:10117000F1600025D6F818C06561BCF1000F0FD0F2
:1011800094F8450010F00F0F0AD1708C40F6090159
:10119000814205D167A20CCA30466FF48071E047E6
:1011A000604904F14C002A4609F0FBFCA07950B1DB
:1011B0000220ADF80000684608F0FCFAA571BDF801
:1011C0000800A4F8A000012060702079A846401C07
:1011D0002071192084F8078009F046FA756925B155
:1011E00056A20CCA30464146A84727F0005787E070
:1011F00004F13009484609F0F3FC061C5AD006F009
:10120000A2FF4FF00008B269C6F818807068B8B144
:10121000F07F42F00202002300F00700401E07D0DA
:10122000401E03D0801E06D146A002E047A000E089
:1012300048A090E80C007568F068B6F91C10A84743
:1012400009F0A4FB0546B4F93600401C6FF31F30CB
:10125000E086206B1F30017801F07F010170484665
:1012600008F048FF284609F099FCF068B0F994109E
:10127000B4F9362091421DD1217801291AD090F875
:10128000965095B9056885B1E1680968B1F1FF3FED
:1012900010D0254909687030B5FBF1F109F0C2FCA6
:1012A000F068703009F04CF804E080F89680404611
:1012B00005F00EF8484609F093FC27F0020708B144
:1012C00047F002071CE009F061FB014604F12C0025
:1012D00009F086FC0646B569084609F05FFCA808D7
:1012E0000CD25EB1B069A843B061706830B12A46D3
:1012F000F068B6F91C1075680023A84727F48047EA
:1013000027B104F1C800394608F09CFFBDE8FE8310
:10131000400C0020D1580000719500005C1F002097
:1013200000100440A131000034B4000000000000AF
:10133000200000000000000000000002000000008B
:101340000000000400000000000000100000000089
:101350000000004000000000000000202DE9FE43D6
:101360000646DFF8DC82DFF8DC92B2780024101C3D
:1013700000F03581801E00F00D81401E012840F2F2
:10138000E180801E00F0A880401E7BD0401E59D016
:10139000083800F04681801E40F046814546B088FE
:1013A00095F83E70ADF80000052F45D001208DF86E
:1013B0000A0005F1CC0009F015FC95F83E00012863
:1013C0001BD0042819D0032806D0022804D0F288A4
:1013D00031897089B38907E0B5F84020B5F842102B
:1013E000B5F84400B5F84630ADF80220ADF8041069
:1013F000ADF80600ADF8083020E0B5F84000F188FF
:101400008842D8BF081CADF802003189B5F8420007
:101410008842D8BF081CADF804007189B5F84400B3
:101420008842D8BF081CADF80600B5F84630B08930
:101430008342D8BF031CDDE78DF80A40684609F0F7
:1014400033FAF1E0454605F1F00009F0CBFB707886
:10145000002840F0E980F088E8823089288370898C
:10146000688305F1CC0009F0C7F8002840F0DC8063
:10147000AB6A002B00F0D8801B68E88A298B6A8B46
:101480009847D1E0B08807F0F5FF4546214606228F
:1014900005F1380003F0C0FEEC822C836C83B07938
:1014A000687305F1CC0009F09DFB05F1F00009F02F
:1014B00099FB01244FF6FF706F79A8824FB9B0797C
:1014C000082814BF04200520A870204608F04EFE0E
:1014D000AAE00320A870A7E0707858BB311D0A6805
:1014E000454605F138000260898881800627AF7083
:1014F0007089A882F089E882308A2883708A68839C
:10150000F0784446287394F83E00012818BF02285A
:101510000AD11F2006F078FA4FF47A71024604F1DE
:10152000CC00514306F0C0FCF0787289311D06F002
:101530004BFC7BE0707831286FD14D460420287039
:10154000204623E07778002F67D14546698AA8783E
:10155000032A13D02A796F7921B9012A14BF6C713B
:101560002C7106E0174304D005F1A80006F09CFC9E
:10157000A878072814BF0420062007E0062807D013
:101580002879002808BF0324DAD00220A8704DE093
:101590000724D5E77078751C00283ED14246F778BD
:1015A0009078D1799FB9022816D0072814D0062840
:1015B00002D1517901290FD103280DD002F1A800E1
:1015C00009F01AF840B9012008F0D0FD04E0873294
:1015D000204605F00DFA28702878F0B924E07078DC
:1015E000D8B945460220102105F1480206F04CFF0B
:1015F0000320102105F1580206F046FFF61C05F104
:101600002C00B7883168878005F1680201600120ED
:10161000A979A87005F0ECF940B108204D46287072
:1016200004E0B08809F034F9012C06D14546686A17
:1016300018B1016809B1A8788847BDE8FE83C046A3
:101640002009002022090020F8B5A0F20135174634
:101650000E46022D40F20C818649874C874A884B02
:101660002D1F0F2D04D9143D4AD0AD1E1CD011E002
:10167000DFE815F0BA00B500EB00DB00AE00A70014
:10168000FE009F00980010001000900086007A0075
:101690006F006200282880F2EB80022E40F0E88084
:1016A000398806F085FDF8BD012E40F0E1800A463C
:1016B0009078012800F0DC80D1783878D07081B93A
:1016C000002800F0D5801078012800F0A0800428C0
:1016D00000F09D80062800F09A80052800F0978091
:1016E000F8BD3878002840F0C3801078032800F057
:1016F0009980072800F09680052800F09380F8BDB7
:10170000012E40F0B5803878012840F0B1802546A0
:1017100005F1F00008F070FF002840F0A98004F106
:101720003E01002003F088FF002840F0A18004F172
:10173000CC0009F057FAF8BD022E40F099803888A5
:101740000A28C0F29580B0F5486F00F391801146E9
:1017500014E0022E40F08C803888B0F5FA7F80F2D9
:10176000878011460880F8BD022E40F081803888BD
:1017700006287DDBB0F5486F7ADC1946891CF1E755
:10178000022E75D13888062872DBB0F5486F6FDC01
:101790001946E7E7012E6BD13878062868DA11463A
:1017A000891F0CE0012E63D13878042860DA0931F2
:1017B00005E0012E5CD13878082859DA0831087024
:1017C000F8BD012E54D13878042851DAC91DF6E746
:1017D000012E4DD1387804284ADC891DEFE7022E0E
:1017E00046D138881031BDE7012E41D10A46D07864
:1017F00001283DD091783878907061B9002837D0B1
:101800001078012803D0042818BF052830D1012002
:1018100008F0ACFCF8BD387850BB1078022818BF2F
:10182000052825D108F080FEF8BD254600211F229D
:1018300005F18704204603F0EFFC39463246204686
:1018400003F00EF80020EE710EE0254600211F2265
:1018500005F16804204603F0DFFC39463246204695
:1018600002F0FEFF0120AE713146224605F0C0F8BD
:10187000F8BDC0462209002020090020640900208C
:10188000600900202DE9F04F0128ADF1140D40F062
:10189000F280DFF81492D9F8DC00012840F0E980EA
:1018A0000220C9F8DC0008F01FFF0290012005F0BB
:1018B00059FC20B101210646C9F8DC10D5E008F03A
:1018C000FBFE03906E484FF00008C0F80080012036
:1018D00008F01EF9012818BFCDF8008004D1404659
:1018E00004F010FF0120009066486E4CC0F80080A4
:1018F0001934D4F8FF0F112009F018F800280CBF94
:1019000046460126102009F011F808B146F00206FB
:101910000F2009F00BF808B146F004060B2009F07F
:1019200005F830B1584800685849006B02460888ED
:1019300090470A2008F0FAFF0028404618BF01200F
:101940004FF0805B0BF5DC7528B128685049006BBF
:101950000246088890474F48012707602868806939
:10196000014646F0200088474B48076008F0D8FF42
:1019700000F001010191400815D2484808F00CFF21
:101980008246BAF1040FF8D0BAF1010F06D1DBF8A4
:10199000D801406802464148032190474049086801
:1019A00020F003000860404600F080F82868D4F872
:1019B000FF1F806B8047019801280ED0BAF1010FFC
:1019C00006D1DBF8D80140680246344839469047D2
:1019D0003349086840F0030008602A480760286817
:1019E00040690146304688470B2008F09FFF28B128
:1019F00028682649C06A0246088890470A2008F0ED
:101A000095FF28B128682249C06A02460888904795
:101A1000204807600322C9F8DC201F4BC3F8008070
:101A20002868406B0146304688470128F8D10420D9
:101A300005F098FB124807601A48D4F8FF1F0168A8
:101A40008909FCD30098012802D1384604F05AFED7
:101A500008F05AFF082005F085FB06460398C9F8F0
:101A6000DC7006F093FD04F01FFB029807F0C8FC41
:101A700002E0042600E00126304605B0BDE8F08F04
:101A80000C40094000022243B801001066AE00007D
:101A900062AE00002820086080010443004003403B
:101AA0002422084014100940141400202DE9F84F96
:101AB00082467A48DFF8D89135380068800880F08F
:101AC000D88007F0ADFB054678480830D0F8008094
:101AD00000244FEA2876761C5FEA98500AD2C5F1B6
:101AE0003E0015F10A0F4FEAE000D8BF08208642F9
:101AF000B8BF061C634FD7F87C01C0F3046008F040
:101B000044FE83463868C0F3044008F03EFE06EB0E
:101B10000B020090162A05DA12F10A0FB8BF6FF017
:101B2000090200E01522584B584F02F01F0141F402
:101B3000F8511980396811F0030F18BF0124C90842
:101B400028BF44F00204BAF1000F18BF44F00404A7
:101B5000494691F90730EB1A052B04DA8B79A34239
:101B600008BF888864D0DFF82CE10F2DA5F10F0C99
:101B700025DB0CEB0513A3F1F00C4FEA2C27072F04
:101B800088BF07273E46062E88BF06265EF8260039
:101B9000042303EB86037646F3581B1A03F0FF0673
:101BA000E00824BFC3F307200644A00824BFC3F302
:101BB00007400644600828BF06EB136601E00026D4
:101BC00037465EF827E0E0080EF0FF0324BFCEF3AF
:101BD00007200344A00824BFCEF307400344600855
:101BE00028BF03EB1E630098B6B2ACEB07277E4319
:101BF000801A06F1800603EB1623D8BF0120342299
:101C000008F0FF0742437A43B2FBF3F04FF6FF724E
:101C1000824238BF101C802D80B2888005DA15F111
:101C2000800FB8BF6FF07F0500E07F25CD718C710C
:101C3000194A12681F280A604FF0000208D340F2C8
:101C4000FF11814206D24008521C8142FBD301E0C1
:101C50001F208880124F11490F38000942EAC00244
:101C600047EA0200C1F8FB0F0026C1F8FF6FBDE88C
:101C7000F88F0D4F0B4E494608203760891D0870BC
:101C8000BDE8F88F3C1100506E62084024220840E5
:101C9000242500209C1300500820094035000940ED
:101CA00000E7A48030100940FDFDA400AC3F0050C7
:101CB0002DE9F0411C4615468C4208BF854282BF83
:101CC00000230022E5E0002C08BF002D0AD10029E6
:101CD0000EBF00286FF000006FF0000100F0E1F887
:101CE000BDE8F0815FF000085FF0000E002C08BF37
:101CF0008D429CBF2C1C0025070C47EA01470E0CA7
:101D0000B44208BFBD429EBF5FEA044444EA1544A2
:101D10005FEA0545070A47EA01670E0AB44208BFB1
:101D2000BD429EBF5FEA042444EA15645FEA0525CC
:101D3000470847EAC1774E08B44208BFBD4200F2E7
:101D40009380870847EA81778E08B44208BFBD4276
:101D50007CD8C70847EA4177CE08B44208BFBD42E5
:101D600066D8070947EA01770E09B44208BFBD42A9
:101D700050D8470947EAC1674E09B44208BFBD427F
:101D80003AD8870947EA81678E09B44208BFBD4245
:101D900024D8C70947EA4167CE09B44208BFBD420B
:101DA0000DD8E60146EA5566EF01B14208BFB842D8
:101DB00001D3C01BB14158EB08085EEB0E0EA60123
:101DC00046EA95664FEA8517B14208BFB84201D38B
:101DD000C01BB14158EB08084EEB0E0E660146EAF7
:101DE000D5666F01B14208BFB84201D3C01BB141F3
:101DF00058EB08084EEB0E0E260146EA15762F0129
:101E0000B14208BFB84201D3C01BB14158EB08082A
:101E10005EEB0E0EE60046EA5576EF00B14208BFD3
:101E2000B84201D3C01BB14158EB08084EEB0E0E6F
:101E3000A60046EA9576AF00B14208BFB84201D38A
:101E4000C01BB14158EB08084EEB0E0E660046EA87
:101E5000D5766F00B14208BFB84201D3C01BB14173
:101E600058EB08085EEB0E0EA14208BFA84201D352
:101E7000401BA14158EB08085EEB0E0EA34208BFC1
:101E8000AA423EBF2D0A45EA0465240A89D3734657
:101E900042461E4617460B46024631463846BDE8C6
:101EA000F08170472DE9F041ADF1280D07F090F970
:101EB000754D05F1380008F08BFC41F2883204239F
:101EC0007249286105F1780005F0E0F800241F2030
:101ED0000621AC6006F06CF9A0468DF80080ADF8E4
:101EE000028001248DF804400826ADF806604FF406
:101EF0007A70ADF808602146ADF80A806A46ADF800
:101F00000C0040F20530FFF79FFB40F20630022143
:101F10000DF10202FFF798FB4FF4427003212A1DD6
:101F2000FFF792FB40F20730112105F15002FFF755
:101F30008BFB4FF44470214601AAFFF785FB40F26A
:101F4000113002210DF10602FFF77EFB40F2123044
:101F5000022102AAFFF778FB40F2133002210DF1B3
:101F60000A02FFF771FB4FF44570022103AAFFF745
:101F70006BFB08F09FFC0620A02106F019F9072052
:101F8000A02106F015F93046A02106F011F909202C
:101F9000A02106F00DF9CDF8108027468DF81680A7
:101FA0004FF481608DF8147004218DF8157004AA27
:101FB0008DF8177006F0E2F84FF48060214605AA0C
:101FC00006F0DCF840F2024021460DF1150206F061
:101FD000D5F840F2034021460DF1160206F0CEF886
:101FE00040F2064021460DF1170206F0C7F808F04E
:101FF00093FD08F0EBFD08F0AFF907F089F904F064
:102000004DFA08F0E5F905F1440008F0E1FB6861DC
:1020100002268DF8187004248DF819601C498DF87B
:102020001B40032507A88DF81A500A680979026039
:1020300006AA01714046394604F0C0F838460DF151
:102040001902014604F0BAF839460DF11A02304679
:1020500004F0B4F8284639460DF11B0204F0AEF83E
:102060002046052107AA04F0A9F808F0D9F907F0DD
:10207000FBFC06F04FFE08F023FD08F025FD08F0FC
:1020800063FA0AB0BDE8F081200500200DA400002D
:10209000F8B300002DE9F843814608F02FFC002139
:1020A00000B901216B4E30680028FCD06C4D012432
:1020B0002D1DEF6A346009B108F026FCDFF8988125
:1020C000C7F3072008F1BC01086008F017FC0021E5
:1020D00000B9214630680028FCD02F68346009B16F
:1020E00008F012FCC7F38440C8F8C00008F006FCF2
:1020F0000146002001B92046014630680028FCD086
:10210000ED69346009B108F0FFFBC5F38120C8F820
:10211000D000B9F5C061C8F8B81000F0968098F802
:10212000D80068B9C8F8D410D8F8C000C8F8C800FA
:10213000D8F8BC70C8F8C470D8F8D060C8F8CC60C3
:10214000D8F8D410D8F8BC60002954BF02206FF032
:102150000100454605F1C8031A6801EB410140182A
:10216000411000EB917002EBA0021A60D5F8C81084
:10217000C5F8C46000291CDD1E293DDDD5F8CC0062
:1021800030B93429B4BF15391E21C5F8C81025E06F
:102190002A29BABFD5F8C8000B381E20C5F8C800D8
:1021A000D5F8C4003F28B4BF401C3F20C5F8C40088
:1021B0001FE0D5F8CC00032812D011F10B0FC6BFD9
:1021C000D5F8C8000B30201CC5F8C800D5F8C400ED
:1021D0000028CCBF401E0020C5F8C400032009E041
:1021E00011F1150FC6BFD5F8C8001530201CC5F871
:1021F000C8000020C5F8CC00B5F8C400174E302147
:102200004FF47F4208230090304604F0F7FE00941C
:1022100004214FF400321123304604F0EFFEB5F8EC
:10222000C80004214FF4F80212230090304604F055
:10223000E5FEB5F8CC0020214FF440620A2300905F
:10224000304604F0DBFEBDE8F883002088F8D800B3
:10225000BDE8F88300800C401414002000A00C405E
:1022600000A00C402DE9F04F6F4D0024401EADF151
:10227000340D8DF8044020D0C01E16D0401E18D05A
:10228000401E40F0CD8008F05DFB05F029FE401EA9
:1022900002A980B206F0C4F8002800F0C18007A9A6
:1022A00040F2153000F05EFEBAE02846783008F0C3
:1022B00099FC142007F018F8B2E04FF4417009A916
:1022C00000F050FE8DF80C408DF80B409DF8240076
:1022D0008DF808009DF825708DF809709DF826602E
:1022E0008DF80A609DF829308DF80F309DF8282070
:1022F0008DF80E209DF827108DF80D1002A808F01B
:1023000003F905F128014FF441700B9100F02AFE0A
:102310004FF0300BDA46D84631265F4600949DF8E0
:10232000040000287CD1C4EBC40105F1EC00401886
:102330000B99062207F0BCF900286AD1204685F8DF
:10234000784105F15002132841D8DFE800F03E3A09
:102350003634302E2A282523211E1B191412100E64
:102360000C0A392308E0382306E0372304E036233B
:1023700002E0352300E0342330465072937226E0A9
:102380003323F9E7567232201DE0567296721EE032
:102390005B46F1E7392300E038235846EDE7372064
:1023A00000E0362082F809B00DE0352000E034204E
:1023B00082F809A007E0332000E0322082F809808B
:1023C00001E057723046907201E05772977240F206
:1023D00007301121FFF738F995F87801203081B2E4
:1023E0008946062005F0E4FE0720494605F0E0FE98
:1023F0000820494605F0DCFE0920494605F0D8FED4
:102400000120012101AA8DF8040040F20530FFF7F8
:102410001BF90098641C401C132800907FF67FAFC6
:102420000DB0BDE8F08FC046200500202DE9F04F2B
:10243000ADF1840D00F026FE04F0BCFD002601285D
:1024400004D107F0C7FD022808BF012658490868D3
:10245000C0F38150012806D151F80C0C0127010E60
:1024600007FA01F006435348007807F039F8524D57
:102470002C46286038B1FF2204F1400107467F1E38
:1024800001F8012BFBD14D4909684FF0000901F01B
:10249000FF02FE2A1BD0DFF824C101F0FF074A46E5
:1024A0000123FF2F0CD0B8427FD903FA07F73E4231
:1024B0007BD101F0FF0147EA0909611881F840204A
:1024C0005CF8041F521C01F0FF07FE2FE9D1092020
:1024D00001F028FA3948002124220823606001A86D
:1024E00008F08AFA4FF0010804F1240001AA8DF8DF
:1024F0001C80414606F0F4FA236843B30027943564
:102500004FF0040BBA4608FA07F0064219D119EA4F
:10251000000F04BF07F0FF0141F4C04105D0E019EE
:10252000264990F8400051F82010254801F0ACFEF3
:10253000F8B24FF0FF3107F015FB2368C5F800A093
:1025400001E0C5F800B07F1C2D1D9F42DBD30AA817
:1025500000213022082308F013FA0025FF20102163
:102560000AAB1290174A009504F1080005F0F0FB41
:1025700016A828220823294608F044FA04F160002E
:1025800016AA1C9510491D952B4605F06DFD0F49A7
:1025900051F80D0C20F4F85040F4005041F80D0CA7
:1025A0004746C1F8FF7F0A4E376021B0BDE8F08F83
:1025B000B43F0050312500201823002028AD000032
:1025C000007FC767819B00009D7300000D300940AC
:1025D000080009402DE9F843674C04F1240008F095
:1025E000FFFA15460E46009008F0D0F905F00107F5
:1025F0008146B6F1FF3F0CD1A06A20B9B4F936008C
:10260000401C06B202E0A06AB0F91C60002084F809
:10261000A300304606F0B2FC0326002800F09B80A1
:10262000A16ADFF84081814269D0009FB8422ED074
:102630003FB100990A68904209D0096800290091C9
:10264000F7D1832E41D0484608F0A8FA3DE004F1C6
:10265000A40007F06FF900980168AA0802D20A687E
:1026600002600846002202600091009818B94846AE
:1026700008F094FA28E0C17F41F00401C177684670
:1026800007F038FD0146404605F096FEEDE704F1FF
:10269000A40007F04FF9A8083ABF606A006800205C
:1026A0006062484608F07AFA0099C87F40F004005A
:1026B000C877684607F01EFD0146404605F07CFEDF
:1026C000009808B1A808EFD28326E07988B9207A6B
:1026D000012843D0244808F0CFF8022104F1C800B3
:1026E00007F0B0FD6078012838D0204808F0C4F821
:1026F00034E004F1C800022107F0A4FD2EE0A9088F
:1027000003D3616A009100266662C27F0121B9404D
:102710001143C17707F0D0FF0446002F14BF1448BF
:10272000144807F047F8484608F038FAA80801D3DB
:10273000009820B9204605F029FF83260EE0C17FCE
:1027400041F00401C177684607F0D4FC01464046D9
:1027500005F032FEECE7484608F020FA3046BDE8C6
:10276000F883C046700C00204D100000B93E0000F8
:102770000100020401000104400C00202DE9FC418D
:102780005E4C574D574EDFF860815A4F94F8E41075
:10279000481E0B2861D8DFE800F07B2C430623435A
:1027A000062343067664042907D001220A2945F846
:1027B000212C14BF0220032004E02021012045F831
:1027C000211C024684F8E200002045F8390C082755
:1027D000C5F8FF7FC5F8F37F45F8392CBDE8FC81CB
:1027E000052914BF09200620002584F8E40035607F
:1027F00070E094F8E1700120383D002FC5F81B000F
:1028000004BF0620002102D00021F160032084F8DB
:10281000E400032045F8010C31603068800859D28B
:1028200094F8E400012503280DD0002140466022E1
:102830000523009104F0E2FB94F8E400062814BF9D
:102840000A200720D1E70220009000216022052302
:10285000404604F0D3FB0420C7E708F0FDF9BDE8CB
:10286000FC812249002622480E60012505600E20C9
:1028700000F0EEFF022005F0FBFF84F8E45084F83E
:10288000E360BDE8FC81002038600C2578601FE023
:102890001948006800680146202088472C3D41F611
:1028A0001D560F2000214FF4C072072345F8010C7C
:1028B0004046C5F803600225009504F09FFB4046A2
:1028C00000214FF4C072072304F0A0FF01203860FC
:1028D00084F8E45004F1780007F032FDBDE8FC8193
:1028E00039400C4038600C4000A00C402C500C408B
:1028F00004800C4034600C40A0010010141400202F
:102900002DE9F84F9A4693460E46814608F03EF868
:10291000514C0090B4F93610B4F934000AAF401AA3
:1029200040F6F8710140082980F28780B4F934003C
:10293000401C6FF31F30A086B4F9348006F08AFF84
:10294000054609F1700006F0F5FFAE6085F81EB08F
:10295000C5F804A0A5F81C80C5F80C9097E80C00F9
:1029600041A003C8002605F110071040194087E870
:10297000030004F12400EE770768002F50D12946A8
:1029800005F01AFD002851D0A9F89480E87F40F0A6
:102990008000E87789F89660607A40B1607830B15D
:1029A0000120A07266722779A671781C20710098A8
:1029B00008F0F4F8A06A00284BD1607860BBE07999
:1029C000012846D007F0E2FF0646207A00BBA8683F
:1029D00004F00CFA224B2149E2681B68086040B9F8
:1029E000304608F0DBF804F1C800042107F02AFCA7
:1029F0002FE00968D26804F1A400891AB1FBF3F151
:102A000008F010F904F1A40007F09AFC30461EE02B
:102A1000144901200870F9E7192007F025FE18E095
:102A200004F12400294605F0C7FC48B9B4F9340084
:102A300000F6FF706FF31F30A0866FF0010805E00D
:102A4000A9F89480E87F40F08000E877009808F0CB
:102A5000A5F84046BDE8F88F400C00205C1F002020
:102A600034B4000030250020F1EFFF9F200000006B
:102A7000B0B5456884684F48297BADF1180D012930
:102A800016D0217E627E4C4B2F7E0143009143EA9B
:102A900002010191494937F0010718BF081CA27EC5
:102AA0001043029095F88D000322FF2811D00DE00D
:102AB000677E217E3843A37E019041F00041009162
:102AC00043F000403E49029095F88D0001430422F6
:102AD0000391FE204DF82200694605F1900001F0B7
:102AE0000DFFC5F89C00002808BF00205FD0287BA0
:102AF000344951F8200001282BD02068B0F1804FD4
:102B000014BF22220A22217ED5F89C0006F0F4F997
:102B10002068B0F1804F14BF21220922617ED5F8D0
:102B20009C0006F0E9F92068B0F1804F14BF242220
:102B30000C22A17ED5F89C0006F0DEF995F88D10E8
:102B4000FF2933D02068B0F1804F14BF23220B221D
:102B500028E02068B0F1804F14BF21220922217E95
:102B6000D5F89C0006F0C8F92068B0F1804F14BF7A
:102B700022220A22617ED5F89C0006F0BDF9206869
:102B8000B0F1804F14BF24220C22A17ED5F89C0006
:102B900006F0B2F92068B0F1804F14BF23220B2257
:102BA00095F88D10D5F89C0006F0A6F9012006B026
:102BB000B0BDC046000480A0004000800004C0A05A
:102BC00000200080ACAD00002DE9F04305466E68A2
:102BD000AC680F46ADF1340D07F0D8FE96F8D91069
:102BE000241D012903D107F0D9FF002083E04FF015
:102BF000010986F8D99007F0D1FF4FF00008C6F818
:102C000088803869306178697061387E3076387BC9
:102C1000307338783070786886F8A480706078698E
:102C20004146092828BF494686F88C10207A00F0D2
:102C300079FE284603F0B6FCE07D86F88D00284634
:102C4000FFF716FF50B9207A00F002FE07F09EFE53
:102C500086F8D98007F0A2FF45464BE001A841461F
:102C60003022082307F08CFE06956078CDF80080AE
:102C7000224A0990217801AB06F11C0005F068F8A2
:102C800001A841462822082307F0BCFE05951C49EF
:102C9000606801AA4346079006F1380005F0E4F9A0
:102CA000307878B901A841462422082307F0A4FE11
:102CB0008DF81C9006F16C00414601AA05F010FF4A
:102CC000104800E0B868B06003F0A6FAC6F8A000AB
:102CD000307B012807D1D6F89C0007F01BFED6F800
:102CE0009C0000B18560084A06F1C40004212B460F
:102CF00006F0BEFA28460DB0BDE8F083E5450000B9
:102D00004F690000D9AA000069A900002DE9F0412F
:102D1000424C474D8046C8F38140401E02D0401EC1
:102D20002AD025E0284620300168880C20D24FF4B4
:102D3000804020603A48D0F802204B0AC1F30337A4
:102D400003F0800322F08F02134347EA0302C0F826
:102D50000220D0F801300E1266F30303C0F80130F0
:102D6000026801F0E70722F0E70247EA020102E009
:102D70004FF00041204601602A4E06F1080000682D
:102D8000C0F3C0070FB94020A0624FF40070206468
:102D900007F002FC40F0300084F8C800C8F381500E
:102DA00038B3401E03D0401E1ED002211DE001207A
:102DB00006F0AEFE07460420394603F0F1FF04207A
:102DC00006F0A6FE8742FAD1366826F07F4005F06D
:102DD0001FFD15480068036807214FF06022300E80
:102DE00098474FF4806020600321042003F0D8FF4F
:102DF00006E00420012103F0D3FF0C4805F008FD94
:102E0000284600680B4947F6180700F03F0084F891
:102E1000CB0F094E0F803068BDE8F08140A00C4018
:102E20000A600840A83F0050B4010010BD3786007A
:102E30006C13005070B00C402C2009402DE9F04379
:102E40000646880FADF1140D7FD303F013FA434DFE
:102E50004FF000081C35C5F800803D4845F81C0CB3
:102E6000012002F092FC3B4807F006FD3C48434637
:102E700040F60A0200F13801438790F84440C0F858
:102E80003C8090F845700A8004F0F00480F84440DB
:102E900007F0F00444F00104B76880F8454081462B
:102EA0007B803C1D00E03C1D276817B138888242BA
:102EB000F9D12160607A00F0F000607209F124001D
:102EC00007F08EFE80680088D21F82421DD0521CFF
:102ED00082421AD006F120000788B7B196F82C205C
:102EE00096F82D70C6F8248002F0F00286F82C20A7
:102EF00007F0F00242F0010286F82D20C9F83C00EC
:102F0000487B738400F0F0004873B068694606F0AF
:102F100061FC684607F038FBB06802F0B0FD286835
:102F20000028FCD0C5F80080012006F0F1FD012842
:102F300008D0607A00F0F00040F0010060720648AE
:102F400007F09AFCB06845F81C0C05B0BDE8F083AA
:102F500001010E044D1000005967000000100440EC
:102F6000400C00202DE9F04F0C464549CA7AADF1DE
:102F70002C0D84460592487B09900D7900958A7A3C
:102F8000488B4B8A0E7B91F805A091F80280049241
:102F9000B1F846E008904A7A088B0392CD78079002
:102FA0000A7AC88A02920F6A0690CA79888A0192C0
:102FB0008A79E146A9F54079B9F11D0F10D8DFE80B
:102FC00009F05B5553514F4D4B494643413F3C3A05
:102FD000380F34312E2B2923201E1C0F19181716D9
:102FE000BCF1280F49DA604604F00EFD21E0099E8D
:102FF000B246D046CDF814801DE008980790079897
:103000000690DDF818E005E038310868206088880F
:10301000A08032E070460AE0B1F8440009E0B1F85F
:10302000420004E0B1F8400001E091F83E000346A0
:1030300012E0208021E0059804900498039001E0BC
:103040003231E2E7039802900298009006E0019A7C
:1030500087310DE068310BE01846EAE7009D0BE090
:103060002C31D2E7276008E0583100E048311022C7
:10307000204601F0F5FB00E025700BB0BDE8F08FB5
:10308000200900202DE9F041444C94F8E700ADF10F
:10309000280D00286FD1394F387B012500212422CB
:1030A00084F8E7507E6884F8E6000823C4F80C61D1
:1030B00001A807F089FC002604F10C00069601AB7C
:1030C000ADF814602E490796324605F02BFA2D49CB
:1030D00004F1300001AB324605F024FA2A4904F12C
:1030E000540001AB324605F01DFAB8680146284687
:1030F0008847DFF89C8025487B7B0078D8F804104F
:10310000C1F381571BB1032F03D184F8E150032F82
:1031100016D0022F14D0012F26D103201D4C009071
:1031200031464FF040521C23204603F067FF0095C4
:1031300031464FF400720923204603F05FFF13E08D
:10314000022005F0ADFB032F0CBF4FF47A7142F261
:103150001071114800685434B1FBF0F1204607F0BB
:1031600061FD204607F0ECF8D8F80000C00802D254
:10317000304605F095FB0AB0BDE8F0817CB3000055
:10318000CB760000E54B0000955100003125002072
:10319000B03F005000A00C4034B4000014140020D4
:1031A000F8B506F02FFF404E3E4F0446A00823D34B
:1031B000B96A09B33D4600200B698A69A86204EA2E
:1031C0000300104340F0020006F1080288610B6919
:1031D00010689843106001F1100090E80C0030680E
:1031E0001A1C9043306005F1300005F0E5F802212B
:1031F00005F1C80007F026F8B86AA10815D200F159
:1032000010020CCA002122400B40002B08BF002AEC
:103210000BD0016985690C40F8622C434FF4804162
:10322000846107F1C80007F00DF8B86A002837D1AB
:1032300007F12404204607F0D3FC051C30D0F868C1
:10324000E968884226D1A86803F0D0FD17490860D4
:10325000E0B906F1080128690A681043086032687D
:1032600005F1100393E80300081C104330600023AD
:103270003361A86846F80C0C06F1100000680028BD
:10328000FAD0204606F036FFBD62F8BD086803F0AC
:103290001FF8F8BD07F1C8004FF4805106F0D2FFC7
:1032A000F8BDC046400C00200C1004405C1F0020FC
:1032B0002DE9F047ADF1180D01F034FA3A4D4FF019
:1032C000030908274FF6FF78002605F13E0A2C4631
:1032D00006F010FC20BB009601A80DF106016A461D
:1032E00005F0BBFCE0B9BDF80400102814D16078EB
:1032F0009DF8061088420FD100980188884509D1B1
:103300004088C00B08D3042005F12002014605F0D7
:10331000BBF801E003F090FD009808B106F036FE1E
:10332000208A41082DD320F0010063792179208281
:1033300053EA010225D073B9207A637A8DF8070029
:1033400005F132018DF808300A680DF109031A60A1
:103350008988998001E08DF80790A07A8DF80F0098
:10336000E37A8DF810300DF1070007F08BFA38B1D1
:10337000636AA77023B11A6812B119683846884782
:10338000208A810807D320F002002082514630466F
:1033900002F052F9208AC1089AD320F0040020825A
:1033A00006F026FC94E7C046200900202DE9F84FDE
:1033B00000298346009106DD024600980021401E48
:1033C00042F8041BFBD10098DFF8C880DFF8CC90EE
:1033D0000028C8F800B012DD2F48009C07680025BF
:1033E00037F8020B38B1D9F80000AE003158002090
:1033F00088474BF80600641E05F10105F0D1284FFF
:1034000041460120D7F80080C880B8F1000F22DDC6
:103410004FF0000A00980127002817DDABF10405E2
:103420000446002655F8040FB0F1FF3F04D0D9F848
:1034300000107158884728600021B0F1FF3F08BF95
:103440000121361D641E01EA0707EBD137B90AF1E5
:10345000010AC245DEDB04A006F09CFC0D490020F9
:103460000860BDE8F88FC0467864632E72756E748C
:10347000696D652E537461727475703A20276D61A1
:10348000785061737365732720657863656564653B
:103490006400C046F813002084B4000088B4000023
:1034A00080B400002DE9F04706467468B56807F05F
:1034B0006DFAD4F88810002963D007F06FFB2968F3
:1034C000486820F0020048602968486A20F003003C
:1034D0004862D4F8A0706869296908437968096866
:1034E000C1F804052968486920F00100486128688E
:1034F0004FF00108C0F82080304605F0CDFED4F82A
:103500008800D0F8049007F041FA04F1D807824609
:10351000387850B119F0704F02D1042005F0A8F9A5
:10352000022005F0A5F900203870504607F036FB60
:10353000D4F88810087C042803D003200874D4F839
:1035400088102A696869D4F8A0304746104307FA02
:1035500000F258680068C2622868B0F1804F14BF5A
:103560000A480B480F68006800258204A7EB9250B8
:10357000401E08603046A268C4F888509047BDE8F5
:10358000F08707F00BFBBDE8F087C0460805002078
:10359000380400202DE9F0430646ADF11C0D07F07C
:1035A00043FA05F01DF94FF000090546CDF80090EB
:1035B00007F0E0F930F0010002D00098A84202D1F3
:1035C0006FF0040059E070684C4658B1B0F1FF3F0D
:1035D00005D001A905F0ECF830B107464CE04FF0FA
:1035E000FF3000E02046019006F094F90199012790
:1035F00001EB000800E001936868019900F02CFBE2
:1036000000282ED003A804F007FED8B99DF81000BA
:1036100002A904F0E7FD88B9B368BDF808009DF879
:103620001210059A984748B19DF81270B773BDF80B
:103630000800B081059B33614F4612E0059968464A
:1036400005F0D6FB0198641CB0F1FF3FD4D00028F0
:10365000D2D006F05FF9B8EB000302D0019898428F
:10366000C9D2009905F1080005F09EFD24B16868F3
:1036700002F06EFB641EFAD1384607B0BDE8F08355
:10368000F0B5ADF1340DFFF7FDFC30490868282294
:10369000082340F00200086001A8002107F0B2F9F9
:1036A0002B4E2C490524002301AA079406F1C800DB
:1036B00004F0DAFC00213022082301A807F060F9A9
:1036C0000025FF271921244AADF81C5001AB0997AA
:1036D00006F14C00009504F03BFB2822082301A8CA
:1036E000294607F08FF91D4901AA2B4606F1FC0077
:1036F000079404F0B9FC3022082301A8294607F0FA
:103700003FF901241A21164AADF81C4001AB099774
:1037100006F16800009504F01BFB12492A4606F1E9
:10372000A400134604F0FEFE0F4807F0A5F8B4719C
:1037300086F8A3507571F57135727572B5724FF6D2
:10374000FF7075610DB0A6F8A000F0BD0020094023
:10375000400C0020B5A10000719500004940000018
:10376000AD67000061930000B93E00007CB50446DF
:10377000084602F085F9344E02461821304605F01D
:103780008FFB06F0E1F940F2FF32002380B22C21DA
:103790000090304603F032FC06F006FF1C21024682
:1037A000304605F07DFB06F0C1F902461421304693
:1037B00005F076FB06F04AFC02461021304605F083
:1037C0006FFB204602F018F802460C21304605F047
:1037D00067FB204606F022FC1C4D400040F0200014
:1037E0002870204606F026FC40F010002870204685
:1037F00006F000F802462821304605F051FB20462D
:1038000006F030FC400040F06000E870204606F012
:1038100035FCC00040F0800005F8080C204606F09A
:1038200039FC800040F47C40A5F89300204605F068
:103830004DFB02460821304605F032FB4FF4800074
:10384000A5F2091108607CBD00A00C4049A10C4004
:103850002DE9F843044607F099F881462D480219EE
:1038600092F8ED10491ECFB2002F82F8ED704BD1C7
:103870002B4D05EB84052E78698836F07F07884646
:103880001AD1F10911D24FF08054D4F8B8018069EF
:1038900001464046884704F5DC742068406B0146C9
:1038A000404688470228F8D121E000EB8800D0F894
:1038B0000011002088471AE04FF08054D4F8B80176
:1038C000006A014640468847D4F8B801806A01463C
:1038D00040468847D4F8B801006B01464046884707
:1038E00001210D4A0D48116001688908FCD306F0DA
:1038F0003F003F2801D0FFF7ABFF687800F03F00A2
:103900003F2801D0FFF7A4FF484607F047F9BDE87C
:10391000F883C0461414002028200860282008409E
:1039200038AE00002DE9F041064607F02FF82D4D86
:103930008046A91991F8ED00421C002881F8ED207D
:103940004AD1294C04EB8604277807F03F003F2832
:1039500001D0FFF7E7FF607800F03F003F2801D07B
:10396000FFF7E0FF668837F07F001AD1F80911D21F
:103970004FF08054D4F8B80140690146304688477A
:1039800004F5DC742068406B014630468847012806
:10399000F8D121E005EB8605D5F800110120884714
:1039A0001AE04FF08054D4F8B801C069014630469F
:1039B0008847D4F8B801406A014630468847D4F8B1
:1039C000B801C06A0146304688470121074A0848C5
:1039D000116001688908FCD3404607F0DFF8BDE8B4
:1039E000F081C0461414002038AE00002820086082
:1039F000282008402DE9F84F0D46064628687468CF
:103A0000D6F80880002855D006F0C0FFD4F88810FA
:103A100021B107F0C3F8032028744BE001272F746D
:103A2000C4F8885007F0BAF894F8A40038B194F8B4
:103A30008D202249D4F89C00114304F001FFD5F8F1
:103A400004A006F0A3FF04F1D80999F800308346DA
:103A500053B91AF0704F02D1042004F021FF022064
:103A600004F01EFF89F80070584607F097F8D8F860
:103A70000010486840F0020048603046294600F0D7
:103A8000B7F9D8F80010486940F001004861207883
:103A900030B9616804F16C05284600F0DDF810B11A
:103AA0003846BDE8F88F3046FFF7FCFC2846002179
:103AB00000F0D2F80020BDE8F88FC0460000068074
:103AC000FEB5FEF7EFF9304C4FF6FF75002606F015
:103AD00003F8002833D1009601A80DF106016A46CB
:103AE00005F0A4F830BBBDF804000127102811D15F
:103AF00020789DF8061088420CD1009801888D42EC
:103B000005D14088000905D304F096F902E006F0DB
:103B100058FE0746009868B167B106F013FA09E04D
:103B2000206906F086F9071C04D006F075F93846BE
:103B300006F0E4F9206906F08AFE0028F0D06088DB
:103B4000C10806D320F00400608006F0FBFE06F0FA
:103B5000DDFA606906F07BFE0028B8D1606906F0E6
:103B6000C5F80746387A012806D0022808D1788996
:103B7000F96800F03BFC03E07889F96800F022FE68
:103B8000384606F0BBF9E4E720050020294A2DE974
:103B9000F04180460126284816600768002FFCD0B7
:103BA000294C2A4FC020443C206007F108000168DE
:103BB0002348890804D20168090C41F0F00100E0B3
:103BC00072211E4D85F85412002111638768384612
:103BD00001F05CFB40463946FFF7C8FD1C48B03891
:103BE000816D40F20F226FF31F418A4212D90168A2
:103BF0000068C1F30363C0F3034003B15B1E0728F1
:103C000005D006280EBF0720801C00F00F0043EAF5
:103C1000001028703846FFF779F80E48143800680D
:103C2000C1680220884740202060064F3E60BDE802
:103C3000F081C046101009409402224302600840FF
:103C4000AC3F00509404604244600C40A83F0050D8
:103C50006C130050B40100102DE9F0410D460646EA
:103C6000B5F1FF3FADF1380D09D045B12B496B4699
:103C700005A82A4605F0B0FB05A9022001E00021B5
:103C800003200391264F8DF8100038682024EFF3AD
:103C90001188371884F31188708980BB002D04BF08
:103CA00088F31188002036D006F01EFD064606F087
:103CB000BBFE0290C0F818D004F082FC384669467A
:103CC00006F094FE9DF810000025022802D103980A
:103CD00001F072FF88F31188304605F091FBEFF395
:103CE000118384F31188039810B106F099FF0395AE
:103CF0000298856183F311889DF810000BE07089AC
:103D0000401E7081039818B106F08AFF00200390CE
:103D100088F3118801200EB0BDE8F08159900000B1
:103D200040B400002DE9F04115460446A869A060A2
:103D3000686A98460E4608B92A4800686062286A90
:103D4000002806BF28480768071C06F02BFEEB6911
:103D5000A3B9002808BF391C03D03F1841427F1E79
:103D600039400246E161606AE169434601F01CFEA8
:103D70002062206AB8B90120BDE8F081002804BFA4
:103D80002362391C0BD01B1841425B1E01EA030061
:103D900020623F1AE869C019E061E0690140E16111
:103DA0004FF0FF306062A6622869E06268692063B4
:103DB000A86A6063A88DA087A08F012803D10B4952
:103DC000C868401CC8602046414601F025F90346FA
:103DD000404606F05BFA002814BFD81C0020BDE85E
:103DE000F081C04654B4000058B400000817002009
:103DF000F8B58C4645688468DCF8007095F88C103E
:103E0000B8B288401FFA80FE2068B0F1804F14BF1E
:103E1000244B254BDCF80820244832B995F88C1047
:103E20008E00815905F1A60207E095F88C108E00EE
:103E3000811951F8081C7244521E99605A60216819
:103E40003A0143F6F077103A0831174019609A6842
:103E50003A439A602368B3F1804F14BF144A154A5D
:103E6000DCF804C0BCF1000F04BF805904F10E0659
:103E700005D0801950F8100C0EEB0C06761E9060E1
:103E8000166051609068074397602169D5F8A0607B
:103E900060690843716809688862586A40F00300E5
:103EA0005862F8BD0005002030040020C4AD0000B9
:103EB0001005002040040020042998B54DD1274C5E
:103EC00004F1240006F08CFE40B994F8A3004008E9
:103ED00038BFE06804D3D4F8880000E0C068E06030
:103EE00041681F4A09781160416812680978914257
:103EF00006D0876927B120A20CCA6FF0FF01B8472E
:103F0000022004F0CDFC1120FFF70CFD0120E07130
:103F1000E068011D007C10B16079012804D00E20FA
:103F2000FFF700FDE168091D08680E4908300768C1
:103F30000FB947681FB10020C8610B4F0F600B4AD3
:103F400040F2FF7000271060094C8F6109484C61F6
:103F500006F092FC192003F00FFB98BD400C0020E6
:103F6000D021084000100440510007060000046002
:103F7000020000403D2E0000000000000000000292
:103F80001EF0040F14BFEFF3098169468869EFF34F
:103F9000118102B400B5DFF89CE0F047284A1168AF
:103FA00001EA000010605DF804EB1EF0080F03D179
:103FB00001BC80F31188704704BC1EF0040F14BFCD
:103FC000EFF309816946A1F1200114BF81F309884B
:103FD0008D464A604FF08070C8611A488861184B5E
:103FE0001868086040F201101860704702B401B40C
:103FF000EFF3148100291CBF002282F3148802B45D
:1040000002B4DFF834E0F04701BC01BC00281CBF5B
:10401000022181F3148801BCDFF820E0F047044856
:104020004FF08051016001BC80F3118800BF00BFD8
:1040300004ED00E05568000001AB000097AB000004
:104040006C170020ED3F0000F8B506F09FFC2A4CED
:104050000746103CD4F89C0010F4602F2BD0D4F805
:104060009C00400CC5B2680807D2A80803D2E80833
:1040700028BF022502E0012500E000256E1D70B278
:1040800002F0BEFBD4F89C3005F1110101208840FC
:1040900023EA00013846C4F89C1006F07FFD04EBCB
:1040A0008500D0F88C704FB1D4F8880013A20CCAE8
:1040B0003146B84702E0384606F070FDD4F89C005F
:1040C00020B104F1FC00002106F0BCF894F8A30034
:1040D00080080FD3D4F8987037B1D4F8880009A2BB
:1040E0000CCA6FF00101B84794F8A30000F0FD007E
:1040F00084F8A300F8BDC046500C0020000000006A
:104100000000000800000000000000802DE9F041E0
:104110002D4C0546A41C20781F4690460E46ADF156
:10412000380D012803D0FFF7ABFA012020705EB1F3
:10413000B8F1000F6E6007D0C5F8088006F026FCC5
:10414000617819B106F02AFD002038E0491CC9B297
:10415000617006F023FD01241FB9684606F042F99C
:104160006F46386828607868E860387A2874F8689C
:104170006861386900B1A8610021782205F120004A
:1041800001F04AF805A800212422082306F034FC97
:104190008DF82C4005F13800002105AA04F0A0FCA0
:1041A00005A800212422082306F00EFC05490B95E2
:1041B00005F17000002205AB04F0B4F928460EB0FA
:1041C000BDE8F08131AB0000400C0020F8B506F0EE
:1041D00095FB06F0A5FB044604F00C000C2845D026
:1041E000E0081ED204F00CFF234E3768054601207C
:1041F000014605F0FDFB31686943884211D21F4C2E
:104200008220B0FBF7F0291A204606F00BFD20466D
:1042100006F096F80120FDF735FB204605F08AFBF5
:1042200025E0200922D21648610939BF016821F032
:104230000101016841F0010102460160D2F89800D5
:104240004FF0805440F00300C2F89800D4F8B80151
:104250008069014620208847D4F8B801094C806B5A
:104260002168804701202060206800E030BF06F010
:104270004BFB01F039FCF8BD34B4000020140020E1
:104280008C2108402C200940F8B50D46EEB22908D3
:1042900024BF26494D40264BB400195985EA010236
:1042A0000240C2F3006C234A00EA05078143FF3253
:1042B0003A4000F4E0270A43B7F5E02F01D1510E50
:1042C00015D300F4E0215CEA010710D002F4E027E6
:1042D000B7F5A02707D0B7F5803704BF22F4003226
:1042E00042F4A02203E022F4803242F4C0221A51A8
:1042F000114CC10D04D3A4F18001C5F380528A553D
:10430000000E11D306F042FB290E03D20121002238
:10431000B14002E00121B1400A46503423688B438A
:104320001A43226006F03AFCF8BDC046006000A0C7
:1043300000100840007F077F802002402DE9F041F7
:104340000E46294990461C4606AF8C46726808788E
:10435000BB8851783F881278002502EB012242F693
:104360002321521A29D0521E052A18D9921F0CD087
:10437000263A34D1072F30D8C7F10700984298BFAA
:1043800083B2674407F1080121E0B84225DBC01B76
:104390009842D8BF83B22380DCF804000BE0F068B9
:1043A00006F052F880B2B84217DBC01B9842D8BF63
:1043B00083B22380F06839180AE0082F0DD8C7F1BE
:1043C0000800984298BF83B207EB0C010F3123809D
:1043D00040461A4600F044FA03E0072501E0258034
:1043E0000A252846BDE8F0817C0E002038B5054638
:1043F0004A78284C087800EB0220ADF8000062886B
:10440000BDF8000090423AD1BDF80000891C0001BF
:1044100005F0D4FF6088A388401C81B261808B4284
:1044200029D102F085FBE0B12846002101F0F2FC21
:1044300005F07AF821780843207004F0A9FA05F015
:104440002DFD90B12078410805D3A36929460320AA
:1044500000229847207810F0060F06D006F0BCF82E
:1044600003E02846012101F0D5FC0025257005F068
:104470009BFF658038BD284601F072FE38BD0020E4
:104480006080207005F090FF2846032101F0C2FCF7
:1044900038BDC046D41100202DE9F84F8046087879
:1044A0001C4616460AAF022831D02348DFF88C900C
:1044B000D1F804B08569102282464946584605F075
:1044C000F7F8002740B9002D33D08AF801400120C9
:1044D00041463246A8472CE009F110015846102207
:1044E00005F0E6F810B925B30220F1E709F1200143
:1044F0005846102205F0DCF890B9012C05D130782F
:10450000002818BF8AF80A0013D1802711E04868F4
:104510004278007842F6021500EB0220854201D075
:104520000A2706E0388832460090404602F01CFD1B
:1045300007463846BDE8F88FD4110020F8AD0000DA
:10454000264838B550380468B4F1FF3F08BF00244E
:1045500005F020FF2248174900251038056001208A
:1045600008601549086002F093FA1448006820B109
:10457000134800682046FFF709FB124812490560FE
:10458000124C0A686FF35B4244EA0200086010496B
:104590000868C0F30130012806D10A680D481040B0
:1045A00040F400320A6008600B4908680028FCD11A
:1045B00038BDC0465C600C4008220443800128439B
:1045C000000120438C2108404820034000003901AD
:1045D00004000940FFFFFCFC0C0068426C13005013
:1045E00094046042B0B501468B681C68E269486873
:1045F0002262520824D2D0F8A01049680A685D6986
:10460000D2F80415294206D01C68616A21F0020123
:104610006162C2F80455D2F8042519690A4230D003
:104620001A68516A21F001015162D0F8A020526845
:10463000196912683830C2F8041502F0BFFFB0BD26
:104640001C68626922F001026261D0F88870AFB91B
:10465000626822F0020262601C68626A22F0030251
:104660006262D0F8A0005A6940681C690068224361
:10467000C0F80425084604F00FFEB0BD0846FEF75A
:1046800011FFB0BDF0B520480127F84201D002F07B
:10469000F9FB204D204F214EBD4206D203CD0478B8
:1046A000A4003459401CA047F6E71D48002800D05C
:1046B0008047164D164FBD4202D210CDA047FAE7F3
:1046C000F0BD03251BE0416808300A1C2A400BD1CD
:1046D0001A1C2A40AB4305D0046804300C60043136
:1046E000043BF9D1131C05D0047801300C70013162
:1046F000013BF9D1021C2A4001D0A84304300368D1
:10470000002BE0D17047C046FFFFFFFF0000000014
:104710000000000010BD000040BD0000D8BC00003B
:10472000216C00002DE9F84304F066FD244C0025BF
:10473000A5704FF6FF70A08203F0EEFB1F4E012321
:104740002A462070314604F1A80002F09FFC0223A3
:104750002A4604F1CC00314602F098FC04232A4694
:1047600004F1F000314602F091FC042704F14808FE
:10477000102240462946E77000F04EFD04F158092A
:1047800010224846294600F047FD04F12006356016
:104790002572072065721021A0724246E572022040
:1047A00003F058FE032010214A4603F053FE38461A
:1047B0003246014603F04EFEBDE8F8836DA10000CD
:1047C000200900202DE9FF41244D8046681C007817
:1047D0000E46082814BF04240024084603F036F8C7
:1047E000684601F0B5F9A4190026E178A0786E803A
:1047F00000EB01202E7080106946A880204601F051
:1048000081FC18B3204605F0CEFFE861000BE8807C
:1048100005F04CFCA8B1E888A988C4B200EB2120BF
:10482000C7B2A74208DB3F1B7F1C204606F07AF97F
:10483000641CE4B27F1EF8D14046314601F090FC82
:1048400008E04046022101F0E5FA03E040466946EF
:1048500000F058FD0090BDE8FF81C046D411002053
:10486000002A4AD05FEA000C8B071CD1830722D1B3
:10487000102A08D370B4103A78C978C0103AFBD225
:1048800070BC103238D0042A2CD3082A05D30C2A45
:1048900024BF08C908C008C908C008C908C09207D1
:1048A0002AD0920F22E00B780370491C401C521E44
:1048B00022D08B07F7D1C30714D18307D8D0121F9A
:1048C00012D308C903801B0C4380001D121FF8D2AD
:1048D0000AE008C903701B0A43701B0A83701B0A95
:1048E000C370001D121FF4D2121D05D00B78037087
:1048F000491C401C521EF9D1604670472DE9F8430F
:10490000224D884606464FF0FF3105F124008146CE
:10491000FFF7A2F900200CE0FF2909D02A688A429B
:1049200004D905EB8101D1F894700FB1002627E07E
:10493000401CB8F1000F03D018F82010FE29EBD16D
:104940000024346074600127B46011E0FF280ED0A9
:1049500005EB80000B787268C0F8946007FA03F0EA
:10496000104370600A680A49304604F0DBFA641CA0
:10497000B8F1000F04D008EB84010878FE28E5D1D7
:10498000484601F0E5F93046BDE8F88318230020D9
:10499000007FC7672DE9F8432020EFF3118780F3EC
:1049A0001188214CA068012106F032F94FF001096D
:1049B0004FF0000865692168A4F81C906A1A216804
:1049C000A4F81E80461B401A904227D387F3118813
:1049D00040464519361A4846294600F0CFFCB042F9
:1049E000F7D92021EFF3118781F31188E18B012999
:1049F00003D14046294600F0C1FCB0F1FF3F06D08C
:104A0000A169801B814238BF081C411901E0A069DF
:104A1000291805F04FF9A4F820902560A4F81C800F
:104A200087F31188BDE8F88340180020F8B50F46D9
:104A300001464C688E683846203804F10C0432D0A8
:104A4000401E2CD0401E27D120781578012814BF95
:104A500019491A49FF2D41EA05011BD0D4F89000ED
:104A600001F012F998B93068B0F1804F14BF2322D9
:104A70000B22D4F89000294604F03EFAD4F89000B6
:104A800094F8811001F036FD84F8815012E04FF067
:104A9000FF30F8BDFF25F1E76FF00100F8BD002001
:104AA00084F89800F8BD21780020012908BF012072
:104AB00084F898000020F8BD0004C0A00020008009
:104AC000FEB5044622481646089FC069618250F828
:104AD00021201C4800681D4690420DD01B480068EC
:104AE000009000220191184E029231888F2338469F
:104AF00005F034F90120FEBD084602F01BFDA6605A
:104B000068696060286AB0F1FF3F08BFFF20207429
:104B10000026E660288B00280EBF301C0120E060D4
:104B20000146A88C10B141F00200E060204601F07F
:104B300065FD0346384605F0A9FB002814BFD81CC4
:104B4000301CFEBD20B40000C6B300000CB4000051
:104B50004C17002022482DE9FE4F801E0288804617
:104B60005FFA92F1100100F47042801A1FFA80FB84
:104B7000B8F80200C5B241185FFA81FA0021AA45CF
:104B8000019124DBAAEB0506761CA8420CBF042485
:104B90000024AA45D8BFA34513DD284621466A460E
:104BA00005F075FF0427E94619F8011B019803F089
:104BB000D7FE7F1E0190F7D1241DA4B2B4F5805F0B
:104BC000E7DBB8F802006D1C761EEDB2DDD101986E
:104BD000002103F0C5FE002103F0C2FEBDE8FE8FF8
:104BE000DA1100202DE9984305F0D0FE1F4CDFF8C4
:104BF0007880814604F1E000007850B94446A0680E
:104C00000146022088470746102002F0ABFA2FB376
:104C100020E001F01BFA002820460FD11449096852
:104C20003222B2FBF1F101B9012100F1300420463A
:104C300005F0F8FF204605F083FB0FE04446002214
:104C4000A16880F8E020022088470746102002F083
:104C500089FA1FB1A068014603208847484605F03D
:104C60009DFFBDE89883C0467CB30000141400206B
:104C700034B4000070B51F4CA568064605F09EF9D7
:104C80004FF47A71401B4843050C04F0C9FA2169BE
:104C9000401A48BF404240F6B831AD19A94211D37D
:104CA00006280FDAA268E1688A420BD8206848B16A
:104CB000891A114A51438A0C02EB1141884288BF7C
:104CC000011C08E00D49486840080ED208687D21A3
:104CD00000F0FF004143C82905D3B1F57A6F88BFC2
:104CE0004FF47A6103E0C82101E04FF4FA6108460D
:104CF00070BDC0461025002040420F00AC3F005060
:104D00002DE9FC41844608AF0878DFF87C803F88B5
:104D1000FF24022829D14E687578307842F60216B1
:104D200000EB0520801B1AD04DF2EF65401B18BF29
:104D3000B0F1020011D177B9012B0AD11078CA68FD
:104D40001070C968474600258F4214BF02242C1CEE
:104D50000EE00D250AE00B2508E00A2506E0009785
:104D6000604602F001F9054600E00125FF2C07D05E
:104D70004046001D006818B1016809B12046884707
:104D80002846BDE8FC81C046AC100020F8B5001DE7
:104D900084B214F0030002D0241A241DA4B205F03A
:104DA00014F801461948102C47680160C8BF87688D
:104DB000388800221646C30BDD0319D126B9844278
:104DC0000ADD3A46012617E01388C3189BB29C42BD
:104DD000138011DC174618469FB1001B80B20428CF
:104DE000B4BF3C88385344F400443C803F1D08E085
:104DF00080F40040002680B2C71938880028DAD134
:104E00000027084605F065FA3846F8BD341500203D
:104E1000B0B50446A768ADF1280D27BB0C20FFF7FD
:104E2000B5FF071C16D0684600212422082305F090
:104E3000CBFD002306976A466168ADF81030144830
:104E4000059303F0F5F8386038B905F037FA3846BD
:104E500003F08CFF6FF0030018E0E06878602069D1
:104E6000B860A7600AE004F0B0FF0546386804F0B7
:104E700061FD2069B860284605F02BFA3868616842
:104E800005F0D0FE386805F05BFA00200AB0B0BD2E
:104E9000C1A80000B0B514460F4605F077FD85B2F5
:104EA00019480068007808B904F0BEFE87B138469A
:104EB00004F013F940B114B14FF0FF302070082016
:104EC000FEF7C6FC002419E038687968BA6803E088
:104ED0004FF480700122014603F020FA0B490120B3
:104EE00008600B4908684008FCD30A48006841681C
:104EF000022088470CB1002121700446284605F0A5
:104F00004DFE2046B0BDC0468CB30000A802504202
:104F100008800240CC010010F8B50E46044605F0AA
:104F2000CBFB0546304604F029F8071C03D1284680
:104F300003F02CFB26E0F87F10F0070F1BD113487D
:104F40007968884202D079682166786010A090E87C
:104F5000060004F15807284687E8060003F016FB10
:104F600004F138004FF0FF31FEF776FE04F16806D9
:104F700096E80300F8BD284603F008FBF87F10F020
:104F8000070FFBD102200021F8BDC046816B000055
:104F90000200000000000070B0B517491C481D4A0F
:104FA0000F68C0691549C2F8080DD2F8083D99424A
:104FB0000ED06FB1124B1B6800240F2C2CBF1D1C90
:104FC0000D68091D641C05607F1E00F10400F4D10A
:104FD0000D48D2F80C7D0B4D0168202427F47F404A
:104FE00000EB01202918C2F80C1D084B82F8224D55
:104FF0001868C2F8140DB0BD10B400001010000005
:1050000020B400000000FA0524B4000018B4000029
:105010004C17002000E000E070B50D461B4A1A490D
:1050200004462B4603F05EFE2061284605F02EF96B
:1050300040BB184801220021A56803682275144866
:10504000A161002D18D4A1688A408069A168E2603E
:1050500005F0C0FC206405F047FBEFF31185064620
:10506000202080F31188204605F0F8F885F3118898
:10507000304604F0C5F905E0E160C018214620641F
:1050800004F042FE002070BD419D00008D7D0000B7
:105090000817002048B40000F8B50E46054614462F
:1050A000A969EA691F462046FFF7DAFB64602FB161
:1050B000EA6920463946082302F0E4F8E468D6B9E4
:1050C000E8686969AA68079B05F0C0FC071C08BF6F
:1050D000002020D005F0AEFC696839606968496835
:1050E0007960696849680F6069684F6005F004FB82
:1050F00007F1080605E06A6930460021083A00F029
:105100008BF82868B0F1FF3F18BF3060286908B1FC
:10511000616831503046F8BD2DE9F043ADF13C0DEA
:1051200005F0E2FA1A4C184D002680461C3C6846F1
:1051300000213C22082305F071FC54F8042F686814
:10514000AF6806902B680897694605920F4804934C
:10515000002202F077FA071C10D004F036FE8146D8
:10516000384601F0D1FD48B1484605F0B2F82D1D92
:10517000761CDCD0404604F043F901E002F098F9D7
:105180000FB0BDE8F083C0465CAC000079A500001C
:10519000401500201CB5042004F0BAFC022818D0E9
:1051A000032816D016480068C0F38150032814BFA6
:1051B00041F288324FF47A721248144C0168543428
:1051C0002046B2FBF1F105F02DFD204605F0B8F8C0
:1051D0001CBD03200C4C009000214FF040521C23BA
:1051E000204601F00BFF012000214FF4007209233B
:1051F0000090204601F002FF022003F039FB1CBDA5
:10520000B43F005034B4000000A00C40141400203F
:10521000002213460A46194671B510F0030F0BD051
:10522000002A82BF00F8011BB2F1010210F0030F47
:10523000F6D1002A08BF71BD11F0FF0141EA01213A
:10524000042A18D341EA0141082A0FD30E46102A36
:1052500008D30C460D46B2F10F0312F00F0272C0D4
:10526000103BFCD812F0080F18BF42C012F0040F18
:1052700018BF40F8041B12F0020F18BF20F8021BE1
:1052800012F0010F18BF017071BD70470246184837
:1052900008B50068C0F3046005F077FA00EB2270EF
:1052A000401C162805DA10F10A0FB8BF6FF009008C
:1052B00000E015200F49104B00F01F0040F4F8509B
:1052C00008801868800803D20C490020086001E0BB
:1052D00042F040620A49D00E930E80F0010000F0C7
:1052E0000100086083F0010000F00100886008BD43
:1052F000B81200506E6208400000094094042A432E
:1053000000002043FEB51C4D0C462D1FE9680646E3
:1053100005F012F940082CD330460821002204F091
:10532000B1FB0746019727B32A4602F1200010215E
:10533000083205F0C5F808254089ADF80250ADF8EF
:10534000000022783A702188019809124170A178F2
:1053500081706188231D0912C1701968051D3046CE
:105360002960694604F024FD18B168461B2104F049
:1053700097FB05F019F8FEBDD81100202DE9F04784
:1053800080461A481A4C00682418204605F04EFC46
:105390000E464FF0FF374FF0000A814621E04D46A0
:1053A000284605F045FC8146A88A012819D1B8F1A4
:1053B000010F0ED1E86886420BD12869002808BF8A
:1053C000A5F814A002D0E9684018E860A969E86966
:1053D0008847A88A012804D1E868801B874288BFD3
:1053E000071C4C45DBD13846BDE8F08730B40000DF
:1053F000401800202DE9F84F061C2FD01848DFF880
:10540000649001780024824626E0A00036F80080EF
:105410004FF6FF77351847451AD0AF78C7B109F175
:10542000140009F10302112105F04AF85FEA000BAC
:105430000ED0780804D3404601215A4600F07EFA87
:10544000A878800804D3288802215A4600F076FA0A
:105450009AF80010641CE4B2A142D6DCBDE8F88FD3
:1054600020090020AC10002038B5054601201A4C58
:1054700068712879B0B904F0A8FC2178002904BF2C
:105480006FF00704051C15D0491EC9B2217039B947
:1054900004F01FFF606803F09BFB0020687118E0B8
:1054A000054613E004F091FC05462078FF2805D15D
:1054B0006FF00604284604F00CFF0BE0401CC0B25D
:1054C0000128207002D1606803F099FB284604F09F
:1054D00000FF0024204638BDB018002070B50646F5
:1054E000B079F5680628A5F108052CDA3079062888
:1054F00029DA04F06AFC154CB27991000C3401EB06
:10550000C20161184968E1B104F0E3FE3079287006
:10551000B0796870307AA870B179880000EBC1006A
:105520002018F1684068083003F062FCB179880007
:1055300000EBC10024186068406800F009FC0020FE
:1055400070BD04F0C6FE6FF0020070BD641500204F
:1055500038B519491A4C00204822C1F8F30F94F8C5
:10556000E200C1F8FF2F20B3012817D0022807D08E
:1055700003281ED151F8310C00F024F80B2016E05E
:1055800051F8315C2846FCF785FD40F2FF50A842F7
:1055900002D8801CA842F1D2082008E051F8310C52
:1055A00000F0C8FC054800780028E7D0052084F802
:1055B000E400FDF7E3F838BD39400C408AB3000041
:1055C0001414002038B51A4CA0F5C060D4F8B810F7
:1055D000C4F8D4000029B8BF49420028B8BF4042EF
:1055E000814220DAB4F8BC00124D30214FF47F42E2
:1055F00008230090284601F001FDB4F8C000042102
:105600004FF4F80212230090284601F0F7FCB4F89A
:10561000D00020214FF440620A230090284601F078
:10562000EDFC012000E0002084F8D80038BDC04621
:105630001414002000A00C402DE9FF410E46054641
:10564000194C7188E08A81420CDCB188814209DB07
:10565000F088218B884205D13089618B884208BF50
:1056600018271DD0052002F0CFF97788B388ADF850
:105670000270F288ADF804303189ADF8062080461A
:10568000ADF80810A08AADF80000684605F006F9EC
:10569000071C05D1A57304F1F000414602F004FC9B
:1056A00038460090BDE8FF81200900201A4898B5CF
:1056B000D0F8781203680F0F03F0FF03802B28BF88
:1056C000002301F077FC4FF0FF3478B1401E07D083
:1056D000401E012802D9801E19D01AE0BFB118E07F
:1056E000381C12D0801E14D1143311E03846401EED
:1056F0000BD0801E07D0001F03D0401E09D11633E7
:1057000006E0152405E0142403E00A2401E00A332E
:105710005CB2204698BDC046A01000502DE9FC4167
:1057200017460E4605464FF0020801F0A1FA50BB9D
:1057300003F00EF838BB05F0FF04C4F58074B442E2
:1057400088BF341C8DF800808DF80350280C8DF82C
:105750000100280A8DF8020004F05EFF684604216B
:1057600003F0E6F8361B651920B93846214603F0E8
:10577000DFF818B104F048FFBDE8FC8104F044FFF5
:10578000E719002ED1D1BDE8FC817047F8B5174A62
:10579000174B184C121D22F003019C4621605E1A23
:1057A0002068256860606768A660002001E025F831
:1057B000020BAB42FBD84FF6FC75B3102A4001EB4D
:1057C000830323F8040CACEB0202E82315403B8072
:1057D000EC3DA1F8E850E83144F8081CFFF7D6FA90
:1057E00044F8040C606844F8080CF8BD3225002029
:1057F000484100204015002038B504461848174D90
:10580000C03002686B68C2F30351C2F303405B0807
:1058100013D22B681D0511EB257103D41029A8BFE5
:105820000F2100E000211B0410EB237303D4102B85
:10583000A8BF0F2300E00023184640EA011002F43D
:105840007F4102F0FF03222C41EA004143EA0100BC
:1058500024BF02F08042104338BDC046AC3F005028
:10586000B812005030B5401E4FF00004ADF12C0DC1
:105870000AD0401E04D0401E20D1FCF77FFF1DE05F
:1058800000F064FE044619E001A821462422082302
:1058900005F09AF806940D4DADF8144009490794A7
:1058A000012201AB05F1780002F03CFE064A2346D6
:1058B0002C2105F19C00009302F04AFA20460BB01F
:1058C00030BDC046755E0000515500001414002024
:1058D00038B50546880F26D302F00EF9124804F0B9
:1058E000CBFF1548801C0078012803D005F1380053
:1058F00000F02EFA0D4800240460022002F0B8FFE8
:105900001120FDF7A5FF287C10B90E20FDF7A0FFA0
:105910000748084A04721178447221B11470C830E3
:10592000042104F08FFC38BDB93E00000000046083
:10593000400C002030250020400C0020F0B50E4621
:1059400015460746ADF11C0D4FF6FF7103AA04F092
:1059500099F8024605921AB300200090BDF80C0099
:10596000FF240DF11203294601903846029400F0FD
:10597000DDFC041C0FD16889ADF81000700804D359
:10598000384604A904F014FA03E0384604A904F0E8
:10599000CBFE041C05D004A81B2104F081F800E014
:1059A0001524204607B0F0BD2DE9FF419846074673
:1059B0000C461346404604F069FC054613B905F051
:1059C0004BF80346002F12BF381C0F4800681A46D8
:1059D0002146434605F06FF8061C10D11DB940461C
:1059E00004F054FC58B90A48006800900197074D2C
:1059F0000294298800223423404604F0AFF930464F
:105A00000090BDE8FF81C04678B40000AAB4000051
:105A100060B400002DE9F041054615F8017B904681
:105A20000E461CE0B8F1000F05F101050BD0FF2C6C
:105A300009D8022015F8011B401E41EA0424F9D1BF
:105A400001E0042C02D315F8011B00E03946304672
:105A50002246FFF7E1FBA61901E006F8010B15F855
:105A6000010B8742F9D115F8014B002CE9D115F84B
:105A7000010B2C7800022418D4D1BDE8F0817047C6
:105A80000146184880B5983000688A0CC0F38367D7
:105A9000C0F38F2022D241F3072100290BD54A42BF
:105AA0000021400805D17F0806BF0127381C4FF6AA
:105AB000FF70521EF5D1002910DD4FF6FF72400035
:105AC00040F00100824207D2780040F001070F2F1A
:105AD00092BF01200F27101C491EF0D140EA074059
:105AE00080BDC046B8120050164880B507683FB365
:105AF00015498B6803EA5300C00E21D2134A10687F
:105B000080081DD2486880081AD21068096810F011
:105B1000050F4FEA114101F0F00101F5E0710AD1E2
:105B2000B9420DD2190F38BF40F00100D90E38BF6D
:105B300040F0040003E0B94202D920F005001060F3
:105B400080BDC04628500940AC3F005000000940CD
:105B50001FB5044601F0BAFD48B316480078022884
:105B600004D0032818BF4FF4F02001D14FF4F220E5
:105B700010216A4601F0CAFD02F0D2FDBDF8060010
:105B80006080BDF80400FF2808BF002002A9208023
:105B90000968201D0160FF219DF80C30E1729DF81D
:105BA0000E206372BDF80C00A272001220720090E9
:105BB0001FBDC046A0180020B0B5184C0546208C6B
:105BC000002701281BD1A08BC8B9A068012105F0CE
:105BD0001FF82168421A23686169C91A91420ED3DD
:105BE0000127A968AA68AF824118E9606169091AAA
:105BF000914211D9E968104604F05CF8B0BD5FB974
:105C000003F088FEA78BA968012F0844E8604FF0D5
:105C10000100A88208BFE083B0BDC0464018002044
:105C2000F8B570BB174C606848B3002080F311884A
:105C3000202080F31188606863692669F825B0FA2E
:105C400080F0A5EBC0001B1805E06369B0FA80F096
:105C5000A5EBC0001B189E4211D2184604F0C0FEEE
:105C60000746184604F0F3FD18B1B9696068884327
:105C70006060384600F01AFD60680028E5D1002019
:105C80002080F8BDA81300202DE9F041071C0E4626
:105C900004D0144C2068F5B2A84202D80220BDE816
:105CA000F08104F124004FF0FF318046FDF7D4FF6E
:105CB00004EB85049434206860B979680120A84019
:105CC00027603246084308497860384603F02AF9CD
:105CD000002400E00124404600F03AF82046BDE8E8
:105CE000F081C04618230020007FC7672DE9F843E4
:105CF0008146EFF31188202080F311880125114E91
:105D0000114CF561114F6560F86A016A14208847EB
:105D1000D9F81000810C14BF000C0420A061386871
:105D20000268232100209047C6F88052206820F4A2
:105D3000C02040F480302060356088F31188BDE8D1
:105D4000F883C0460000244300200940840100106D
:105D5000034670B52020EFF3118480F311881448B6
:105D600000681D18181804F072FDB0B904F0BCFCEE
:105D70000646284604F034FE054601202874E868EB
:105D800008B103F0D7FDA868214603F07BF984F33E
:105D90001188304603F034FB70BD187A40083ABFD2
:105DA0005889401C0120588184F3118870BDC04679
:105DB00040B40000D0B5044604F036FE00F0A4FF65
:105DC000071C08BF6FF002041FD003F0FEFF01465E
:105DD000A2880F480023243030F80C6F5EB902808F
:105DE0004760A268826023737868206100240846B7
:105DF00004F06FFA09E0964208BF6FF00204F6D093
:105E00005B1C062BE8D301F053FB2046D0BDC046F7
:105E1000401500202DE9FC41154E0D4606F11404F5
:105E20002168804604F088FB093C4008F5721DD3C8
:105E300040460121002203F025FE07460197AFB13D
:105E4000304610212246203004F03AFB40890126DA
:105E5000ADF800006946ADF8026040463D7003F0C1
:105E6000A7FF18B168461B2103F01AFEBDE8FC81AC
:105E7000D41100201648144A144908B5E4300078BB
:105E8000801E0A2807D8DFE800F018141006141046
:105E90000614100609C004F0DFFE11E01068800847
:105EA000FCD250688008FCD20AE008688008FCD365
:105EB00006E008688008FCD202E010688008FCD385
