:10000000E03E0020914D000001CA011001CA01101C
:1000100001CA011001CA011001CA011001CA011070
:1000200001CA011001CA011001CA011001CA011060
:1000300001CA011001CA01103FCA0110F8B50D46EE
:10004000EEB2290824BF26494D40264BB400195969
:1000500085EA01020240C2F3006C234A00EA050768
:100060008143FF323A4000F4E0270A43B7F5E02F1E
:1000700001D1510E15D300F4E0215CEA010710D044
:1000800002F4E027B7F5A02707D0B7F5803704BF03
:1000900022F4003242F4A02203E022F4803242F43F
:1000A000C0221A51114CC10D04D3A4F18001C5F333
:1000B00080528A55000E11D300F01AF8290E03D28F
:1000C00001210022B14002E00121B1400A46503432
:1000D00023688B431A43226000F00EF8F8BDC04637
:1000E000006000A000100840007F077F80200240D1
:1000F000DFF800F049C10110DFF800F019C201106B
:100100003C0000000000000000000000340100007E
:1001100000000000000000000100000000000000DE
:1001200000000000000000000000000001000000CE
:100130000000000008000000000000003400000083
:100140000000000000000000680100000000000046
:10015000000000000100000000000000010000009D
:100160000000000000000000080000000000000087
:1001700030000000000000000000000098010000B6
:10018000040000000000000001000000FFFFFFFF6E
:10019000FF00000001000000080000000000000057
:1001A0002C0000000000000000000000C40100005E
:1001B000040000000000000001000000FFFFFFFF3E
:1001C000FFFFFFFF080000000000000034050000F2
:1001D000E401000099A1011095A70110A5C201102A
:1001E00009B2011045B80110000000000000000035
:1001F0002F000000280000000000000000000000A8
:10020000140200000000000000000000FFFFFFFFDC
:1002100000000000080000000000000030050000A1
:100220003002000069C201106DC101101FC201102F
:1002300095BA011000000000000000002D00000031
:10024000300500005402000075C20110A9B601106B
:100250009DBF011049B60110000000000000000021
:100260002E0000002400000000000000000000003C
:1002700080020000000000000000000000000000FC
:100280000800000000000000240000000000000042
:1002900000000000A40200000000000000000000B8
:1002A0000000000008000000000000002400000022
:1002B0000000000000000000C80200000000000074
:1002C0000100000000000000080000000000000025
:1002D00000000000E8110020040000000000000001
:1002E000000000002000000070010000300000004D
:1002F0001C02000014120020040000000000000096
:10030000000000000C000000300400001800000095
:100310004002000020120020040000000000000045
:100320000000000024000000480400001800000045
:10033000000000002812002004000000000000005F
:100340000000000010000000A00100002C000000D0
:10035000CC0100003012002004000000000000006A
:1003600000000000200000006402000024000000E3
:10037000FFFFFFFF501200200400000000000000FB
:100380000000000028000000880200002400000097
:10039000FFFFFFFF801200200400000000000000AB
:1003A00000000000580000003C0100003400000084
:1003B000FFFFFFFF88120020040000000000000083
:1003C00000000000100000006004000018000000A1
:1003D000FFFFFFFF9012002004000000000000005B
:1003E000000000001C000000AC020000240000001F
:1003F000FFFFFFFF98120020040000000000000033
:100400000000000038000000F40100002800000097
:10041000FFFFFFFFA012002004000000000000000A
:100420000000000054000000000100003C0000003B
:100430001800000000000000000000004004000060
:10044000080000000000000018000000000000008C
:100450000000000058040000080000000000000038
:100460001800000000000000000000007004000000
:100470000800000000000000010000007878000083
:1004800006F0A0BD0100000000000E0000000F00FB
:100490003200000001000000F01100200002000006
:1004A0000000000001CA0110000000000000000070
:1004B0000800000000002300781400200100000064
:1004C00038120020080000000000000000000000BA
:1004D000000000000000000000000000010000001B
:1004E000E01400200600000001000000E4130020DA
:1004F00000000000000000000002000000000000FA
:1005000070472900010025002D002E002F0001005A
:1005100001000000030000005C7800000000000003
:1005200000000000000001000000030087C401106B
:1005300038050000380500000000000090000000B1
:100540009000000000000000381200208B6F0000B7
:10055000200000001C780000947700000DC30110FB
:1005600007610000D363000099C801109BC8011007
:10057000000000009377000010770000287700004B
:10058000F8760000080009000100000001000000EA
:10059000000000000000000000000000000000005B
:1005A000F37300008554000061630000A95B000044
:1005B00095590000D95B00005D400000A17100006A
:1005C0006944000011C8011021C801100800000092
:1005D0002400000018000000280000002000000097
:1005E0003C0000000C000000340000002DE9FE4338
:1005F000AF4C0F460646F80B80F03581B80880F006
:10060000C7806069B90F67D2A07A002848D138093D
:1006100048D30025657001262672284603F071F93B
:10062000A44806F0C5FDA4492A4604F14C0006F092
:10063000CDFE607901281AD1A079C0B99F4E3068EB
:1006400070B106F01DFC6169236A3268401A000B24
:10065000E061C018B0EBC21F28BF256208D220623B
:1006600004F1C8004FF0005106F098FB31E06671CC
:1006700004F1380140F60900088094F8450000F0C4
:10068000F00040F0010084F84500658794F84400CC
:1006900000F0F00084F84400E563894E316018E012
:1006A000380914D2B80BC0F0FB8004F1280006F022
:1006B0009CFE061C08D0706830B17568F068B6F909
:1006C0001C1082A20CCAA84727F40057E8E00020BB
:1006D000A07227F00807E3E0D8B1042006F0DCF8A8
:1006E000B8B106F0CDFBA0616169814226BF401A16
:1006F000401E401A000BF060F06840F6C41100F58F
:100700008D708142F06003D340F2EE22824200D924
:10071000F1600025D6F818C06561BCF1000F0FD05C
:1007200094F8450010F00F0F0AD1708C40F60901C3
:10073000814205D167A20CCA30466FF48071E04750
:10074000604904F14C002A4606F040FEA07950B101
:100750000220ADF80000684605F096FFA571BDF8CF
:100760000800A4F8A000012060702079A846401C71
:100770002071192084F8078006F084FC756925B182
:1007800056A20CCA30464146A84727F0005787E0DA
:1007900004F13009484606F028FE061C5AD004F041
:1007A0008DFE4FF00008B269C6F818807068B8B1C5
:1007B000F07F42F00202002300F00700401E07D045
:1007C000401E03D0801E06D146A002E047A000E0F4
:1007D00048A090E80C007568F068B6F91C10A847AE
:1007E000FFF786FC0546B4F93600401C6FF31F3056
:1007F000E086206B1F30017801F07F0101704846D0
:1008000006F040FA2846FFF777FCF068B0F994103C
:10081000B4F9362091421DD1217801291AD090F8DF
:10082000965095B9056885B1E1680968B1F1FF3F57
:1008300010D0254909687030B5FBF1F106F072FE61
:10084000F068703006F06AFE04E080F8968040465A
:1008500003F0AEFD484606F0C8FD27F0020708B1D8
:1008600047F002071CE0FFF743FC014604F12C00AF
:1008700006F0BBFD0646B5690846FFF73DFCA80833
:100880000CD25EB1B069A843B061706830B12A463D
:10089000F068B6F91C1075680023A84727F4804754
:1008A00027B104F1C800394606F078FABDE8FE83A6
:1008B000400B0020E93D0000896400001420002066
:1008C000001004402924000070780000000000009F
:1008D00020000000000000000000000200000000F6
:1008E00000000004000000000000001000000000F4
:1008F000000000400000000000000020F0B5ADF155
:100900001C0D05F03DFC06F0C9F9934E706202F033
:10091000F9FF924C4FF4FA724FF4805306F1A400A1
:10092000214604F063F98E4947F23052002306F164
:10093000C80004F05BF94FF4FA724FF4006306F15B
:10094000EC00214604F052F906204FF4486104F00F
:10095000EBFD07204FF4486104F0E6FD08204FF45A
:10096000486104F0E1FD09204FF4486104F0DCFD2A
:100970000A204FF4486104F0D7FD0B204FF4486182
:1009800004F0D2FD02207D2104F0CEFD0C20502188
:1009900004F0CAFD0D20502104F0C6FD0E205021A8
:1009A00004F0C2FD0F20502104F0BEFD10205021A4
:1009B00004F0BAFD1120502104F0B6FD12205021A0
:1009C00004F0B2FD1320502104F0AEFD1720502199
:1009D00004F0AAFD1820502104F0A6FD1520C8211E
:1009E00004F0A2FD1620C82104F09EFD19204FF44A
:1009F0007A7104F099FD1A20002104F095FD06F0AB
:100A000088FC01245020ADF8040000258DF800403A
:100A10004FF44877ADF802504FF47A73ADF80850B0
:100A20006A46ADF806702146ADF80A3040F205304E
:100A300001F0A6FA40F2063002210DF1020201F0A7
:100A40009FFA06F160024FF44270112101F098FA0A
:100A500006F1450240F20730072101F091FA40F219
:100A60001130022101AA01F08BFA40F2123002216A
:100A70000DF1060201F084FA40F21330022102AABD
:100A800001F07EFA4FF4457002210DF10A0201F0E7
:100A900077FA1E20214603AA8DF80C0040F204408C
:100AA00001F06EFA86F8ED5186F8EE5105F0E2FF9E
:100AB00006F096FB06F045FC06F08DFC06F0D6F934
:100AC00005F0D6FB02278DF80D4003268DF80E7039
:100AD00004208DF80F600DF10D018DF810002846EF
:100AE00004F040FE20460DF10E0104F03BFE3846B6
:100AF0000DF10F0104F036FE304604A904F032FE79
:100B000006F0E6F905F000FB06F00BFC04F026FD0C
:100B10008DF8115028468DF812008DF813000DF154
:100B200011018DF814004FF4806004F0E3FC40F2F2
:100B300002400DF1120104F0DDFC40F203400DF122
:100B4000130104F0D7FC40F2064005A904F0D2FCE2
:100B500005F012F907B0F0BD180200201D6D00006D
:100B6000997200002DE9FE4FFFF7C8FE944E002455
:100B70004FF0010A4FF6FF7B2546A046B8E0C10BB7
:100B8000CF033BD1C10B4DD320F48040708186F858
:100B90000580A027A6F81280721D5146378240F2C8
:100BA000053001F0EDF906F1140240F2073003219F
:100BB00001F0E6F9318A062004F0B6FC318A0720FC
:100BC00004F0B2FC318A082004F0AEFC318A09201E
:100BD00004F0AAFC318A0A2004F0A6FC318A0B201A
:100BE00004F0A2FC402005F0DDF85046721D0146DD
:100BF000707140F21B3001F0C3F912E06FF3DF3087
:100C000047467081721D5146777140F2053001F000
:100C1000B7F906F1C80047F2305104F0C3FB05F004
:100C200069FC7089810B33D320F4005070814FF43C
:100C300048777571721D5146378240F21B3001F0C2
:100C40009FF906F1860240F207301D2101F098F964
:100C5000318A062004F068FC318A072004F064FC25
:100C6000318A082004F060FC318A092004F05CFC21
:100C7000318A0A2004F058FC318A0B2004F054FC1D
:100C8000757006F1A4004FF4FA7104F08BFB7089C3
:100C9000410B2DD320F4805006F2ED1270811078B4
:100CA0007470771D401C86F8ED01C0B2142817D16E
:100CB00096F8EE0196F8EC3186F8ED41401C86F886
:100CC000EE01C3EBC300801980F8664196F8EE018F
:100CD000082805D186F8EE418020A22104F076FD97
:100CE00086F805A040F2053051463A4601F048F931
:100CF00005F0B6FD0028FBD101940DF10200694614
:100D000001AA04F0AFFF00284AD1BDF80200D14685
:100D1000102833D1B0789DF8001088422ED1019868
:100D20000188871C8B4526D14088C00801D304F078
:100D30008DFB3888C00921D3708A401C80B264289A
:100D400070821BD3404605F02DF87571721D40F27C
:100D50001B30494601F014F996F8EC01C0EBC000D5
:100D6000801980F866A1708940F400507081306A63
:100D700006F0D0FB02E005F038FD8146019878B11D
:100D8000B9F1000F0CD005F0D5FE09E0706A05F04E
:100D900045FE071C04D003F0BCFE384605F09AFE61
:100DA000706A06F0B3FB0028F0D07089010BFFF4E5
:100DB000E6AE20F40060708106F094F8BDE8FE8F86
:100DC000180200202DE9FE4F0546894CA87861786D
:100DD000002800F09980401E65D0001F5AD0401EA8
:100DE00036D0C01F40F0028194F8ED11681D062234
:100DF000C1EBC101091901F5B07105F0C3FB00BBDE
:100E0000287B03281DD1FFF73BFB04F1C8004FF4FA
:100E1000FA7104F0C7FA95F90B70228977B178421C
:100E2000C1B2A369E0886429A4BF521C228109DAF7
:100E3000C918401CA16180B2E08003E0521C90B24E
:100E40002081E088642824BF00206070BDE8FE8F08
:100E5000012900F0CB80281D04F13E01062205F097
:100E600091FB002840F0C280002001218DF8000095
:100E70006A46617040F2053001F082F894F8ED1195
:100E800094F8EC216089914214BF40F4004040F492
:100E900080402FE06878002840F0A880688906F03C
:100EA00098FABDE8FE8F01292AD0E088B0B12189E7
:100EB0000A2913D8A16994F8ED2194F8EE7194F8F9
:100EC000ED5104F2EF16B1FBF0F0C1B207EBC20036
:100ED0003154601980F88F10002005E094F8ED116E
:100EE0000020611881F88F00E080A0612081608976
:100EF00040F400506081206A06F00CFBBDE8FE8FD4
:100F000005F0F8FABDE8FE8F6889A081E81C06F0BC
:100F100049F805F0A3FD00274FF0300B3E46DA46B6
:100F2000D946D846312504F138000190012F5DD013
:100F3000C6EBC60104F5B07040180199062205F011
:100F400021FB00284FD1F0B284F8EC6104F160027B
:100F5000132842D8DFE800F03D393732302C2A28F8
:100F60002623211E1B161412100E0C0A39270AE024
:100F7000382708E0372706E0362704E0352702E067
:100F8000342700E0332728469071D77125E095710A
:100F9000322016E09571D5711FE05F46F3E73927DF
:100FA0005846F1E73827FBE73727F9E7362000E016
:100FB000352082F806B004E0342000E0332082F8C7
:100FC00006A0D07109E0322000E0284682F80690A1
:100FD000F7E782F8068082F807804FF4427011210B
:100FE00000F0CEFF0127761C142E9FD3BDE8FE8FA4
:100FF000180200202DE9F04F0128ADF1140D40F04A
:10100000F280DFF81492D9F8DC00012840F0E98082
:101010000220C9F8DC0006F075FA0290012003F006
:101020002DFE20B101210646C9F8DC10D5E006F0FE
:1010300065FA03906E484FF00008C0F80080012068
:1010400005F02AFC012818BFCDF8008004D14046E5
:1010500003F0BCFA0120009066486E4CC0F8008096
:101060001934D4F8FF0F112006F0F8F800280CBF4F
:1010700046460126102006F0F1F808B146F00206B7
:101080000F2006F0EBF808B146F004060B2006F03E
:10109000E5F830B1584800685849006B02460888A6
:1010A00090470A2006F0DAF80028404618BF0120D1
:1010B0004FF0805B0BF5DC7528B128685049006B58
:1010C0000246088890474F480127076028688069D2
:1010D000014646F0200088474B48076006F0B8F804
:1010E00000F001010191400815D2484806F00BF8C4
:1010F0008246BAF1040FF8D0BAF1010F06D1DBF83D
:10110000D801406802464148032190474049086899
:1011100020F003000860404600F080F82868D4F80A
:10112000FF1F806B8047019801280ED0BAF1010F94
:1011300006D1DBF8D801406802463448394690476A
:101140003349086840F0030008602A4807602868AF
:1011500040690146304688470B2006F07FF828B1E9
:1011600028682649C06A0246088890470A2006F087
:1011700075F828B128682249C06A02460888904755
:10118000204807600322C9F8DC201F4BC3F8008009
:101190002868406B0146304688470128F8D1042072
:1011A00003F06CFD124807601A48D4F8FF1F01686D
:1011B0008909FCD30098012802D1384603F006FAC9
:1011C00006F040F8082003F059FD06460398C9F8D8
:1011D000DC7006F08FF903F08FF8029806F086F9BC
:1011E00002E0042600E00126304605B0BDE8F08F9D
:1011F0000C40094000022243B80100108E76000026
:101200008A760000282008608001044300400340E3
:101210002422084014100940D01000202DE9F84F76
:1012200082467A48DFF8D89135380068800880F027
:10123000D88004F0CDFF054678480830D0F800800B
:1012400000244FEA2876761C5FEA98500AD2C5F14E
:101250003E0015F10A0F4FEAE000D8BF0820864291
:10126000B8BF061C634FD7F87C01C0F3046005F0DB
:1012700043FF83463868C0F3044005F03DFF06EBAA
:101280000B020090162A05DA12F10A0FB8BF6FF0B0
:10129000090200E01522584B584F02F01F0141F49B
:1012A000F8511980396811F0030F18BF0124C908DB
:1012B00028BF44F00204BAF1000F18BF44F0040440
:1012C000494691F90730EB1A052B04DA8B79A342D2
:1012D00008BF888864D0DFF82CE10F2DA5F10F0C32
:1012E00025DB0CEB0513A3F1F00C4FEA2C27072F9D
:1012F00088BF07273E46062E88BF06265EF82600D2
:10130000042303EB86037646F3581B1A03F0FF060B
:10131000E00824BFC3F307200644A00824BFC3F39A
:1013200007400644600828BF06EB136601E000266C
:1013300037465EF827E0E0080EF0FF0324BFCEF347
:1013400007200344A00824BFCEF3074003446008ED
:1013500028BF03EB1E630098B6B2ACEB07277E43B1
:10136000801A06F1800603EB1623D8BF0120342231
:1013700008F0FF0742437A43B2FBF3F04FF6FF72E7
:10138000824238BF101C802D80B2888005DA15F1AA
:10139000800FB8BF6FF07F0500E07F25CD718C71A5
:1013A000194A12681F280A604FF0000208D340F261
:1013B000FF11814206D24008521C8142FBD301E05A
:1013C0001F208880124F11490F38000942EAC002DD
:1013D00047EA0200C1F8FB0F0026C1F8FF6FBDE825
:1013E000F88F0D4F0B4E494608203760891D087055
:1013F000BDE8F88F3C1100506E620840242208407E
:101400000C2000209C1300500820094035000940A2
:1014100000E7A48030100940FDFDA400AC3F00505F
:101420002DE9F0411C4615468C4208BF854282BF1B
:1014300000230022E5E0002C08BF002D0AD100297E
:101440000EBF00286FF000006FF0000100F0E1F81F
:10145000BDE8F0815FF000085FF0000E002C08BFCF
:101460008D429CBF2C1C0025070C47EA01470E0C3F
:10147000B44208BFBD429EBF5FEA044444EA15443B
:101480005FEA0545070A47EA01670E0AB44208BF4A
:10149000BD429EBF5FEA042444EA15645FEA052565
:1014A000470847EAC1774E08B44208BFBD4200F280
:1014B0009380870847EA81778E08B44208BFBD420F
:1014C0007CD8C70847EA4177CE08B44208BFBD427E
:1014D00066D8070947EA01770E09B44208BFBD4242
:1014E00050D8470947EAC1674E09B44208BFBD4218
:1014F0003AD8870947EA81678E09B44208BFBD42DE
:1015000024D8C70947EA4167CE09B44208BFBD42A3
:101510000DD8E60146EA5566EF01B14208BFB84270
:1015200001D3C01BB14158EB08085EEB0E0EA601BB
:1015300046EA95664FEA8517B14208BFB84201D323
:10154000C01BB14158EB08084EEB0E0E660146EA8F
:10155000D5666F01B14208BFB84201D3C01BB1418B
:1015600058EB08084EEB0E0E260146EA15762F01C1
:10157000B14208BFB84201D3C01BB14158EB0808C3
:101580005EEB0E0EE60046EA5576EF00B14208BF6C
:10159000B84201D3C01BB14158EB08084EEB0E0E08
:1015A000A60046EA9576AF00B14208BFB84201D323
:1015B000C01BB14158EB08084EEB0E0E660046EA20
:1015C000D5766F00B14208BFB84201D3C01BB1410C
:1015D00058EB08085EEB0E0EA14208BFA84201D3EB
:1015E000401BA14158EB08085EEB0E0EA34208BF5A
:1015F000AA423EBF2D0A45EA0465240A89D37346F0
:1016000042461E4617460B46024631463846BDE85E
:10161000F08170472DE9F843814605F00DFE002169
:1016200000B901216B4E30680028FCD06C4D0124BC
:101630002D1DEF6A346009B105F004FEDFF89881D2
:10164000C7F3072008F1BC01086005F0F5FD002193
:1016500000B9214630680028FCD02F68346009B1F9
:1016600005F0F0FDC7F38440C8F8C00005F0E4FDC4
:101670000146002001B92046014630680028FCD010
:10168000ED69346009B105F0DDFDC5F38120C8F8CE
:10169000D000B9F5C061C8F8B81000F0968098F88D
:1016A000D80068B9C8F8D410D8F8C000C8F8C80085
:1016B000D8F8BC70C8F8C470D8F8D060C8F8CC604E
:1016C000D8F8D410D8F8BC60002954BF02206FF0BD
:1016D0000100454605F1C8031A6801EB41014018B5
:1016E000411000EB917002EBA0021A60D5F8C8100F
:1016F000C5F8C46000291CDD1E293DDDD5F8CC00ED
:1017000030B93429B4BF15391E21C5F8C81025E0F9
:101710002A29BABFD5F8C8000B381E20C5F8C80062
:10172000D5F8C4003F28B4BF401C3F20C5F8C40012
:101730001FE0D5F8CC00032812D011F10B0FC6BF63
:10174000D5F8C8000B30201CC5F8C800D5F8C40077
:101750000028CCBF401E0020C5F8C400032009E0CB
:1017600011F1150FC6BFD5F8C8001530201CC5F8FB
:10177000C8000020C5F8CC00B5F8C400174E3021D1
:101780004FF47F4208230090304603F00BFA009498
:1017900004214FF400321123304603F003FAB5F868
:1017A000C80004214FF4F80212230090304603F0E1
:1017B000F9F9B5F8CC0020214FF440620A230090DB
:1017C000304603F0EFF9BDE8F883002088F8D80030
:1017D000BDE8F88300800C40D010002000A00C4031
:1017E00000A00C402DE9F04FADF1840D00F08EFD0E
:1017F00003F0B4F90026012804D105F0CBF9022842
:1018000008BF012658490868C0F38150012806D155
:1018100051F80C0C0127010E07FA01F0064353485A
:10182000007804F00DFE524D2C46286038B1FF229E
:1018300004F1400107467F1E01F8012BFBD14D4901
:1018400009684FF0000901F0FF02FE2A1BD0DFF803
:1018500024C101F0FF074A460123FF2F0CD0B842F4
:101860007FD903FA07F73E427BD101F0FF0147EA37
:101870000909611881F840205CF8041F521C01F02E
:10188000FF07FE2FE9D1092001F0F4F839480021C3
:1018900024220823606001A805F024FE4FF001080F
:1018A00004F1240001AA8DF81C80414605F016FEC3
:1018B000236843B3002794354FF0040BBA4608FA67
:1018C00007F0064219D119EA000F04BF07F0FF0123
:1018D00041F4C04105D0E019264990F8400051F884
:1018E00020102548FEF7AAFBF8B24FF0FF3104F0B4
:1018F000FDFF2368C5F800A001E0C5F800B07F1C1B
:101900002D1D9F42DBD30AA800213022082305F0B9
:10191000E1FD0025FF2010210AAB1290174A009527
:1019200004F1080005F0D2FD16A828220823294654
:1019300005F0C8FD04F1600016AA1C9510491D951C
:101940002B4605F0BBFD0F4951F80D0C20F4F85063
:1019500040F4005041F80D0C4746C1F8FF7F0A4E95
:10196000376021B0BDE8F08FB43F00501D2000204B
:10197000201E0020F8750000007FC767096900007D
:101980004D4D00000D300940080009402DE9F84395
:10199000674C04F1240005F028FD15460E46009022
:1019A000FEF7A6FB05F001078146B6F1FF3F0CD11B
:1019B000A06A20B9B4F93600401C06B202E0A06A61
:1019C000B0F91C60002084F8A300304604F0F2FA5D
:1019D0000326002800F09B80A16ADFF84081814245
:1019E00069D0009FB8422ED03FB100990A6890425A
:1019F00009D0096800290091F7D1832E41D04846CB
:101A0000FEF77AFB3DE004F1A40004F0B1FE00987B
:101A10000168AA0802D20A68026008460022026031
:101A20000091009818B94846FEF766FB28E0C17F90
:101A300041F00401C177684605F024F901464046AB
:101A400003F076FEEDE704F1A40004F091FEA8088F
:101A50003ABF606A0068002060624846FEF74CFBAF
:101A60000099C87F40F00400C877684605F00AF97D
:101A70000146404603F05CFE009808B1A808EFD28A
:101A80008326E07988B9207A012843D0244805F0DC
:101A90008FFB022104F1C80005F080F9607801286D
:101AA00038D0204805F084FB34E004F1C80002215E
:101AB00005F074F92EE0A90803D3616A00910026AD
:101AC0006662C27F0121B9401143C17705F016FD5E
:101AD0000446002F14BF1448144804F0D5FD4846AE
:101AE000FEF70AFBA80801D3009820B9204605F0AC
:101AF00001FD83260EE0C17F41F00401C1776846F5
:101B000005F0C0F80146404603F012FEECE74846F7
:101B1000FEF7F2FA3046BDE8F883C046700B0020AD
:101B2000ED050000112C0000010002040100010479
:101B3000400B00202DE9FC415E4C574D574EDFF81D
:101B400060815A4F94F8E410481E0B2861D8DFE8F2
:101B500000F07B2C430623430623430676640429C6
:101B600007D001220A2945F8212C14BF02200320A6
:101B700004E02021012045F8211C024684F8E200FF
:101B8000002045F8390C0827C5F8FF7FC5F8F37F1A
:101B900045F8392CBDE8FC81052914BF0920062031
:101BA000002584F8E400356070E094F8E1700120CD
:101BB000383D002FC5F81B0004BF0620002102D0CD
:101BC0000021F160032084F8E400032045F8010CB3
:101BD00031603068800859D294F8E4000125032868
:101BE0000DD00021404660220523009102F0DAFF6B
:101BF00094F8E400062814BF0A200720D1E7022049
:101C00000090002160220523404602F0CBFF042013
:101C1000C7E705F04FFCBDE8FC81224900262248B9
:101C20000E60012505600E2000F050FE022003F03A
:101C30002BFF84F8E45084F8E360BDE8FC810020C9
:101C400038600C2578601FE019480068006801467C
:101C5000202088472C3D41F61D560F2000214FF4CF
:101C6000C072072345F8010C4046C5F80360022501
:101C7000009502F097FF404600214FF4C072072301
:101C800003F050F90120386084F8E45004F1780042
:101C900005F044FCBDE8FC8139400C4038600C4044
:101CA00000A00C402C500C4004800C4034600C40D0
:101CB000A0010010D01000202DE9F84F9A4693465D
:101CC0000E468146FEF714FA514C0090B4F93610D6
:101CD000B4F934000AAF401A40F6F87101400829FF
:101CE00080F28780B4F93400401C6FF31F30A08667
:101CF000B4F9348004F0F8FC054609F1700004F0F2
:101D000037FDAE6085F81EB0C5F804A0A5F81C80AC
:101D1000C5F80C9097E80C0041A003C8002605F117
:101D200010071040194087E8030004F12400EE7703
:101D30000768002F50D1294603F0FAFC002851D043
:101D4000A9F89480E87F40F08000E87789F89660F1
:101D5000607A40B1607830B10120A0726672277954
:101D6000A671781C20710098FEF7C6F9A06A0028B9
:101D70004BD1607860BBE079012846D0FEF7B8F916
:101D80000646207A00BBA86802F052FE224B214989
:101D9000E2681B68086040B93046FEF7ADF904F10F
:101DA000C800042104F0FAFF2FE00968D26804F1AA
:101DB000A400891AB1FBF3F105F0B4FB04F1A4000F
:101DC00005F0ACFB30461EE0144901200870F9E72D
:101DD000192005F057F918E004F12400294603F012
:101DE000A7FC48B9B4F9340000F6FF706FF31F3058
:101DF000A0866FF0010805E0A9F89480E87F40F024
:101E00008000E8770098FEF777F94046BDE8F88F44
:101E1000400B002014200020707800001C200020BF
:101E2000F1EFFF9F200000002DE9F0410646DFF8AA
:101E30004881524DB2780024ADF1180D101C63D0CA
:101E4000801E48D0401E01282BD9801E0CD0401E79
:101E50007DD0401E02D0401F72D080E005F010FA05
:101E60007078002870D17AE07078711C98B9F07899
:101E70007289337B311D03F0F5F8307B04286ED175
:101E80004046012104706A468DF8001040F205308A
:101E900000F076F863E00878312804BF404604700B
:101EA0005DE07778A7B92846018A0779032A0AD026
:101EB000C27811B9012A52D108E017434FD09430AB
:101EC00003F070FA4BE0002F49D10124C47046E0C2
:101ED0000C2F39D14CE07078771C00283FD1284670
:101EE000F278C1793AB9943005F0C4F848B90120C4
:101EF00004F0F0FE05E000F17502204602F038FC27
:101F00003870387800B32AE0707840BB05F12004BF
:101F10000220102104F1160203F058FC03201021C6
:101F200004F1260203F052FCF01C01682160808855
:101F3000A080697905F15602012002F019FC0EE03B
:101F4000B088317B04F0B7F8012C08D010E0B088DD
:101F50000DF1020103F0C8FDB08804F028FA4046F4
:101F60001930006820B1016811B13046884700E09F
:101F7000012006B0BDE8F0815B0800205808002071
:101F8000F8B50E46A0F201311746022940F28E80C4
:101F9000474D091F082904D9163916D0E9390FD041
:101FA00006E0DFE801F0464071623932832B23C03E
:101FB00028287BDA022E79D1398803F0B5FAF8BDEA
:101FC000012E73D138780C3516E0012E6ED1ED1C40
:101FD000287801286AD069783878687011B90028A3
:101FE0003AD1F8BD3878002860D13BE0012E5DD1B0
:101FF000387804285ADA0B352870F8BD012E55D1EF
:102000003878082852DA0A35F6E7012E4ED13878AA
:1020100004284BDA0935EFE7012E47D13878042838
:1020200044DC0835E8E7022E40D138881035288096
:10203000F8BD012E3AD12879012837D02C463878BE
:10204000E178E07061B988B303F0C8F92178814282
:10205000DCBF0020E07029DD012004F03BFEF8BD6C
:10206000387818BB04F0B6FFF8BD05F175040021FF
:102070001F22204601F00CFC39463246204601F072
:1020800045F8EE7100200DE005F1560400211F22F5
:10209000204601F0FDFB39463246204601F036F875
:1020A0006E7101203146224602F062FBF8BDC04647
:1020B000580800202DE9F041424C474D8046C8F3B6
:1020C0008140401E02D0401E2AD025E02846203004
:1020D0000168880C20D24FF4804020603A48D0F844
:1020E00002204B0AC1F3033703F0800322F08F0272
:1020F000134347EA0302C0F80220D0F801300E1261
:1021000066F30303C0F80130026801F0E70722F02C
:10211000E70247EA020102E04FF000412046016079
:102120002A4E06F108000068C0F3C0070FB940202E
:10213000A0624FF40070206404F084FF40F030008F
:1021400084F8C800C8F3815038B3401E03D0401E45
:102150001ED002211DE0012004F09EFB0746042052
:10216000394602F03FFC042004F096FB8742FAD186
:10217000366826F07F4003F06FFC1548006803685E
:1021800007214FF06022300E98474FF480602060A6
:102190000321042002F026FC06E00420012102F0C5
:1021A00021FC0C4803F058FC284600680B4947F610
:1021B000180700F03F0084F8CB0F094E0F803068FD
:1021C000BDE8F08140A00C400A600840A83F0050E4
:1021D000B4010010BD3786006C13005070B00C4085
:1021E0002C2009402DE9F0430646880FADF1140D6F
:1021F0007FD302F0AFF8434D4FF000081C35C5F80F
:1022000000803D4845F81C0C012001F07AFB3B485A
:1022100004F0CEFF3C48434640F60A0200F1380184
:10222000438790F84440C0F83C8090F845700A809D
:1022300004F0F00480F8444007F0F00444F0010496
:10224000B76880F8454081467B803C1D00E03C1D1E
:10225000276817B138888242F9D12160607A00F08E
:10226000F000607209F1240005F0BFF88068008872
:10227000D21F82421DD0521C82421AD006F1200089
:102280000788B7B196F82C2096F82D70C6F82480F0
:1022900002F0F00286F82C2007F0F00242F0010272
:1022A00086F82D20C9F83C00487B738400F0F000CC
:1022B0004873B068694604F0F7F9684604F0BAFE5E
:1022C000B06801F0FCFD28680028FCD0C5F800804B
:1022D000012004F0E1FA012808D0607A00F0F00053
:1022E00040F001006072064804F062FFB06845F8F3
:1022F0001C0C05B0BDE8F08301010E04ED050000E3
:102300002146000000100440400B00202DE9F04160
:10231000444C94F8E700ADF1280D00286FD1394FF7
:10232000387B01250021242284F8E7507E6884F858
:10233000E6000823C4F80C6101A805F0B7F80026F0
:1023400004F10C00069601ABADF814602E49079617
:10235000324605F0A7F82D4904F1300001AB3246B2
:1023600005F0A0F82A4904F1540001AB324605F00B
:1023700099F8B868014628468847DFF89C802548C8
:102380007B7B0078D8F80410C1F381571BB1032F71
:1023900003D184F8E150032F16D0022F14D0012F5F
:1023A00026D103201D4C009031464FF040521C2393
:1023B000204602F0F7FB009531464FF400720923E6
:1023C000204602F0EFFB13E0022003F075FB032F21
:1023D0000CBF4FF47A7142F2107111480068543406
:1023E000B1FBF0F1204605F09DF8204605F096F887
:1023F000D8F80000C00802D2304603F05DFB0AB0F6
:10240000BDE8F08130780000E34E0000D9320000D2
:10241000913700001D200020B03F005000A00C406C
:1024200070780000D0100020F8B504F0CBFB404ECF
:102430003E4F0446A00823D3B96A09B33D460020A5
:102440000B698A69A86204EA0300104340F00200A5
:1024500006F1080288610B6910689843106001F169
:10246000100090E80C0030681A1C9043306005F1B1
:10247000300003F05DF9022105F1C80004F08EFC84
:10248000B86AA10815D200F110020CCA002122403E
:102490000B40002B08BF002A0BD0016985690C4056
:1024A000F8622C434FF48041846107F1C80004F0C6
:1024B00075FCB86A002837D107F12404204604F0DF
:1024C00094FF051C30D0F868E968884226D1A868D6
:1024D00002F0AEFA17490860E0B906F10801286970
:1024E0000A6810430860326805F1100393E803009E
:1024F000081C1043306000233361A86846F80C0CB8
:1025000006F1100000680028FAD0204604F0BAFB5B
:10251000BD62F8BD086801F04BFFF8BD07F1C800C7
:102520004FF4805104F03AFCF8BDC046400B002047
:102530000C100440142000202DE9F0430646ADF1B4
:102540001C0D04F0ABFF03F06FFA4FF000090546D5
:10255000CDF8009004F0ACFE30F0010002D00098FD
:10256000A84202D16FF0040059E070684C4658B19F
:10257000B0F1FF3F05D001A903F03EFA30B10746A4
:102580004CE04FF0FF3000E02046019004F082FF65
:102590000199012701EB000800E0019368680199A7
:1025A00004F074FF00282ED003A803F00BF8D8B96C
:1025B0009DF8100002A902F0EBFF88B9B368BDF8DE
:1025C00008009DF81210059A984748B19DF81270BE
:1025D000B773BDF80800B081059B33614F4612E028
:1025E0000599684603F04CFC0198641CB0F1FF3F6C
:1025F000D4D00028D2D004F04DFFB8EB000302D0B5
:1026000001989842C9D2009905F1080003F0A4FD91
:1026100024B1686804F07EFF641EFAD1384607B022
:10262000BDE8F083F0B5ADF1340DFFF76FFE304932
:1026300008682822082340F00200086001A8002151
:1026400004F040FF2B4E2C490524002301AA0794D7
:1026500006F1C80004F032FF00213022082301A84F
:1026600004F038FF0025FF271921244AADF81C503B
:1026700001AB099706F14C00009504F027FF2822D2
:10268000082301A8294604F01DFF1D4901AA2B4675
:1026900006F1FC00079404F011FF3022082301A882
:1026A000294604F017FF01241A21164AADF81C40F0
:1026B00001AB099706F16800009504F007FF124985
:1026C0002A4606F1A400134604F0ECFE0F4804F07D
:1026D0006FFDB47186F8A3507571F571357275721E
:1026E000B5724FF6FF7075610DB0A6F8A000F0BD91
:1026F00000200940400B0020656D00008964000047
:10270000D92C000075460000C1620000112C0000A9
:102710007CB50446084601F0D3FB344E024618212E
:10272000304603F005FC04F0D3F840F2FF320023FA
:1027300080B22C210090304602F034FA04F08AFC7A
:102740001C210246304603F0F3FB04F0B3F80246C6
:102750001421304603F0ECFB04F058FA0246102135
:10276000304603F0E5FB204601F0D2FA02460C2188
:10277000304603F0DDFB204604F030FA1C4D4000EB
:1027800040F020002870204604F034FA40F0100099
:102790002870204603F098FF02462821304603F0B7
:1027A000C7FB204604F03EFA400040F06000E870AD
:1027B000204604F043FAC00040F0800005F8080C01
:1027C000204604F047FA800040F47C40A5F89300CE
:1027D000204603F0C3FB02460821304603F0A8FB65
:1027E0004FF48000A5F2091108607CBD00A00C40E8
:1027F00049A10C402DE9F043ADF1140D00F040FE6D
:10280000314C4FF003094FF6FF764FF00008254694
:1028100004F034F840BBCDF8008001A80DF10601AA
:102820006A4603F036FAF8B9BDF80400012710280B
:1028300015D160789DF80610884210D10098018863
:102840008E4209D14088C00B09D3042005F118023B
:10285000014602F0BBFF02E001F08CFE0746009843
:1028600010B10FB104F072F9E089410824D320F0CF
:1028700001002779E178E08157EA01031CD077B99C
:10288000207A677A8DF8070005F126018DF8087027
:102890000A680DF109031A608988998001E08DF8B2
:1028A0000790A07A8DF80F00E77A8DF810700DF17F
:1028B000070004F089FCE0898108A9D320F0020018
:1028C000E08103F021FFA3E7580800202DE9F84339
:1028D0000446FDF70DFC81462D48021992F8ED10D3
:1028E000491ECFB2002F82F8ED704BD12B4D05EB76
:1028F00084052E78698836F07F0788461AD1F10959
:1029000011D24FF08054D4F8B80180690146404696
:10291000884704F5DC742068406B014640468847D0
:102920000228F8D121E000EB8800D0F80011002047
:1029300088471AE04FF08054D4F8B801006A014685
:1029400040468847D4F8B801806A01464046884727
:10295000D4F8B801006B01464046884701210D4A72
:102960000D48116001688908FCD306F03F003F283C
:1029700001D0FFF7ABFF687800F03F003F2801D09F
:10298000FFF7A4FF4846FDF7B7FBBDE8F883C04654
:10299000D010002028200860282008406076000021
:1029A000B0B504466088ADF1180D03F019FB01467F
:1029B0002F48001D027841818A4255DD2379806AC3
:1029C0007F2B51D0CA00815C012941D002290ED051
:1029D000032949D1092B47D12789002F44D0E16829
:1029E0004B780978801801EB0321C1803CE0072B6C
:1029F00014D127896FB1E1684D780978131801EB7C
:102A000005215980E168CD78897801EB052199800D
:102A10002379072B02D161781A2901D0012B23D108
:102A200011184F8807B303238354ADF800708888CA
:102A30000225F123ADF80200FF228DF8045069460B
:102A40008DF8053060888DF8062004F0D3FA0BE08D
:102A5000032B09D105490988ADF8001002278754D6
:102A60006088694602F050F906B0B0BD2E780000CB
:102A7000180200202DE9F0410646FDF739FB2D4DE7
:102A80008046A91991F8ED00421C002881F8ED203C
:102A90004AD1294C04EB8604277807F03F003F28F1
:102AA00001D0FFF7E7FF607800F03F003F2801D03A
:102AB000FFF7E0FF668837F07F001AD1F80911D2DE
:102AC0004FF08054D4F8B801406901463046884739
:102AD00004F5DC742068406B0146304688470128C5
:102AE000F8D121E005EB8605D5F8001101208847D3
:102AF0001AE04FF08054D4F8B801C069014630465E
:102B00008847D4F8B801406A014630468847D4F86F
:102B1000B801C06A0146304688470121074A084883
:102B2000116001688908FCD34046FDF7E5FABDE86D
:102B3000F081C046D0100020607600002820086098
:102B400028200840294A2DE9F041804601262848DE
:102B500016600768002FFCD0294C2A4FC020443C47
:102B6000206007F1080001682348890804D2016841
:102B7000090C41F0F00100E072211E4D85F854125D
:102B8000002111638768384600F0F8FE4046394658
:102B9000FFF7BEFD1C48B038816D40F20F226FF385
:102BA0001F418A4212D901680068C1F30363C0F370
:102BB000034003B15B1E072805D006280EBF07207F
:102BC000801C00F00F0043EA001028703846FFF721
:102BD00071FA0E4814380068C16802208847402006
:102BE0002060064F3E60BDE8F081C04610100940ED
:102BF0009402224302600840AC3F005094046042BB
:102C000044600C40A83F00506C130050B401001009
:102C1000042998B54DD1274C04F1240004F0E5FBBC
:102C200040B994F8A300400838BFE06804D3D4F852
:102C3000880000E0C068E06041681F4A09781160C0
:102C4000416812680978914206D0876927B120A2AD
:102C50000CCA6FF0FF01B847022002F02DFF1120CF
:102C6000FFF708FF0120E071E068011D007C10B152
:102C70006079012804D00E20FFF7FCFEE168091DF1
:102C800008680E49083007680FB947681FB100206F
:102C9000C8610B4F0F600B4A40F2FF7000271060B5
:102CA000094C8F6109484C6104F082FA192004F044
:102CB000E9FB98BD400B0020D021084000100440E3
:102CC000510007060000046002000040E5210000FA
:102CD0000000000000000002F8B5FDF709FA2A4CD8
:102CE0000746103CD4F89C0010F4602F2BD0D4F889
:102CF0009C00400CC5B2680807D2A80803D2E808B7
:102D000028BF022502E0012500E000256E1D70B2FB
:102D100001F0DAFCD4F89C3005F111010120884063
:102D200023EA00013846C4F89C10FDF7E5F904EBEE
:102D30008500D0F88C704FB1D4F8880013A20CCA6B
:102D40003146B84702E03846FDF7D6F9D4F89C0082
:102D500020B104F1FC00002104F020F894F8A30055
:102D600080080FD3D4F8987037B1D4F8880009A23E
:102D70000CCA6FF00101B84794F8A30000F0FD0001
:102D800084F8A300F8BDC046500B002000000000EE
:102D90000000000800000000000000802DE9F04164
:102DA0002D4C0546A41C20781F4690460E46ADF1DA
:102DB000380D012803D0FFF735FC012020705EB1EB
:102DC000B8F1000F6E6007D0C5F80880FDF790F9E4
:102DD000617819B1FDF790F9002038E0491CC9B2BB
:102DE0006170FDF789F901241FB9684604F066F89F
:102DF0006F46386828607868E860387A2874F86820
:102E00006861386900B1A8610021782205F12000CD
:102E100000F03EFD05A800212422082304F062FBF7
:102E20008DF82C4005F13800002105AA04F056FB6E
:102E300005A800212422082304F038FB05490B953E
:102E400005F17000002205AB04F02CFB28460EB003
:102E5000BDE8F0815B730000400B0020F8B504F082
:102E6000EBF904F0F5F9044604F00C000C2845D009
:102E7000E0081ED203F0CAF8234E37680546012049
:102E8000014603F094FC31686943884211D21F4C1B
:102E90008220B0FBF7F0291A204604F043FB2046BD
:102EA00004F03CFB0120FEF7A5F8204603F060FC8F
:102EB00025E0200922D21648610939BF016821F0B6
:102EC0000101016841F0010102460160D2F8980059
:102ED0004FF0805440F00300C2F89800D4F8B801D5
:102EE0008069014620208847D4F8B801094C806BDE
:102EF0002168804701202060206800E030BF04F096
:102F0000A1F901F011F8F8BD70780000DC10002084
:102F10008C2108402C2009402DE9F0410E4629491A
:102F200090461C4606AF8C4672680878BB8851787C
:102F30003F881278002502EB012242F62321521A23
:102F400029D0521E052A18D9921F0CD0263A34D106
:102F5000072F30D8C7F10700984298BF83B2674463
:102F600007F1080121E0B84225DBC01B9842D8BF19
:102F700083B22380DCF804000BE0F06803F0DAFF92
:102F800080B2B84217DBC01B9842D8BF83B22380FF
:102F9000F06839180AE0082F0DD8C7F108009842E8
:102FA00098BF83B207EB0C010F31238040461A46CD
:102FB00000F0ACF803E0072501E025800A2528464B
:102FC000BDE8F0817C0D0020264838B550380468F3
:102FD000B4F1FF3F08BF002403F05CFF224817490B
:102FE000002510380560012008601549086001F0CF
:102FF0000FFC1448006820B1134800682046FFF712
:10300000A1FD124812490560124C0A686FF35B4239
:1030100044EA0200086010490868C0F30130012842
:1030200006D10A680D48104040F400320A6008607A
:103030000B4908680028FCD138BDC0465C600C40D4
:103040000822044380012843000120438C210840CA
:10305000482003400000390104000940FFFFFCFC48
:103060000C0068426C13005094046042F0B5204894
:103070000127F84201D001F001FD204D204F214EE3
:10308000BD4206D203CD0478A4003459401CA047A9
:10309000F6E71D48002800D08047164D164FBD4268
:1030A00002D210CDA047FAE7F0BD03251BE041682E
:1030B00008300A1C2A400BD11A1C2A40AB4305D009
:1030C000046804300C600431043BF9D1131C05D0B2
:1030D000047801300C700131013BF9D1021C2A4007
:1030E00001D0A84304300368002BE0D17047C046EC
:1030F000FFFFFFFF000000000000000080800000D4
:10310000E08000002880000059C50110002A4AD044
:103110005FEA000C8B071CD1830722D1102A08D349
:1031200070B4103A78C978C0103AFBD270BC103233
:1031300038D0042A2CD3082A05D30C2A24BF08C966
:1031400008C008C908C008C908C092072AD0920F51
:1031500022E00B780370491C401C521E22D08B07C2
:10316000F7D1C30714D18307D8D0121F12D308C9CF
:1031700003801B0C4380001D121FF8D20AE008C90F
:1031800003701B0A43701B0A83701B0AC370001D67
:10319000121FF4D2121D05D00B780370491C401C7D
:1031A000521EF9D1604670472DE9F843224D8846FA
:1031B00006464FF0FF3105F12400814604F066F920
:1031C00000200CE0FF2909D02A688A4204D905EBC7
:1031D0008101D1F894700FB1002627E0401CB8F1AE
:1031E000000F03D018F82010FE29EBD10024346022
:1031F00074600127B46011E0FF280ED005EB800059
:103200000B787268C0F8946007FA03F0104370609E
:103210000A680A49304602F0B7FE641CB8F1000F94
:1032200004D008EB84010878FE28E5D1484604F074
:1032300071F93046BDE8F883201E0020007FC76783
:103240002DE9F8432020EFF3118780F31188214CFA
:10325000A068012104F012F94FF001094FF00008B5
:1032600065692168A4F81C906A1A2168A4F81E8078
:10327000461B401A904227D387F3118840464519D0
:10328000361A4846294604F0F5F8B042F7D920210D
:10329000EFF3118781F31188E18B012903D14046B7
:1032A000294604F0E7F8B0F1FF3F06D0A169801B82
:1032B000814238BF081C411901E0A069291804F0B7
:1032C000D5F8A4F820902560A4F81C8087F3118815
:1032D000BDE8F883780100202DE99843FCF708FF4A
:1032E0001F4CDFF87880814604F1E000007850B987
:1032F0004446A0680146022088470746102001F096
:10330000BDFC2FB320E000F0C9FF002820460FD1FC
:10331000144909683222B2FBF1F101B9012100F12F
:103320003004204604F0FEF8204604F0F7F80FE0E1
:1033300044460022A16880F8E02002208847074622
:10334000102001F09BFC1FB1A068014603208847B4
:103350004846FCF7D1FEBDE89883C04630780000AF
:10336000D01000207078000070B51F4CA56806468C
:1033700003F004FC4FF47A71401B4843050C02F043
:1033800027FF2169401A48BF404240F6B831AD19C5
:10339000A94211D306280FDAA268E1688A420BD845
:1033A000206848B1891A114A51438A0C02EB114135
:1033B000884288BF011C08E00D49486840080ED2C9
:1033C00008687D2100F0FF004143C82905D3B1F50D
:1033D0007A6F88BF4FF47A6103E0C82101E04FF4AF
:1033E000FA61084670BDC046F81F002040420F0039
:1033F000AC3F00502DE9FC41844608AF0878DFF867
:103400007C803F88FF24022829D14E687578307867
:1034100042F6021600EB0520801B1AD04DF2EF6534
:10342000401B18BFB0F1020011D177B9012B0AD1AE
:103430001078CA681070C968474600258F4214BFCB
:1034400002242C1C0EE00D250AE00B2508E00A25BD
:1034500006E00097604601F037FB054600E00125D5
:10346000FF2C07D04046001D006818B1016809B163
:10347000204688472846BDE8FC81C046AC0F0020A6
:10348000F8B502F091FE1F4C1D4D0022012304F1FE
:103490009400294601F0AAFB0022022304F1B8009F
:1034A000294601F0A3FB04F136060C20002110226E
:1034B000A070304600F0ECF904F14607002110221C
:1034C000384600F0E5F904F1180500202860207264
:1034D00060720721A172E07201F09CFF1021324658
:1034E0002070022002F058F9032010213A4602F021
:1034F00053F904202A46014602F04EF9F8BDC046B1
:10350000D56C000058080020F8B5001D84B214F0F6
:10351000030002D0241A241DA4B203F065FA014668
:103520001948102C47680160C8BF87683888002296
:103530001646C30BDD0319D126B984420ADD3A468B
:10354000012617E01388C3189BB29C42138011DC3C
:10355000174618469FB1001B80B20428B4BF3C88B0
:10356000385344F400443C803F1D08E080F40040A0
:10357000002680B2C71938880028DAD1002708460B
:1035800003F033FC3846F8BDC0120020B0B5044645
:10359000A768ADF1280D27BB0C20FFF7B5FF071C6E
:1035A00016D0684600212422082303F07FFF002361
:1035B00006976A466168ADF810301448059303F029
:1035C00051FF386038B903F005FC384602F02CFC96
:1035D0006FF0030018E0E06878602069B860A760C9
:1035E0000AE003F001FA0546386803F0C1F82069E3
:1035F000B860284603F0F9FB3868616803F092FF71
:10360000386803F08BFF00200AB0B0BDED710000F8
:10361000B0B514460F46FCF76BFD85B2194800683B
:10362000007808B903F0C4F987B1384602F019FDF3
:1036300040B114B14FF0FF3020700820FFF746F979
:10364000002419E038687968BA6803E04FF48070A4
:103650000122014602F038F80B49012008600B49AD
:1036600008684008FCD30A4800684168022088477F
:103670000CB10021217004462846FCF73DFD204690
:10368000B0BDC04640780000A80250420880024009
:10369000CC010010F8B50E46044603F02FFF054696
:1036A000304602F087FC071C03D1284603F022FFB6
:1036B00026E0F87F10F0070F1BD113487968884285
:1036C00002D079682166786010A090E8060004F1C5
:1036D0005807284687E8060003F00CFF04F138007D
:1036E0004FF0FF3103F0D2FE04F1680696E80300C4
:1036F000F8BD284603F0FEFEF87F10F0070FFBD15F
:1037000002200021F8BDC046B148000002000000C0
:10371000000000702DE9F043ADF13C0D03F0F2FE26
:103720001A4C184D002680461C3C684600213C225D
:10373000082303F093FE54F8042F6868AF680690DE
:103740002B680897694605920F480493002203F0FE
:1037500081FE071C10D003F047F98146384601F07E
:10376000F5F848B1484603F040FB2D1D761CDCD02F
:10377000404603F0BBFE01E001F072FB0FB0BDE874
:10378000F083C0462C75000025700000CC1200208C
:103790001CB5042003F080F8022818D0032816D0A6
:1037A00016480068C0F38150032814BF41F28832E4
:1037B0004FF47A721248144C016854342046B2FB1C
:1037C000F1F103F0AFFE204603F0A8FE1CBD03207C
:1037D0000C4C009000214FF040521C23204601F079
:1037E000E1F9012000214FF40072092300902046E6
:1037F00001F0D8F9022002F047F91CBDB43F005097
:103800007078000000A00C40D0100020F0B51D4CD6
:10381000B83C04F12C052888ADF1240D694602F06E
:1038200063F99DF80000400829D304F1B80006466A
:1038300003F020FC18BB052001F050FC0746E38D87
:10384000A08DADF81630228EADF81400618EADF863
:103850001820A38EADF81A1005A8ADF81C3003F09F
:10386000B9FC60B901202B46A07119685A6829601B
:103870001C896A6030462C81394601F093FD09B0FD
:10388000F0BDC04610090020002213460A46194622
:1038900071B510F0030F0BD0002A82BF00F8011B96
:1038A000B2F1010210F0030FF6D1002A08BF71BD7A
:1038B00011F0FF0141EA0121042A18D341EA014134
:1038C000082A0FD30E46102A08D30C460D46B2F133
:1038D0000F0312F00F0272C0103BFCD812F0080F59
:1038E00018BF42C012F0040F18BF40F8041B12F0BA
:1038F000020F18BF20F8021B12F0010F18BF017051
:1039000071BD704738B51C4C04F10C0004F118016E
:10391000FFF74AFC1349A06003F019FD124D4FF464
:10392000E0212A46121F02F02FFBA0684FF4E0218D
:103930002A4602F029FBA0684FF0C0514FF0805298
:1039400002F022FB094AA0684FF0C05102F01CFBB4
:103950000749C822002304F12C0001F047F905486B
:10396000606038BD4D5D000004000580040000105B
:10397000596E0000056D00004413002002461848EF
:1039800008B50068C0F3046003F0B6FB00EB2270DA
:10399000401C162805DA10F10A0FB8BF6FF00900B5
:1039A00000E015200F49104B00F01F0040F4F850C4
:1039B00008801868800803D20C490020086001E0E4
:1039C00042F040620A49D00E930E80F0010000F0F0
:1039D0000100086083F0010000F00100886008BD6C
:1039E000B81200506E6208400000094094042A4357
:1039F0000000204338B5054601201A4C687128792B
:103A0000B0B902F0F1FF2178002904BF6FF007047C
:103A1000051C15D0491EC9B2217039B903F0E5F96A
:103A2000606802F0F1F80020687118E0054613E0C4
:103A300002F0DAFF05462078FF2805D16FF0060472
:103A4000284603F0D2F90BE0401CC0B201282070D8
:103A500002D1606802F0EFF8284603F0C6F90024AE
:103A6000204638BD7C15002070B50646B079F56853
:103A70000628A5F108052CDA3079062829DA02F0A3
:103A8000B3FF154CB27991000C3401EBC2016118FF
:103A90004968E1B103F0A9F930792870B07968700C
:103AA000307AA870B179880000EBC1002018F16865
:103AB0004068083002F0E4F9B179880000EBC100F9
:103AC00024186068406803F025FD002070BD03F0F5
:103AD0008CF96FF0020070BDF012002038B5194962
:103AE0001A4C00204822C1F8F30F94F8E200C1F804
:103AF000FF2F20B3012817D0022807D003281ED19A
:103B000051F8310C00F024F80B2016E051F8315C2C
:103B10002846FDF77FFD40F2FF50A84202D8801CE6
:103B2000A842F1D2082008E051F8310C00F058FB0F
:103B3000054800780028E7D0052084F8E400FDF768
:103B4000F9FF38BD39400C403E780000D01000200D
:103B500038B51A4CA0F5C060D4F8B810C4F8D40039
:103B60000029B8BF49420028B8BF4042814220DA4C
:103B7000B4F8BC00124D30214FF47F42082300906E
:103B8000284601F00FF8B4F8C00004214FF4F80201
:103B900012230090284601F005F8B4F8D000202147
:103BA0004FF440620A230090284600F0FBFF0120FA
:103BB00000E0002084F8D80038BDC046D0100020B6
:103BC00000A00C401A4898B5D0F8781203680F0F7F
:103BD00003F0FF03802B28BF002300F0BFFF4FF04E
:103BE000FF3478B1401E07D0401E012802D9801E44
:103BF00019D01AE0BFB118E0381C12D0801E14D1C1
:103C0000143311E03846401E0BD0801E07D0001F31
:103C100003D0401E09D1163306E0152405E0142414
:103C200003E00A2401E00A335CB2204698BDC04696
:103C3000A010005038B50546194C687816280BD1ED
:103C40006888042102F0C4F830B9012002F074FB46
:103C500028340020256038BD01F0C0FBC8B1688859
:103C600002F0BEF9E08129790B2912D0012902D195
:103C70002A7A0A2A0DD013290BD0012902D1297AD8
:103C8000122906D0E16A11F8300010B12846FEF77B
:103C900087FE297905F1080002F0C6FD012038BD34
:103CA00018020020F8B5174A174B184C121D22F0C5
:103CB00003019C4621605E1A206825686060676881
:103CC000A660002001E025F8020BAB42FBD84FF6BE
:103CD000FC75B3102A4001EB830323F8040CACEB12
:103CE0000202E82315403B80EC3DA1F8E850E831A2
:103CF00044F8081CFFF708FC44F8040C606844F81A
:103D0000080CF8BD1E200020E03E0020CC12002050
:103D100038B504461848174DC03002686B68C2F3C6
:103D20000351C2F303405B0813D22B681D0511EB4E
:103D3000257103D41029A8BF0F2100E000211B0426
:103D400010EB237303D4102BA8BF0F2300E0002334
:103D5000184640EA011002F47F4102F0FF03222CD2
:103D600041EA004143EA010024BF02F080421043CF
:103D700038BDC046AC3F0050B812005030B5401EB0
:103D80004FF00004ADF12C0D0AD0401E04D0401EAF
:103D900020D1FDF7CFFE1DE000F0C0FB044619E086
:103DA00001A821462422082303F080FB06940D4D30
:103DB000ADF8144009490794012201AB05F17800E0
:103DC00003F070FB064A23462C2105F19C0000936A
:103DD00003F07CFB20460BB030BDC0462141000003
:103DE000DD3A0000D010002038B50546880F26D3F4
:103DF00001F0ECF9124803F0DBF91548801C00785B
:103E0000012803D005F1380003F084FB0D4800249D
:103E10000460022001F038FE1120FEF757FD287CD7
:103E200010B90E20FEF752FD0748084A04721178B7
:103E3000447221B11470C830042102F0AFFF38BDC4
:103E4000112C000000000460400B00201C2000200A
:103E5000400B00202DE9F041054615F8017B904606
:103E60000E461CE0B8F1000F05F101050BD0FF2C48
:103E700009D8022015F8011B401E41EA0424F9D19B
:103E800001E0042C02D315F8011B00E0394630464E
:103E90002246FFF7FDFCA61901E006F8010B15F814
:103EA000010B8742F9D115F8014B002CE9D115F827
:103EB000010B2C7800022418D4D1BDE8F0817047A2
:103EC0000146184880B5983000688A0CC0F38367B3
:103ED000C0F38F2022D241F3072100290BD54A429B
:103EE0000021400805D17F0806BF0127381C4FF686
:103EF000FF70521EF5D1002910DD4FF6FF72400011
:103F000040F00100824207D2780040F001070F2FF5
:103F100092BF01200F27101C491EF0D140EA074034
:103F200080BDC046B8120050164880B507683FB340
:103F300015498B6803EA5300C00E21D2134A10685A
:103F400080081DD2486880081AD21068096810F0ED
:103F5000050F4FEA114101F0F00101F5E0710AD1BE
:103F6000B9420DD2190F38BF40F00100D90E38BF49
:103F700040F0040003E0B94202D920F005001060CF
:103F800080BDC04628500940AC3F005000000940A9
:103F9000F0B50E4615460746ADF11C0D03A902F01B
:103FA00013FB024605921AB300200090BDF80C00E6
:103FB000FF240DF11203294601903846029400F0C7
:103FC00025FA041C0FD16889ADF81000700804D3DD
:103FD000384604A902F05AFD03E0384604A903F06C
:103FE0009CF9041C05D004A81B2102F01DFC00E074
:103FF0001524204607B0F0BD2DE9F84F061C28D047
:104000001548017800244FF6FF7A81461FE0A00092
:1040100036F800B03518DA4515D0AF789FB102F008
:10402000D9F95FEA00080ED0780804D35846012178
:104030004246FFF7ADFFA878800804D32888022104
:104040004246FFF7A5FF99F80010641CE4B2A142B4
:10405000DDDCBDE8F88FC046580800202DE9F843A4
:104060008146EFF31188202080F311880125114E3D
:10407000114CF561114F6560F86A016A1420884798
:10408000D9F81000810C14BF000C0420A06138681E
:104090000268232100209047C6F88052206820F44F
:1040A000C02040F480302060356088F31188BDE87E
:1040B000F883C0460000244300200940840100101A
:1040C000D0B5044603F0EAF900F040FC071C08BF35
:1040D0006FF002041FD002F087FC0146A2880F484F
:1040E0000023243030F80C6F5EB902804760A2686C
:1040F00082602373786820610024084602F075FE10
:1041000009E0964208BF6FF00204F6D05B1C062B54
:10411000E8D300F0A5FE2046D0BDC046CC1200205A
:104120001648144A144908B5E4300078801E0A285D
:1041300007D8DFE800F01814100614100614100653
:1041400009C003F0B7F911E010688008FCD250688C
:104150008008FCD20AE008688008FCD306E0086802
:104160008008FCD202E010688008FCD3FDF7E2FC76
:1041700008BDC04634600C4038600C40D0100020B0
:1041800010B5FBF7B5FF114C611C097829B10E4938
:104190000C68FBF7B1FF204610BDFBF7ADFF02F046
:1041A0006FFE0DA20CCA02F0D1FDA26C0023140018
:1041B0001B1807A044EB010490E80600C91842EB65
:1041C00004021046001C10BD04300440400B0020C7
:1041D000000000127A00000000093D00000000000D
:1041E000134910B50A684BF2F5214843040AC2F39B
:1041F0008140012806D101F0EBFF00F0C9FF6043C8
:1042000004EB90540C4901F1E500007830B90948FD
:10421000006820F07F402418640802E0002081F844
:10422000E50006480460210C41600123836010BD55
:10423000B43F005010200940D01000203C600C40DA
:10424000B0B5044603F034F830F0010008BF6FF059
:1042500004041ED003F022F9054602F0C5FB014616
:104260000D480622303030F80C7F6FB1A388BB4276
:1042700008D1406800680022854208BF0122A26080
:10428000002403E0521EEED14FF0FF34084602F046
:10429000ACFD2046B0BDC046C012002008B50120CC
:1042A00002F0FAFA01281DD00F4834210122002320
:1042B00000F038FE002808BF002014D00B4800682A
:1042C00001F0C2FF02F05AFC0A4A93681168D060FC
:1042D000C01A074BA1EB91014343180C884228BF39
:1042E000011C1160012008BD00A00C4080000010DE
:1042F00040420F00F81F0020B0B5144D286800049C
:10430000070C21D001F064FF114991F90720824286
:1043100005DD10F1800FB8BF6FF07F00C8718C8889
:10432000BC4210D80A68D5F8D40F801A801C1F2808
:1043300088BF1F203F1B4008C7404FF6FF70E7199A
:10434000B84238BF071C8F80B0BDC046341009404A
:104350000C20002098B5134C0C342068011D4068D7
:10436000406810B180472168091D0868083001685D
:1043700009B94768A7B10C4A1C321768002FFCD056
:104380000023136029B1084680472068001D00689B
:104390000830406800B180470448503802F074F992
:1043A00098BDC046400B0020001004405100070695
:1043B000F8B50746FBF79CFE124C06462079E0B1A3
:1043C000401EC0B22071C0B904F1C800082102F03B
:1043D000E5FC97B1E068703002F0CAF9E0680A4D78
:1043E000C0683F1A286804F1A405B7FBF0F128461D
:1043F00003F098F8284603F091F83046FBF77CFE6E
:10440000F8BDC046400B002070780000B0B504AF86
:104410003F88002F18BF0B2025D1087802281FD114
:104420004D686C782F7800204FF6F17507EB042764
:104430007F1B012F0ED9FF1E0CD07F1E1CBF011C3D
:104440000A200FD105241C80C9680B681360097904
:104450001171B0BD01241C80C96809781170B0BD0C
:10446000002101201980B0BD1549096821280ADC06
:10447000212819D00C380FD00D380FD0001F0FD0C5
:10448000C01E0FD01AE0253810D0001F10D0401EDB
:1044900010D0401E10D011E008687047486870477F
:1044A00088687047C86870470869704748697047EE
:1044B00088697047C8697047086A7047002070476C
:1044C000F00100202DE9F041134C94F80180A5780B
:1044D000267B182002F088F8071C18D0042100223F
:1044E00002F032FD404601F087FF38727D72BE72E5
:1044F00004F13600F86004F146033B6104F1180250
:104500007A6102F081F8034A394600F0D7FEBDE82F
:10451000F081C046857300005808002038B5134D5F
:1045200095F8E100002410B91148007860B1FBF75C
:10453000DFFD95F8E310002906BF012185F8E3109F
:104540000124FBF7D9FD0CB1002038BD022001F099
:10455000B3FA0E20FEF78EFA01F084FF01280EBF99
:104560000120002085F8E20038BDC046D0100020B0
:104570003E78000070B5054628780126A23802D0A2
:104580002E381AD01DE0687913281AD128890E4CCC
:1045900001280AD12046B2380078022805D102F05D
:1045A0006FFE688802F015FF0BE0052000F096FD15
:1045B0000146204600F0F6FE03E02846FDF734FCF5
:1045C0000646304670BDC04610090020012838B5A7
:1045D0001ED1012002F060F901281BD002F0E6FA9A
:1045E0000D4D0E480122322305F1E00100680A70EA
:1045F000B3FBF0F404B914463035284602F0B8F89D
:104600002846214602F08EFF284602F087FF01E08F
:1046100001F040F8002038BDD01000207078000074
:10462000084610B500F0005100F00400084317D010
:10463000012002F031F90E4C01280CD0094909681B
:104640006C3432222046B2FBF1F102F06BFF2046BF
:1046500002F064FF10BD044802F0AAFD03480460A4
:1046600010BDC04670780000ED0500000010044049
:10467000780B002038B51248104C0168114D0C40E1
:10468000E1430160A10908D34068800905D32846A9
:104690004FF40051C83002F081FB14F4602F0BD0AE
:1046A000284600F19C010A6804F46024FC3014439D
:1046B0000C60002102F072FB38BDC04620000E00E5
:1046C00008100440400B002098B50446FBF710FD8D
:1046D0008446104890F8A310C90803D390F8A2109C
:1046E000A14213D0B0F8A0300B4F012202FA04F11E
:1046F0001943A0F8A010391D0B6804F10C07BA404B
:1047000093430B600F680FB9002101706046FBF7FF
:10471000F3FC98BD400B002008100440DCB50446B3
:1047200002F0BCFE01F080F9064602F0C1FD30F057
:10473000010014BF002E6FF0040017D0606858B15C
:10474000B0F1FF3F05D0694601F056F930B1074698
:104750000BE04FF0FF3000E00020009070680099FF
:1047600002F094FE002700B901273846DCBDFEE7C1
:104770002DE9F0410446114890F8008016460D4698
:10478000102001F031FF071C12D00421072202F093
:10479000DBFB404601F030FE38727C72BD72FE6079
:1047A00001F032FF044A394600F088FDBDE8F0818F
:1047B0000420BDE8F081C046A9730000590800201C
:1047C000F8B5044602F06AFE00F0C0F8071C19D0E4
:1047D00002F00AF984460D480021243030F80C6FAD
:1047E0006EB94FF6F872028047600025856021712E
:1047F0007868A060604602F0F8FA2846F8BD491CC7
:104800000629EBD300F02CFBF8BDC046CC120020EB
:104810000F4908680028FCD1104A131D0D4918687B
:1048200020F0030001430C480068C0080CD2106857
:1048300010F0030F0AD041F003001860106800F078
:1048400003000328FAD101E041F00101196070472B
:104850000C00684204000020B03F005000400340BC
:10486000F8B516460C46FBF743FC02460F48417864
:10487000832554B1641E02D0641E10D00DE08179EE
:10488000012904D0B0F8A01005E0876A0FB980258F
:1048900006E0806A818B318002E0032500E0317000
:1048A0001046FBF729FC2846F8BDC046400B002007
:1048B0002DE998430446276E9946904607B1B847BC
:1048C0000020022100EA090001EA0801002808BFCF
:1048D00000290BD104F1580090E8060008EA010114
:1048E00009EA0200002808BF002907D004F1680087
:1048F00080E8000304F1380002F00CFEBDE8988364
:10490000F8B50446A1686068ADF1040600250860AA
:1049100002F01AFD46F8040F002808BF6FF00300EC
:104920000FD06D1CF4D0074D6E46002756F8040BCF
:1049300055F8041BA368044A01F072FC7F1CF5D0F3
:104940000020F8BD6C780000C75900002DE9F8433D
:10495000804602F049F80F4C03250026814654F8A2
:104960000C7F5FB93046C4F800800146A6600A4655
:1049700002F06CFD606018B900F072FA474501D191
:10498000264601E06D1EEAD1484602F02EFA304676
:10499000BDE8F883CC120020B0B5054602F07EFDDC
:1049A000044602F085FC30F0010008BF6FF00404FB
:1049B00014D002F019F80A4A002132F80C7F4FB1E6
:1049C00053681B689C4204BF2971002404D0491C11
:1049D0000629F2D36FF0040402F007FA2046B0BDB6
:1049E000F01200207CB5114D04460E46600807D336
:1049F000B0B20021009001220B46284600F0D2F808
:104A0000A00807D3B0B2009000210222012328465B
:104A100000F0C8F8E00807D3B0B2009000210C22E3
:104A20000223284600F0BEF87CBDC04600A00C4022
:104A300038B50546287B00F00F00022818D10D4C30
:104A40002078012814D0FFF79BFBA9686FF0704510
:104A50008908A1EB900085420ADDB0F1704FBCBF20
:104A600005490844E168C96801F57A71814200DBB3
:104A7000002038BD400B0020F6FFFF1FF8B50646AA
:104A80000F4D104F7388002417E0A00000EBC40006
:104A9000321851689068D26852B9AF420BD00A7888
:104AA00055F822200346491C08461946904701E064
:104AB000FEF72CFB7388641CA4B2A342E5DCF8BDAE
:104AC0002880000034800000F8B506AF3F880D460E
:104AD0000646E7B9022B18D15078147804EB00246D
:104AE00034F001000FD1E9680968304602F07AFA23
:104AF000844208BF00200BD0E9680968304622468E
:104B000001F0EDFAF8BD8020F8BD0D20F8BD0B20B6
:104B1000F8BD10B504462088401E18D0401E0ED0A7
:104B2000801F07D008380ED0103816D1606802F008
:104B30004AFC08E06068007801F02CFF03E0606840
:104B4000007802F073F9606801F0C4FF10BD60687E
:104B500001F04BFE606801F0EDFF10BD104A1068D7
:104B6000C0F30F314BF69A10884207D111680B2021
:104B7000B0EB117F14BF002004207047243088421E
:104B800008BF01200BD04BF64130884208BF0320FC
:104B900005D0213888420CBF02204FF0FF3070470B
:104BA00018130050B0B500EB4100102B04AF00F516
:104BB000007403D3103B00F50174120C3D889D4036
:104BC00045EA024502F038FB002700B90127064AF2
:104BD000394610680028FCD025600120106009B11A
:104BE00002F030FBB0BDC04600800C40F0B50D4671
:104BF00014461F460646ADF1240D00212422082349
:104C0000684602F053FC00200590ADF810000848FB
:104C10004FF47A71A2B26B4600680697B1FBF0F0D0
:104C200080B229464243304602F03CFC09B0F0BD58
:104C3000707800002DE9F04104461E4690460D466E
:104C4000142001F0D1FC071C13D03246032102F0DE
:104C50007BF93C81002038744046FD6001F0CCFBBC
:104C6000787401F0D1FC044A394600F027FBBDE816
:104C7000F0810420BDE8F081416A000070B5104C5D
:104C80000646204602F040FB0025B0B9204602F05F
:104C9000A8FB0446A06806420AD0E0682269002109
:104CA0000346304698470546012D08BF012005D030
:104CB000204602F098FB041CECD1284670BDC0468B
:104CC000D0100020B0B505460D4804780E2001F044
:104CD0008BFC071C11D004210A2202F035F9204672
:104CE00001F08AFB38727D811320387301F08CFC4F
:104CF000044A394600F0E2FAB0BD0420B0BDC04617
:104D000059080020A3730000F8B504460E48801C23
:104D100006780D46142001F067FC071C11D0032112
:104D2000062202F011F93C810220B8723046FD6083
:104D300001F062FB387401F067FC024A394600F06A
:104D4000BDFAF8BDB5730000180200202DE9F0414E
:104D500002F0BEFA0D4D2B688046A3B105F1940612
:104D60000024012707FA04F018EA000F07D056F8CC
:104D7000240020B1026812B1214690472B68641CC0
:104D8000E4B29C42EED3BDE8F081C046201E002074
:104D90000C4885460C4885446F4607208743BD462E
:104DA0000A486F4607600A48002803D07946491D23
:104DB0008E460047FEF75AF901F0BCFF02F042FBB5
:104DC000FEE7C046E03E00200004000094150020ED
:104DD000DD7200002DE9F04104460E48057890464A
:104DE0000E46102001F000FC071C10D032460421B2
:104DF00002F0AAF8284601F0FFFA3872FC6001F0D0
:104E000003FC3946424600F059FABDE8F08104201F
:104E1000BDE8F081590800202DE9F04104461E4606
:104E200090460D46142001F0DFFB071C11D03246DE
:104E3000032102F089F83C814046FD6001F0DCFA74
:104E4000387401F0E1FB044A394600F037FABDE856
:104E5000F0810420BDE8F081195B000000BF7047BD
:104E600008B5FFF7FBFFFEE738B5054609480068BF
:104E70008047094C201D006810B10146284688472C
:104E8000206800B18047054800688047FFF7E8FFC9
:104E900038BDC046841500208C15002088150020E0
:104EA000D0B504463C20FEF72FFB071C14D0002190
:104EB0003C22082302F0D2FA207AB8616089386275
:104EC000E068386160683946002202F0C3FA06469D
:104ED000384600F0A9FF16B96FF00300D0BD0020DE
:104EE000D0BD7047F8B506460C480068448805797F
:104EF000102001F079FB071C0DD00221152202F0D1
:104F000048F93C81BD72FE6001F07EFB044A3946DF
:104F100000F0D4F9F8BD0420F8BDC04640020020DE
:104F20005B710000F8B51E4614460D18102E02D312
:104F3000103EAD1C240C02F07FF9002700B90127B8
:104F400007483B460768002FFCD02D8801210160EF
:104F50000BB102F077F92C403441A0B2F8BDC04645
:104F600000800C400E4938B5CA68824210D148789A
:104F700001280DD1FBF7BCF80546084801F084FB79
:104F800004462846FBF7B8F804F0FF00012802D0D9
:104F90006FF07F0038BD4FFAA4F038BD0100030464
:104FA000400B002000B500213C220823ADF13C0D50
:104FB000684602F053FA094800F28F2107914FF436
:104FC0006C71089101210691054900236A4600F59C
:104FD000887002F033FA0FB000BDC04618020020FE
:104FE000650B0000B0B505460C46102001F0FCFA38
:104FF000071C12D02946062202F0CBF81525002006
:105000003881074A7D8102F16D00F86001F0FCFAF9
:105010003946224600F052F9B0BD0420B0BDC0466A
:105020001C0200202DE9F0410446984616460D4624
:105030000E2001F0D9FA071C10D08120387001230E
:10504000FB70BC803D817E81A7F80C8001F0DCFA0A
:10505000069A394600F032F9BDE8F0810420BDE837
:10506000F081FEE72DE9F0410446984616460D46CC
:10507000142001F0B9FA071C0ED00121142202F00D
:1050800088F83C72FD603E8287F8128001F0BCFA1D
:10509000024A394600F012F9BDE8F0813171000092
:1050A00000B500213C220823ADF13C0D684602F01A
:1050B000D5F9084800F5967107914FF4DC71089115
:1050C00003210691044900236A46DC3002F0B6F958
:1050D0000FB000BD58080020F52700003EB505467A
:1050E0000020ADF804000A2001F07EFA041C0DD067
:1050F0000421312201F028FF258101F085FA01A960
:105100000223044A0091214600F0F6F8BDF804009D
:105110003EBDC04691730000F8B5044616460D46E4
:10512000142001F061FA071C0FD00421022202F0C2
:1051300030F8BC60BD811020B8733E6101F064FAA4
:10514000034A394600F0BAF8F8BD0420F8BDC0465D
:105150002371000070B50446606810F07F4F18BFDF
:105160006FF0020011D101F03FFC084D064628788F
:1051700028B1686800F048FD606800F05CFD606878
:105180006860304601F031FE002070BD7C150020C3
:105190000D4938B5D1F8EC3209681B3800FB00F432
:1051A00009060A1643F3072100FB01F519066043BF
:1051B000091661434243891201EBE50101EBA2406C
:1051C00000EB234038BDC046A41000500C490868CD
:1051D00020F0020040F4007008600A48032140F803
:1051E000041C41F230018160012101605022826083
:1051F00001604FF4CA628260016040F80C1C704785
:10520000000004600C410440F0B5044605AFADF168
:105210000C0D03B9084B97E860008DE86000FCF7BF
:105220004BFD011C44BF05A003C802D42046FEF775
:1052300031FA03B0F0BDC046B148000000000000E4
:10524000000000800A460D4970B50B78CE788C7846
:105250004D7888B1401E0ED0401E0BD0401E08D0A5
:10526000401E0AD108460C300168116000791071A7
:1052700070BD344625462B46137070BDAC0F002020
:1052800038B50446FAF734FF05460B48401C007851
:1052900068B1204601F0F8F904462846FAF72CFFD9
:1052A00004F0FF04012C0CBF8120022038BD2846E9
:1052B000FAF722FF012038BD400B00201CB5144630
:1052C000CA78012A02D18A880A4B1A8000F01AFE95
:1052D00030B9002000906946204601F095FA18B1D7
:1052E00001F04AFB044603E00098447801F016FC04
:1052F00020461CBD7015002038B51C46154600F030
:1053000001FEB0B9002000906946284601F07CFA01
:1053100078B90099487848B90846C1798C4205D1D6
:105320000146049889682246FDF7F0FE009801F0D6
:10533000F5FB38BD38B50546102001F055F9041CC1
:105340000ED00121132201F024FF25810020A0723C
:10535000044AE26001F058F9034A2146FFF7AEFF24
:1053600038BDC04640E201003F71000010B5044660
:105370000B4802680023D90750080143D007801A60
:105380004FF47A729941FCF74BF8002908BFB0F14D
:10539000004F28BF6FF000406060002010BDC04685
:1053A0007078000038B50D46044602F024F810B1BC
:1053B000204601F0DDF9084800684FF47A71B1FB2E
:1053C000F0F080B205FB00F1204602F0ABF8204679
:1053D00002F0A4F838BDC046707800001CB500206B
:1053E0008DF80400082001F0FFF8041C0CD0012106
:1053F000182201F0CEFE01F007F901A90123044AA9
:1054000000912146FFF778FF9DF804001CBDC046BF
:10541000777100001CB500208DF80400082001F011
:10542000E3F8041C0CD00121122201F0B2FE01F0BD
:10543000EBF801A90123044A00912146FFF75CFF24
:105440009DF804001CBDC0468571000038B50C4CA9
:10545000283CA06A90B1E1780830491CE170FFF760
:1054600041FD0546162D09D0042D07D0A06A4088BD
:10547000002100F0ADFC284600F05EFF38BDC046BC
:10548000400200202DE9B0430F46044601F0B1FF71
:1054900004F1280292E800034B464246FBF7C0FFA6
:1054A00005460B462A464046494601F04FFC17B1D7
:1054B000303484E803002846BDE8B08398B501463F
:1054C000886840F6030320271A46521C02E0406811
:1054D0007F1EFFB260B15FB10488A34218BFA24231
:1054E000F5D1C9681CC820311CC189C881E8890070
:1054F00098BD7047B0B504460D46102001F074F811
:10550000071C0DD00421362201F01EFD3C81012034
:105510007881FD6001F078F8024A3946FFF7CEFE47
:10552000B0BDC0466D73000070B505460E460C2038
:1055300001F05AF8041C0CD00421302201F004FDC3
:105540002581668101F060F8034A2146FFF7B6FE27
:1055500070BD042070BDC0469D7300000B4838B577
:10556000323805780A2001F03FF8041C0CD00221E3
:10557000122201F00EFE284600F03EFF207201F0DC
:1055800043F8214600F0BEFC38BDC0464C02002066
:10559000024680B5062A0CDA094F900000EBC200E3
:1055A00007F10C02175A13181FB14FF6F870B842E2
:1055B00002D14FF0FF3080BD18880880002080BDE8
:1055C000F012002010B5044601F068FF00F02CFA3C
:1055D000002808BF6FF004000DD0083000F070FB09
:1055E000A06038B110F8081C217110F8070CA071E8
:1055F000002010BD022010BD10B5044600212C2251
:105600000823ADF1300D684601F058FEE020089007
:10561000A168606800236A4601F00CFF002818BFEB
:10562000002001D1FFF71CFC0CB010BD10B50446E2
:1056300000212C220823ADF1300D684601F03EFE1A
:10564000E068A1680890606800236A4601F0F2FEF5
:10565000002818BF002001D1FFF702FC0CB010BDDC
:1056600010B5044601F0C0F9094B0022014633F899
:105670000C0F30B1A04208BFD4B203D0521C062A8E
:10568000F5D3FF24084601F0B0FB204610BDC0460C
:10569000F012002010B503200021FFF7A3F901202C
:1056A00001F0FAF818B10648006800F0CDFD01F0ED
:1056B00065FA044C083C606000F08AFD206110BD72
:1056C00080000010002000200B4B10B514331C6824
:1056D000C1F30F2102F00F02C0F38710090440EA62
:1056E000022024F480641C602404240C0C431C60FD
:1056F0000143596010BDC0460080024038B5FAF73A
:10570000F7FC05460948E030007838B10648002427
:10571000342101222346FFF705FC00B1012428466D
:10572000FAF7EAFC204638BD00A00C40D01000205B
:10573000F8B5064637680D4600242C601FB9FAF705
:10574000D7FC374608E0FAF7D3FC00E03F68396839
:105750000029FBD1BD4201D03D600124FAF7CCFC09
:105760002046F8BD0B4A88B1401E0CD0401E07D021
:10577000401E0ED109781046C1708068FEF73CBC0F
:105780001046801C03E01046401C00E010460978DB
:1057900001707047AC0F0020F8B5044616460D4660
:1057A000102000F021FF071C0CD00521012201F080
:1057B000CBFB3C727D72FE6000F026FF024A394648
:1057C000FFF77CFDF8BDC046BB730000F8B504468A
:1057D00016460D46102000F007FF071C0CD00521CF
:1057E000022201F0B1FB3C727D72FE6000F00CFF02
:1057F000024A3946FFF762FDF8BDC046C17300009A
:1058000038B505460C2000F0EFFE041C0DD02946EB
:10581000002201F0BEFC4FF0FF30A06000F0F4FE6B
:10582000034A2146FFF74AFD38BD042038BDC04673
:105830001D5D0000F8B505460A4804780E460A20AA
:1058400000F0D2FE071C0CD02946324601F0A1FC24
:10585000204600F0D1FD387200F0D6FE394600F047
:1058600051FBF8BD1A020020801EADF1080D12D0C8
:10587000801E10D0401E07D001208DF801009DF839
:1058800001000028FBD106E001208DF800009DF802
:1058900000000028FBD102B07047F8B50446164658
:1058A0000D46102000F0A0FE071C0DD02A46042152
:1058B00001F04AFBBC600020F86000F0A5FE39460C
:1058C0003246FFF7FBFCF8BD0420F8BD10788028B5
:1058D00011D1508840F27F6181420CD190883F21E4
:1058E000B1EBA02F07D1C0F3C211042903D100F0FE
:1058F0007F00834201D0002070470120704710785C
:10590000802811D1508840F27F6181420CD190886B
:105910003F21B1EBA02F07D1C0F3C211032903D15E
:1059200000F07F00834201D00020704701207047C3
:105930001078802811D1508840F27F6181420CD1CB
:1059400090883F21B1EBA02F07D1C0F3C2110529E8
:1059500003D100F07F00834201D000207047012076
:105960007047F8B507461E4615460C46142000F051
:105970005BFE011C0DD03A461368C81C0360928878
:1059800082804C810D734E7306980861202000F0D0
:10599000BFFCF8BD70B5044604F128020CCA0846E5
:1059A000002101F0D3F904F1300292E860002D18D3
:1059B00046EB0106290C3004014300F00DF93834A0
:1059C00084E8600070BD10B5401E14460DD0401E26
:1059D00009D0801E05D0001F01D0FFF741FA052035
:1059E00004E0002002E0042000E0022022682146BA
:1059F0009047002010BD70470A4A10B512680C4647
:105A00004FF47A710023A1FB0001FBF709FD002987
:105A100008BFB0F1004F2EBF6FF0020020600020E1
:105A200010BDC0467078000038B5054600F0DCFFB8
:105A3000084C03220146243C54F80C0F18B1A8422C
:105A400002D0521EF8D10024084601F0CEF92046BB
:105A500038BDC046F01200200949020480B5120C7E
:105A600041F8082CC0F3074041F8040C01200860FD
:105A700004480768002FFCD00020086080BDC046A5
:105A800044600C4084088C4310B50446FAF730FBA0
:105A9000084BE21892F8E810491EC9B282F8E810E3
:105AA00021B99A680121A1408A439A60FAF724FB40
:105AB00010BDC046D010002038B50446FAF718FBD8
:105AC000084A02F108031D680121A1401219294367
:105AD000196092F8E810491C82F8E810FAF70CFBFC
